{
	"StudentRegistry.sol": {
		"StudentRegistry": {
			"abi": [
				{
					"inputs": [
						{
							"internalType": "uint256",
							"name": "_id",
							"type": "uint256"
						}
					],
					"name": "deleteStudentById",
					"outputs": [],
					"stateMutability": "nonpayable",
					"type": "function"
				},
				{
					"inputs": [
						{
							"internalType": "uint256",
							"name": "_id",
							"type": "uint256"
						}
					],
					"name": "getStudentById",
					"outputs": [
						{
							"components": [
								{
									"internalType": "uint256",
									"name": "id",
									"type": "uint256"
								},
								{
									"internalType": "string",
									"name": "name",
									"type": "string"
								},
								{
									"internalType": "uint256",
									"name": "age",
									"type": "uint256"
								}
							],
							"internalType": "struct StudentRegistry.Student",
							"name": "",
							"type": "tuple"
						}
					],
					"stateMutability": "view",
					"type": "function"
				},
				{
					"inputs": [],
					"name": "getStudents",
					"outputs": [
						{
							"components": [
								{
									"internalType": "uint256",
									"name": "id",
									"type": "uint256"
								},
								{
									"internalType": "string",
									"name": "name",
									"type": "string"
								},
								{
									"internalType": "uint256",
									"name": "age",
									"type": "uint256"
								}
							],
							"internalType": "struct StudentRegistry.Student[]",
							"name": "",
							"type": "tuple[]"
						}
					],
					"stateMutability": "view",
					"type": "function"
				},
				{
					"inputs": [
						{
							"internalType": "uint256",
							"name": "_id",
							"type": "uint256"
						},
						{
							"internalType": "string",
							"name": "_name",
							"type": "string"
						},
						{
							"internalType": "uint256",
							"name": "_age",
							"type": "uint256"
						}
					],
					"name": "registerStudent",
					"outputs": [],
					"stateMutability": "nonpayable",
					"type": "function"
				},
				{
					"inputs": [
						{
							"internalType": "uint256",
							"name": "_id",
							"type": "uint256"
						},
						{
							"internalType": "string",
							"name": "_name",
							"type": "string"
						},
						{
							"internalType": "uint256",
							"name": "_age",
							"type": "uint256"
						}
					],
					"name": "updateStudent",
					"outputs": [],
					"stateMutability": "nonpayable",
					"type": "function"
				}
			],
			"devdoc": {
				"kind": "dev",
				"methods": {},
				"version": 1
			},
			"evm": {
				"assembly": "    /* \"StudentRegistry.sol\":58:1916  contract StudentRegistry {... */\n  mstore(0x40, 0x80)\n  callvalue\n  dup1\n  iszero\n  tag_1\n  jumpi\n  0x00\n  dup1\n  revert\ntag_1:\n  pop\n  dataSize(sub_0)\n  dup1\n  dataOffset(sub_0)\n  0x00\n  codecopy\n  0x00\n  return\nstop\n\nsub_0: assembly {\n        /* \"StudentRegistry.sol\":58:1916  contract StudentRegistry {... */\n      mstore(0x40, 0x80)\n      callvalue\n      dup1\n      iszero\n      tag_1\n      jumpi\n      0x00\n      dup1\n      revert\n    tag_1:\n      pop\n      jumpi(tag_2, lt(calldatasize, 0x04))\n      shr(0xe0, calldataload(0x00))\n      dup1\n      0x1b5c81a5\n      eq\n      tag_3\n      jumpi\n      dup1\n      0xc8fb0793\n      eq\n      tag_4\n      jumpi\n      dup1\n      0xdc3266c6\n      eq\n      tag_5\n      jumpi\n      dup1\n      0xec7505b1\n      eq\n      tag_6\n      jumpi\n      dup1\n      0xf1d064b3\n      eq\n      tag_7\n      jumpi\n    tag_2:\n      0x00\n      dup1\n      revert\n        /* \"StudentRegistry.sol\":396:692  function registerStudent(uint _id, string memory _name, uint _age) public {... */\n    tag_3:\n      tag_8\n      0x04\n      dup1\n      calldatasize\n      sub\n      dup2\n      add\n      swap1\n      tag_9\n      swap2\n      swap1\n      tag_10\n      jump\t// in\n    tag_9:\n      tag_11\n      jump\t// in\n    tag_8:\n      stop\n        /* \"StudentRegistry.sol\":810:1116  function getStudentById(uint _id) public view returns (Student memory) {... */\n    tag_4:\n      tag_12\n      0x04\n      dup1\n      calldatasize\n      sub\n      dup2\n      add\n      swap1\n      tag_13\n      swap2\n      swap1\n      tag_14\n      jump\t// in\n    tag_13:\n      tag_15\n      jump\t// in\n    tag_12:\n      mload(0x40)\n      tag_16\n      swap2\n      swap1\n      tag_17\n      jump\t// in\n    tag_16:\n      mload(0x40)\n      dup1\n      swap2\n      sub\n      swap1\n      return\n        /* \"StudentRegistry.sol\":1517:1914  function deleteStudentById(uint _id) public {... */\n    tag_5:\n      tag_18\n      0x04\n      dup1\n      calldatasize\n      sub\n      dup2\n      add\n      swap1\n      tag_19\n      swap2\n      swap1\n      tag_14\n      jump\t// in\n    tag_19:\n      tag_20\n      jump\t// in\n    tag_18:\n      stop\n        /* \"StudentRegistry.sol\":1122:1511  function updateStudent(uint _id, string memory _name, uint _age) public {... */\n    tag_6:\n      tag_21\n      0x04\n      dup1\n      calldatasize\n      sub\n      dup2\n      add\n      swap1\n      tag_22\n      swap2\n      swap1\n      tag_10\n      jump\t// in\n    tag_22:\n      tag_23\n      jump\t// in\n    tag_21:\n      stop\n        /* \"StudentRegistry.sol\":698:804  function getStudents() public view returns (Student[] memory) {... */\n    tag_7:\n      tag_24\n      tag_25\n      jump\t// in\n    tag_24:\n      mload(0x40)\n      tag_26\n      swap2\n      swap1\n      tag_27\n      jump\t// in\n    tag_26:\n      mload(0x40)\n      dup1\n      swap2\n      sub\n      swap1\n      return\n        /* \"StudentRegistry.sol\":396:692  function registerStudent(uint _id, string memory _name, uint _age) public {... */\n    tag_11:\n        /* \"StudentRegistry.sol\":485:491  uint i */\n      0x00\n        /* \"StudentRegistry.sol\":480:623  for (uint i = 0; i < students[msg.sender].length; i++) {... */\n    tag_29:\n        /* \"StudentRegistry.sol\":501:509  students */\n      0x00\n        /* \"StudentRegistry.sol\":501:521  students[msg.sender] */\n      dup1\n        /* \"StudentRegistry.sol\":510:520  msg.sender */\n      caller\n        /* \"StudentRegistry.sol\":501:521  students[msg.sender] */\n      0xffffffffffffffffffffffffffffffffffffffff\n      and\n      0xffffffffffffffffffffffffffffffffffffffff\n      and\n      dup2\n      mstore\n      0x20\n      add\n      swap1\n      dup2\n      mstore\n      0x20\n      add\n      0x00\n      keccak256\n        /* \"StudentRegistry.sol\":501:528  students[msg.sender].length */\n      dup1\n      sload\n      swap1\n      pop\n        /* \"StudentRegistry.sol\":497:498  i */\n      dup2\n        /* \"StudentRegistry.sol\":497:528  i < students[msg.sender].length */\n      lt\n        /* \"StudentRegistry.sol\":480:623  for (uint i = 0; i < students[msg.sender].length; i++) {... */\n      iszero\n      tag_30\n      jumpi\n        /* \"StudentRegistry.sol\":587:590  _id */\n      dup4\n        /* \"StudentRegistry.sol\":557:565  students */\n      0x00\n        /* \"StudentRegistry.sol\":557:577  students[msg.sender] */\n      dup1\n        /* \"StudentRegistry.sol\":566:576  msg.sender */\n      caller\n        /* \"StudentRegistry.sol\":557:577  students[msg.sender] */\n      0xffffffffffffffffffffffffffffffffffffffff\n      and\n      0xffffffffffffffffffffffffffffffffffffffff\n      and\n      dup2\n      mstore\n      0x20\n      add\n      swap1\n      dup2\n      mstore\n      0x20\n      add\n      0x00\n      keccak256\n        /* \"StudentRegistry.sol\":578:579  i */\n      dup3\n        /* \"StudentRegistry.sol\":557:580  students[msg.sender][i] */\n      dup2\n      sload\n      dup2\n      lt\n      tag_32\n      jumpi\n      tag_33\n      tag_34\n      jump\t// in\n    tag_33:\n    tag_32:\n      swap1\n      0x00\n      mstore\n      keccak256(0x00, 0x20)\n      swap1\n      0x03\n      mul\n      add\n        /* \"StudentRegistry.sol\":557:583  students[msg.sender][i].id */\n      0x00\n      add\n      sload\n        /* \"StudentRegistry.sol\":557:590  students[msg.sender][i].id != _id */\n      sub\n        /* \"StudentRegistry.sol\":549:612  require(students[msg.sender][i].id != _id, \"ID already exists\") */\n      tag_36\n      jumpi\n      mload(0x40)\n      0x08c379a000000000000000000000000000000000000000000000000000000000\n      dup2\n      mstore\n      0x04\n      add\n      tag_37\n      swap1\n      tag_38\n      jump\t// in\n    tag_37:\n      mload(0x40)\n      dup1\n      swap2\n      sub\n      swap1\n      revert\n    tag_36:\n        /* \"StudentRegistry.sol\":530:533  i++ */\n      dup1\n      dup1\n      tag_39\n      swap1\n      tag_40\n      jump\t// in\n    tag_39:\n      swap2\n      pop\n      pop\n        /* \"StudentRegistry.sol\":480:623  for (uint i = 0; i < students[msg.sender].length; i++) {... */\n      jump(tag_29)\n    tag_30:\n      pop\n        /* \"StudentRegistry.sol\":633:641  students */\n      0x00\n        /* \"StudentRegistry.sol\":633:653  students[msg.sender] */\n      dup1\n        /* \"StudentRegistry.sol\":642:652  msg.sender */\n      caller\n        /* \"StudentRegistry.sol\":633:653  students[msg.sender] */\n      0xffffffffffffffffffffffffffffffffffffffff\n      and\n      0xffffffffffffffffffffffffffffffffffffffff\n      and\n      dup2\n      mstore\n      0x20\n      add\n      swap1\n      dup2\n      mstore\n      0x20\n      add\n      0x00\n      keccak256\n        /* \"StudentRegistry.sol\":659:684  Student(_id, _name, _age) */\n      mload(0x40)\n      dup1\n      0x60\n      add\n      0x40\n      mstore\n      dup1\n        /* \"StudentRegistry.sol\":667:670  _id */\n      dup6\n        /* \"StudentRegistry.sol\":659:684  Student(_id, _name, _age) */\n      dup2\n      mstore\n      0x20\n      add\n        /* \"StudentRegistry.sol\":672:677  _name */\n      dup5\n        /* \"StudentRegistry.sol\":659:684  Student(_id, _name, _age) */\n      dup2\n      mstore\n      0x20\n      add\n        /* \"StudentRegistry.sol\":679:683  _age */\n      dup4\n        /* \"StudentRegistry.sol\":659:684  Student(_id, _name, _age) */\n      dup2\n      mstore\n      pop\n        /* \"StudentRegistry.sol\":633:685  students[msg.sender].push(Student(_id, _name, _age)) */\n      swap1\n      dup1\n      0x01\n      dup2\n      sload\n      add\n      dup1\n      dup3\n      sstore\n      dup1\n      swap2\n      pop\n      pop\n      0x01\n      swap1\n      sub\n      swap1\n      0x00\n      mstore\n      keccak256(0x00, 0x20)\n      swap1\n      0x03\n      mul\n      add\n      0x00\n      swap1\n      swap2\n      swap1\n      swap2\n      swap1\n      swap2\n      pop\n      0x00\n      dup3\n      add\n      mload\n      dup2\n      0x00\n      add\n      sstore\n      0x20\n      dup3\n      add\n      mload\n      dup2\n      0x01\n      add\n      swap1\n      dup2\n      tag_42\n      swap2\n      swap1\n      tag_43\n      jump\t// in\n    tag_42:\n      pop\n      0x40\n      dup3\n      add\n      mload\n      dup2\n      0x02\n      add\n      sstore\n      pop\n      pop\n        /* \"StudentRegistry.sol\":396:692  function registerStudent(uint _id, string memory _name, uint _age) public {... */\n      pop\n      pop\n      pop\n      jump\t// out\n        /* \"StudentRegistry.sol\":810:1116  function getStudentById(uint _id) public view returns (Student memory) {... */\n    tag_15:\n        /* \"StudentRegistry.sol\":865:879  Student memory */\n      tag_44\n      tag_45\n      jump\t// in\n    tag_44:\n        /* \"StudentRegistry.sol\":896:902  uint i */\n      0x00\n        /* \"StudentRegistry.sol\":891:1071  for (uint i = 0; i < students[msg.sender].length; i++) {... */\n    tag_47:\n        /* \"StudentRegistry.sol\":912:920  students */\n      0x00\n        /* \"StudentRegistry.sol\":912:932  students[msg.sender] */\n      dup1\n        /* \"StudentRegistry.sol\":921:931  msg.sender */\n      caller\n        /* \"StudentRegistry.sol\":912:932  students[msg.sender] */\n      0xffffffffffffffffffffffffffffffffffffffff\n      and\n      0xffffffffffffffffffffffffffffffffffffffff\n      and\n      dup2\n      mstore\n      0x20\n      add\n      swap1\n      dup2\n      mstore\n      0x20\n      add\n      0x00\n      keccak256\n        /* \"StudentRegistry.sol\":912:939  students[msg.sender].length */\n      dup1\n      sload\n      swap1\n      pop\n        /* \"StudentRegistry.sol\":908:909  i */\n      dup2\n        /* \"StudentRegistry.sol\":908:939  i < students[msg.sender].length */\n      lt\n        /* \"StudentRegistry.sol\":891:1071  for (uint i = 0; i < students[msg.sender].length; i++) {... */\n      iszero\n      tag_48\n      jumpi\n        /* \"StudentRegistry.sol\":993:996  _id */\n      dup3\n        /* \"StudentRegistry.sol\":963:971  students */\n      0x00\n        /* \"StudentRegistry.sol\":963:983  students[msg.sender] */\n      dup1\n        /* \"StudentRegistry.sol\":972:982  msg.sender */\n      caller\n        /* \"StudentRegistry.sol\":963:983  students[msg.sender] */\n      0xffffffffffffffffffffffffffffffffffffffff\n      and\n      0xffffffffffffffffffffffffffffffffffffffff\n      and\n      dup2\n      mstore\n      0x20\n      add\n      swap1\n      dup2\n      mstore\n      0x20\n      add\n      0x00\n      keccak256\n        /* \"StudentRegistry.sol\":984:985  i */\n      dup3\n        /* \"StudentRegistry.sol\":963:986  students[msg.sender][i] */\n      dup2\n      sload\n      dup2\n      lt\n      tag_50\n      jumpi\n      tag_51\n      tag_34\n      jump\t// in\n    tag_51:\n    tag_50:\n      swap1\n      0x00\n      mstore\n      keccak256(0x00, 0x20)\n      swap1\n      0x03\n      mul\n      add\n        /* \"StudentRegistry.sol\":963:989  students[msg.sender][i].id */\n      0x00\n      add\n      sload\n        /* \"StudentRegistry.sol\":963:996  students[msg.sender][i].id == _id */\n      sub\n        /* \"StudentRegistry.sol\":960:1061  if(students[msg.sender][i].id == _id) {... */\n      tag_53\n      jumpi\n        /* \"StudentRegistry.sol\":1023:1031  students */\n      0x00\n        /* \"StudentRegistry.sol\":1023:1043  students[msg.sender] */\n      dup1\n        /* \"StudentRegistry.sol\":1032:1042  msg.sender */\n      caller\n        /* \"StudentRegistry.sol\":1023:1043  students[msg.sender] */\n      0xffffffffffffffffffffffffffffffffffffffff\n      and\n      0xffffffffffffffffffffffffffffffffffffffff\n      and\n      dup2\n      mstore\n      0x20\n      add\n      swap1\n      dup2\n      mstore\n      0x20\n      add\n      0x00\n      keccak256\n        /* \"StudentRegistry.sol\":1044:1045  i */\n      dup2\n        /* \"StudentRegistry.sol\":1023:1046  students[msg.sender][i] */\n      dup2\n      sload\n      dup2\n      lt\n      tag_54\n      jumpi\n      tag_55\n      tag_34\n      jump\t// in\n    tag_55:\n    tag_54:\n      swap1\n      0x00\n      mstore\n      keccak256(0x00, 0x20)\n      swap1\n      0x03\n      mul\n      add\n        /* \"StudentRegistry.sol\":1016:1046  return students[msg.sender][i] */\n      mload(0x40)\n      dup1\n      0x60\n      add\n      0x40\n      mstore\n      swap1\n      dup2\n      0x00\n      dup3\n      add\n      sload\n      dup2\n      mstore\n      0x20\n      add\n      0x01\n      dup3\n      add\n      dup1\n      sload\n      tag_57\n      swap1\n      tag_58\n      jump\t// in\n    tag_57:\n      dup1\n      0x1f\n      add\n      0x20\n      dup1\n      swap2\n      div\n      mul\n      0x20\n      add\n      mload(0x40)\n      swap1\n      dup2\n      add\n      0x40\n      mstore\n      dup1\n      swap3\n      swap2\n      swap1\n      dup2\n      dup2\n      mstore\n      0x20\n      add\n      dup3\n      dup1\n      sload\n      tag_59\n      swap1\n      tag_58\n      jump\t// in\n    tag_59:\n      dup1\n      iszero\n      tag_60\n      jumpi\n      dup1\n      0x1f\n      lt\n      tag_61\n      jumpi\n      0x0100\n      dup1\n      dup4\n      sload\n      div\n      mul\n      dup4\n      mstore\n      swap2\n      0x20\n      add\n      swap2\n      jump(tag_60)\n    tag_61:\n      dup3\n      add\n      swap2\n      swap1\n      0x00\n      mstore\n      keccak256(0x00, 0x20)\n      swap1\n    tag_62:\n      dup2\n      sload\n      dup2\n      mstore\n      swap1\n      0x01\n      add\n      swap1\n      0x20\n      add\n      dup1\n      dup4\n      gt\n      tag_62\n      jumpi\n      dup3\n      swap1\n      sub\n      0x1f\n      and\n      dup3\n      add\n      swap2\n    tag_60:\n      pop\n      pop\n      pop\n      pop\n      pop\n      dup2\n      mstore\n      0x20\n      add\n      0x02\n      dup3\n      add\n      sload\n      dup2\n      mstore\n      pop\n      pop\n      swap2\n      pop\n      pop\n      jump(tag_46)\n        /* \"StudentRegistry.sol\":960:1061  if(students[msg.sender][i].id == _id) {... */\n    tag_53:\n        /* \"StudentRegistry.sol\":941:944  i++ */\n      dup1\n      dup1\n      tag_63\n      swap1\n      tag_40\n      jump\t// in\n    tag_63:\n      swap2\n      pop\n      pop\n        /* \"StudentRegistry.sol\":891:1071  for (uint i = 0; i < students[msg.sender].length; i++) {... */\n      jump(tag_47)\n    tag_48:\n      pop\n        /* \"StudentRegistry.sol\":1081:1109  revert(\"Student not found!\") */\n      mload(0x40)\n      0x08c379a000000000000000000000000000000000000000000000000000000000\n      dup2\n      mstore\n      0x04\n      add\n      tag_64\n      swap1\n      tag_65\n      jump\t// in\n    tag_64:\n      mload(0x40)\n      dup1\n      swap2\n      sub\n      swap1\n      revert\n        /* \"StudentRegistry.sol\":810:1116  function getStudentById(uint _id) public view returns (Student memory) {... */\n    tag_46:\n      swap2\n      swap1\n      pop\n      jump\t// out\n        /* \"StudentRegistry.sol\":1517:1914  function deleteStudentById(uint _id) public {... */\n    tag_20:\n        /* \"StudentRegistry.sol\":1576:1582  uint i */\n      0x00\n        /* \"StudentRegistry.sol\":1571:1869  for (uint i = 0; i < students[msg.sender].length; i++) {... */\n    tag_67:\n        /* \"StudentRegistry.sol\":1592:1600  students */\n      0x00\n        /* \"StudentRegistry.sol\":1592:1612  students[msg.sender] */\n      dup1\n        /* \"StudentRegistry.sol\":1601:1611  msg.sender */\n      caller\n        /* \"StudentRegistry.sol\":1592:1612  students[msg.sender] */\n      0xffffffffffffffffffffffffffffffffffffffff\n      and\n      0xffffffffffffffffffffffffffffffffffffffff\n      and\n      dup2\n      mstore\n      0x20\n      add\n      swap1\n      dup2\n      mstore\n      0x20\n      add\n      0x00\n      keccak256\n        /* \"StudentRegistry.sol\":1592:1619  students[msg.sender].length */\n      dup1\n      sload\n      swap1\n      pop\n        /* \"StudentRegistry.sol\":1588:1589  i */\n      dup2\n        /* \"StudentRegistry.sol\":1588:1619  i < students[msg.sender].length */\n      lt\n        /* \"StudentRegistry.sol\":1571:1869  for (uint i = 0; i < students[msg.sender].length; i++) {... */\n      iszero\n      tag_68\n      jumpi\n        /* \"StudentRegistry.sol\":1673:1676  _id */\n      dup2\n        /* \"StudentRegistry.sol\":1643:1651  students */\n      0x00\n        /* \"StudentRegistry.sol\":1643:1663  students[msg.sender] */\n      dup1\n        /* \"StudentRegistry.sol\":1652:1662  msg.sender */\n      caller\n        /* \"StudentRegistry.sol\":1643:1663  students[msg.sender] */\n      0xffffffffffffffffffffffffffffffffffffffff\n      and\n      0xffffffffffffffffffffffffffffffffffffffff\n      and\n      dup2\n      mstore\n      0x20\n      add\n      swap1\n      dup2\n      mstore\n      0x20\n      add\n      0x00\n      keccak256\n        /* \"StudentRegistry.sol\":1664:1665  i */\n      dup3\n        /* \"StudentRegistry.sol\":1643:1666  students[msg.sender][i] */\n      dup2\n      sload\n      dup2\n      lt\n      tag_70\n      jumpi\n      tag_71\n      tag_34\n      jump\t// in\n    tag_71:\n    tag_70:\n      swap1\n      0x00\n      mstore\n      keccak256(0x00, 0x20)\n      swap1\n      0x03\n      mul\n      add\n        /* \"StudentRegistry.sol\":1643:1669  students[msg.sender][i].id */\n      0x00\n      add\n      sload\n        /* \"StudentRegistry.sol\":1643:1676  students[msg.sender][i].id == _id */\n      sub\n        /* \"StudentRegistry.sol\":1640:1859  if(students[msg.sender][i].id == _id) {... */\n      tag_73\n      jumpi\n        /* \"StudentRegistry.sol\":1722:1730  students */\n      0x00\n        /* \"StudentRegistry.sol\":1722:1742  students[msg.sender] */\n      dup1\n        /* \"StudentRegistry.sol\":1731:1741  msg.sender */\n      caller\n        /* \"StudentRegistry.sol\":1722:1742  students[msg.sender] */\n      0xffffffffffffffffffffffffffffffffffffffff\n      and\n      0xffffffffffffffffffffffffffffffffffffffff\n      and\n      dup2\n      mstore\n      0x20\n      add\n      swap1\n      dup2\n      mstore\n      0x20\n      add\n      0x00\n      keccak256\n        /* \"StudentRegistry.sol\":1773:1774  1 */\n      0x01\n        /* \"StudentRegistry.sol\":1743:1751  students */\n      0x00\n        /* \"StudentRegistry.sol\":1743:1763  students[msg.sender] */\n      dup1\n        /* \"StudentRegistry.sol\":1752:1762  msg.sender */\n      caller\n        /* \"StudentRegistry.sol\":1743:1763  students[msg.sender] */\n      0xffffffffffffffffffffffffffffffffffffffff\n      and\n      0xffffffffffffffffffffffffffffffffffffffff\n      and\n      dup2\n      mstore\n      0x20\n      add\n      swap1\n      dup2\n      mstore\n      0x20\n      add\n      0x00\n      keccak256\n        /* \"StudentRegistry.sol\":1743:1770  students[msg.sender].length */\n      dup1\n      sload\n      swap1\n      pop\n        /* \"StudentRegistry.sol\":1743:1774  students[msg.sender].length - 1 */\n      tag_74\n      swap2\n      swap1\n      tag_75\n      jump\t// in\n    tag_74:\n        /* \"StudentRegistry.sol\":1722:1775  students[msg.sender][students[msg.sender].length - 1] */\n      dup2\n      sload\n      dup2\n      lt\n      tag_76\n      jumpi\n      tag_77\n      tag_34\n      jump\t// in\n    tag_77:\n    tag_76:\n      swap1\n      0x00\n      mstore\n      keccak256(0x00, 0x20)\n      swap1\n      0x03\n      mul\n      add\n        /* \"StudentRegistry.sol\":1696:1704  students */\n      0x00\n        /* \"StudentRegistry.sol\":1696:1716  students[msg.sender] */\n      dup1\n        /* \"StudentRegistry.sol\":1705:1715  msg.sender */\n      caller\n        /* \"StudentRegistry.sol\":1696:1716  students[msg.sender] */\n      0xffffffffffffffffffffffffffffffffffffffff\n      and\n      0xffffffffffffffffffffffffffffffffffffffff\n      and\n      dup2\n      mstore\n      0x20\n      add\n      swap1\n      dup2\n      mstore\n      0x20\n      add\n      0x00\n      keccak256\n        /* \"StudentRegistry.sol\":1717:1718  i */\n      dup3\n        /* \"StudentRegistry.sol\":1696:1719  students[msg.sender][i] */\n      dup2\n      sload\n      dup2\n      lt\n      tag_79\n      jumpi\n      tag_80\n      tag_34\n      jump\t// in\n    tag_80:\n    tag_79:\n      swap1\n      0x00\n      mstore\n      keccak256(0x00, 0x20)\n      swap1\n      0x03\n      mul\n      add\n        /* \"StudentRegistry.sol\":1696:1775  students[msg.sender][i] = students[msg.sender][students[msg.sender].length - 1] */\n      0x00\n      dup3\n      add\n      sload\n      dup2\n      0x00\n      add\n      sstore\n      0x01\n      dup3\n      add\n      dup2\n      0x01\n      add\n      swap1\n      dup2\n      tag_82\n      swap2\n      swap1\n      tag_83\n      jump\t// in\n    tag_82:\n      pop\n      0x02\n      dup3\n      add\n      sload\n      dup2\n      0x02\n      add\n      sstore\n      swap1\n      pop\n      pop\n        /* \"StudentRegistry.sol\":1793:1801  students */\n      0x00\n        /* \"StudentRegistry.sol\":1793:1813  students[msg.sender] */\n      dup1\n        /* \"StudentRegistry.sol\":1802:1812  msg.sender */\n      caller\n        /* \"StudentRegistry.sol\":1793:1813  students[msg.sender] */\n      0xffffffffffffffffffffffffffffffffffffffff\n      and\n      0xffffffffffffffffffffffffffffffffffffffff\n      and\n      dup2\n      mstore\n      0x20\n      add\n      swap1\n      dup2\n      mstore\n      0x20\n      add\n      0x00\n      keccak256\n        /* \"StudentRegistry.sol\":1793:1819  students[msg.sender].pop() */\n      dup1\n      sload\n      dup1\n      tag_84\n      jumpi\n      tag_85\n      tag_86\n      jump\t// in\n    tag_85:\n    tag_84:\n      0x01\n      swap1\n      sub\n      dup2\n      dup2\n      swap1\n      0x00\n      mstore\n      keccak256(0x00, 0x20)\n      swap1\n      0x03\n      mul\n      add\n      0x00\n      dup1\n      dup3\n      add\n      0x00\n      swap1\n      sstore\n      0x01\n      dup3\n      add\n      0x00\n      tag_88\n      swap2\n      swap1\n      tag_89\n      jump\t// in\n    tag_88:\n      0x02\n      dup3\n      add\n      0x00\n      swap1\n      sstore\n      pop\n      pop\n      swap1\n      sstore\n        /* \"StudentRegistry.sol\":1838:1845  return; */\n      pop\n      jump(tag_66)\n        /* \"StudentRegistry.sol\":1640:1859  if(students[msg.sender][i].id == _id) {... */\n    tag_73:\n        /* \"StudentRegistry.sol\":1621:1624  i++ */\n      dup1\n      dup1\n      tag_90\n      swap1\n      tag_40\n      jump\t// in\n    tag_90:\n      swap2\n      pop\n      pop\n        /* \"StudentRegistry.sol\":1571:1869  for (uint i = 0; i < students[msg.sender].length; i++) {... */\n      jump(tag_67)\n    tag_68:\n      pop\n        /* \"StudentRegistry.sol\":1879:1907  revert(\"Student not found!\") */\n      mload(0x40)\n      0x08c379a000000000000000000000000000000000000000000000000000000000\n      dup2\n      mstore\n      0x04\n      add\n      tag_91\n      swap1\n      tag_65\n      jump\t// in\n    tag_91:\n      mload(0x40)\n      dup1\n      swap2\n      sub\n      swap1\n      revert\n        /* \"StudentRegistry.sol\":1517:1914  function deleteStudentById(uint _id) public {... */\n    tag_66:\n      pop\n      jump\t// out\n        /* \"StudentRegistry.sol\":1122:1511  function updateStudent(uint _id, string memory _name, uint _age) public {... */\n    tag_23:\n        /* \"StudentRegistry.sol\":1208:1214  uint i */\n      0x00\n        /* \"StudentRegistry.sol\":1204:1466  for(uint i = 0; i < students[msg.sender].length; i++) {... */\n    tag_93:\n        /* \"StudentRegistry.sol\":1224:1232  students */\n      0x00\n        /* \"StudentRegistry.sol\":1224:1244  students[msg.sender] */\n      dup1\n        /* \"StudentRegistry.sol\":1233:1243  msg.sender */\n      caller\n        /* \"StudentRegistry.sol\":1224:1244  students[msg.sender] */\n      0xffffffffffffffffffffffffffffffffffffffff\n      and\n      0xffffffffffffffffffffffffffffffffffffffff\n      and\n      dup2\n      mstore\n      0x20\n      add\n      swap1\n      dup2\n      mstore\n      0x20\n      add\n      0x00\n      keccak256\n        /* \"StudentRegistry.sol\":1224:1251  students[msg.sender].length */\n      dup1\n      sload\n      swap1\n      pop\n        /* \"StudentRegistry.sol\":1220:1221  i */\n      dup2\n        /* \"StudentRegistry.sol\":1220:1251  i < students[msg.sender].length */\n      lt\n        /* \"StudentRegistry.sol\":1204:1466  for(uint i = 0; i < students[msg.sender].length; i++) {... */\n      iszero\n      tag_94\n      jumpi\n        /* \"StudentRegistry.sol\":1305:1308  _id */\n      dup4\n        /* \"StudentRegistry.sol\":1275:1283  students */\n      0x00\n        /* \"StudentRegistry.sol\":1275:1295  students[msg.sender] */\n      dup1\n        /* \"StudentRegistry.sol\":1284:1294  msg.sender */\n      caller\n        /* \"StudentRegistry.sol\":1275:1295  students[msg.sender] */\n      0xffffffffffffffffffffffffffffffffffffffff\n      and\n      0xffffffffffffffffffffffffffffffffffffffff\n      and\n      dup2\n      mstore\n      0x20\n      add\n      swap1\n      dup2\n      mstore\n      0x20\n      add\n      0x00\n      keccak256\n        /* \"StudentRegistry.sol\":1296:1297  i */\n      dup3\n        /* \"StudentRegistry.sol\":1275:1298  students[msg.sender][i] */\n      dup2\n      sload\n      dup2\n      lt\n      tag_96\n      jumpi\n      tag_97\n      tag_34\n      jump\t// in\n    tag_97:\n    tag_96:\n      swap1\n      0x00\n      mstore\n      keccak256(0x00, 0x20)\n      swap1\n      0x03\n      mul\n      add\n        /* \"StudentRegistry.sol\":1275:1301  students[msg.sender][i].id */\n      0x00\n      add\n      sload\n        /* \"StudentRegistry.sol\":1275:1308  students[msg.sender][i].id == _id */\n      sub\n        /* \"StudentRegistry.sol\":1272:1456  if(students[msg.sender][i].id == _id) {... */\n      tag_99\n      jumpi\n        /* \"StudentRegistry.sol\":1359:1364  _name */\n      dup3\n        /* \"StudentRegistry.sol\":1328:1336  students */\n      0x00\n        /* \"StudentRegistry.sol\":1328:1348  students[msg.sender] */\n      dup1\n        /* \"StudentRegistry.sol\":1337:1347  msg.sender */\n      caller\n        /* \"StudentRegistry.sol\":1328:1348  students[msg.sender] */\n      0xffffffffffffffffffffffffffffffffffffffff\n      and\n      0xffffffffffffffffffffffffffffffffffffffff\n      and\n      dup2\n      mstore\n      0x20\n      add\n      swap1\n      dup2\n      mstore\n      0x20\n      add\n      0x00\n      keccak256\n        /* \"StudentRegistry.sol\":1349:1350  i */\n      dup3\n        /* \"StudentRegistry.sol\":1328:1351  students[msg.sender][i] */\n      dup2\n      sload\n      dup2\n      lt\n      tag_100\n      jumpi\n      tag_101\n      tag_34\n      jump\t// in\n    tag_101:\n    tag_100:\n      swap1\n      0x00\n      mstore\n      keccak256(0x00, 0x20)\n      swap1\n      0x03\n      mul\n      add\n        /* \"StudentRegistry.sol\":1328:1356  students[msg.sender][i].name */\n      0x01\n      add\n        /* \"StudentRegistry.sol\":1328:1364  students[msg.sender][i].name = _name */\n      swap1\n      dup2\n      tag_103\n      swap2\n      swap1\n      tag_43\n      jump\t// in\n    tag_103:\n      pop\n        /* \"StudentRegistry.sol\":1412:1416  _age */\n      dup2\n        /* \"StudentRegistry.sol\":1382:1390  students */\n      0x00\n        /* \"StudentRegistry.sol\":1382:1402  students[msg.sender] */\n      dup1\n        /* \"StudentRegistry.sol\":1391:1401  msg.sender */\n      caller\n        /* \"StudentRegistry.sol\":1382:1402  students[msg.sender] */\n      0xffffffffffffffffffffffffffffffffffffffff\n      and\n      0xffffffffffffffffffffffffffffffffffffffff\n      and\n      dup2\n      mstore\n      0x20\n      add\n      swap1\n      dup2\n      mstore\n      0x20\n      add\n      0x00\n      keccak256\n        /* \"StudentRegistry.sol\":1403:1404  i */\n      dup3\n        /* \"StudentRegistry.sol\":1382:1405  students[msg.sender][i] */\n      dup2\n      sload\n      dup2\n      lt\n      tag_104\n      jumpi\n      tag_105\n      tag_34\n      jump\t// in\n    tag_105:\n    tag_104:\n      swap1\n      0x00\n      mstore\n      keccak256(0x00, 0x20)\n      swap1\n      0x03\n      mul\n      add\n        /* \"StudentRegistry.sol\":1382:1409  students[msg.sender][i].age */\n      0x02\n      add\n        /* \"StudentRegistry.sol\":1382:1416  students[msg.sender][i].age = _age */\n      dup2\n      swap1\n      sstore\n      pop\n        /* \"StudentRegistry.sol\":1435:1442  return; */\n      pop\n      jump(tag_92)\n        /* \"StudentRegistry.sol\":1272:1456  if(students[msg.sender][i].id == _id) {... */\n    tag_99:\n        /* \"StudentRegistry.sol\":1253:1256  i++ */\n      dup1\n      dup1\n      tag_107\n      swap1\n      tag_40\n      jump\t// in\n    tag_107:\n      swap2\n      pop\n      pop\n        /* \"StudentRegistry.sol\":1204:1466  for(uint i = 0; i < students[msg.sender].length; i++) {... */\n      jump(tag_93)\n    tag_94:\n      pop\n        /* \"StudentRegistry.sol\":1476:1504  revert(\"Student not found!\") */\n      mload(0x40)\n      0x08c379a000000000000000000000000000000000000000000000000000000000\n      dup2\n      mstore\n      0x04\n      add\n      tag_108\n      swap1\n      tag_65\n      jump\t// in\n    tag_108:\n      mload(0x40)\n      dup1\n      swap2\n      sub\n      swap1\n      revert\n        /* \"StudentRegistry.sol\":1122:1511  function updateStudent(uint _id, string memory _name, uint _age) public {... */\n    tag_92:\n      pop\n      pop\n      pop\n      jump\t// out\n        /* \"StudentRegistry.sol\":698:804  function getStudents() public view returns (Student[] memory) {... */\n    tag_25:\n        /* \"StudentRegistry.sol\":742:758  Student[] memory */\n      0x60\n        /* \"StudentRegistry.sol\":777:785  students */\n      0x00\n        /* \"StudentRegistry.sol\":777:797  students[msg.sender] */\n      dup1\n        /* \"StudentRegistry.sol\":786:796  msg.sender */\n      caller\n        /* \"StudentRegistry.sol\":777:797  students[msg.sender] */\n      0xffffffffffffffffffffffffffffffffffffffff\n      and\n      0xffffffffffffffffffffffffffffffffffffffff\n      and\n      dup2\n      mstore\n      0x20\n      add\n      swap1\n      dup2\n      mstore\n      0x20\n      add\n      0x00\n      keccak256\n        /* \"StudentRegistry.sol\":770:797  return students[msg.sender] */\n      dup1\n      sload\n      dup1\n      0x20\n      mul\n      0x20\n      add\n      mload(0x40)\n      swap1\n      dup2\n      add\n      0x40\n      mstore\n      dup1\n      swap3\n      swap2\n      swap1\n      dup2\n      dup2\n      mstore\n      0x20\n      add\n      0x00\n      swap1\n    tag_110:\n      dup3\n      dup3\n      lt\n      iszero\n      tag_111\n      jumpi\n      dup4\n      dup3\n      swap1\n      0x00\n      mstore\n      keccak256(0x00, 0x20)\n      swap1\n      0x03\n      mul\n      add\n      mload(0x40)\n      dup1\n      0x60\n      add\n      0x40\n      mstore\n      swap1\n      dup2\n      0x00\n      dup3\n      add\n      sload\n      dup2\n      mstore\n      0x20\n      add\n      0x01\n      dup3\n      add\n      dup1\n      sload\n      tag_113\n      swap1\n      tag_58\n      jump\t// in\n    tag_113:\n      dup1\n      0x1f\n      add\n      0x20\n      dup1\n      swap2\n      div\n      mul\n      0x20\n      add\n      mload(0x40)\n      swap1\n      dup2\n      add\n      0x40\n      mstore\n      dup1\n      swap3\n      swap2\n      swap1\n      dup2\n      dup2\n      mstore\n      0x20\n      add\n      dup3\n      dup1\n      sload\n      tag_114\n      swap1\n      tag_58\n      jump\t// in\n    tag_114:\n      dup1\n      iszero\n      tag_115\n      jumpi\n      dup1\n      0x1f\n      lt\n      tag_116\n      jumpi\n      0x0100\n      dup1\n      dup4\n      sload\n      div\n      mul\n      dup4\n      mstore\n      swap2\n      0x20\n      add\n      swap2\n      jump(tag_115)\n    tag_116:\n      dup3\n      add\n      swap2\n      swap1\n      0x00\n      mstore\n      keccak256(0x00, 0x20)\n      swap1\n    tag_117:\n      dup2\n      sload\n      dup2\n      mstore\n      swap1\n      0x01\n      add\n      swap1\n      0x20\n      add\n      dup1\n      dup4\n      gt\n      tag_117\n      jumpi\n      dup3\n      swap1\n      sub\n      0x1f\n      and\n      dup3\n      add\n      swap2\n    tag_115:\n      pop\n      pop\n      pop\n      pop\n      pop\n      dup2\n      mstore\n      0x20\n      add\n      0x02\n      dup3\n      add\n      sload\n      dup2\n      mstore\n      pop\n      pop\n      dup2\n      mstore\n      0x20\n      add\n      swap1\n      0x01\n      add\n      swap1\n      jump(tag_110)\n    tag_111:\n      pop\n      pop\n      pop\n      pop\n      swap1\n      pop\n        /* \"StudentRegistry.sol\":698:804  function getStudents() public view returns (Student[] memory) {... */\n      swap1\n      jump\t// out\n    tag_45:\n      mload(0x40)\n      dup1\n      0x60\n      add\n      0x40\n      mstore\n      dup1\n      0x00\n      dup2\n      mstore\n      0x20\n      add\n      0x60\n      dup2\n      mstore\n      0x20\n      add\n      0x00\n      dup2\n      mstore\n      pop\n      swap1\n      jump\t// out\n    tag_89:\n      pop\n      dup1\n      sload\n      tag_118\n      swap1\n      tag_58\n      jump\t// in\n    tag_118:\n      0x00\n      dup3\n      sstore\n      dup1\n      0x1f\n      lt\n      tag_120\n      jumpi\n      pop\n      jump(tag_119)\n    tag_120:\n      0x1f\n      add\n      0x20\n      swap1\n      div\n      swap1\n      0x00\n      mstore\n      keccak256(0x00, 0x20)\n      swap1\n      dup2\n      add\n      swap1\n      tag_121\n      swap2\n      swap1\n      tag_122\n      jump\t// in\n    tag_121:\n    tag_119:\n      pop\n      jump\t// out\n    tag_122:\n    tag_123:\n      dup1\n      dup3\n      gt\n      iszero\n      tag_124\n      jumpi\n      0x00\n      dup2\n      0x00\n      swap1\n      sstore\n      pop\n      0x01\n      add\n      jump(tag_123)\n    tag_124:\n      pop\n      swap1\n      jump\t// out\n        /* \"#utility.yul\":7:82   */\n    tag_125:\n        /* \"#utility.yul\":40:46   */\n      0x00\n        /* \"#utility.yul\":73:75   */\n      0x40\n        /* \"#utility.yul\":67:76   */\n      mload\n        /* \"#utility.yul\":57:76   */\n      swap1\n      pop\n        /* \"#utility.yul\":7:82   */\n      swap1\n      jump\t// out\n        /* \"#utility.yul\":88:205   */\n    tag_126:\n        /* \"#utility.yul\":197:198   */\n      0x00\n        /* \"#utility.yul\":194:195   */\n      dup1\n        /* \"#utility.yul\":187:199   */\n      revert\n        /* \"#utility.yul\":211:328   */\n    tag_127:\n        /* \"#utility.yul\":320:321   */\n      0x00\n        /* \"#utility.yul\":317:318   */\n      dup1\n        /* \"#utility.yul\":310:322   */\n      revert\n        /* \"#utility.yul\":334:411   */\n    tag_128:\n        /* \"#utility.yul\":371:378   */\n      0x00\n        /* \"#utility.yul\":400:405   */\n      dup2\n        /* \"#utility.yul\":389:405   */\n      swap1\n      pop\n        /* \"#utility.yul\":334:411   */\n      swap2\n      swap1\n      pop\n      jump\t// out\n        /* \"#utility.yul\":417:539   */\n    tag_129:\n        /* \"#utility.yul\":490:514   */\n      tag_183\n        /* \"#utility.yul\":508:513   */\n      dup2\n        /* \"#utility.yul\":490:514   */\n      tag_128\n      jump\t// in\n    tag_183:\n        /* \"#utility.yul\":483:488   */\n      dup2\n        /* \"#utility.yul\":480:515   */\n      eq\n        /* \"#utility.yul\":470:533   */\n      tag_184\n      jumpi\n        /* \"#utility.yul\":529:530   */\n      0x00\n        /* \"#utility.yul\":526:527   */\n      dup1\n        /* \"#utility.yul\":519:531   */\n      revert\n        /* \"#utility.yul\":470:533   */\n    tag_184:\n        /* \"#utility.yul\":417:539   */\n      pop\n      jump\t// out\n        /* \"#utility.yul\":545:684   */\n    tag_130:\n        /* \"#utility.yul\":591:596   */\n      0x00\n        /* \"#utility.yul\":629:635   */\n      dup2\n        /* \"#utility.yul\":616:636   */\n      calldataload\n        /* \"#utility.yul\":607:636   */\n      swap1\n      pop\n        /* \"#utility.yul\":645:678   */\n      tag_186\n        /* \"#utility.yul\":672:677   */\n      dup2\n        /* \"#utility.yul\":645:678   */\n      tag_129\n      jump\t// in\n    tag_186:\n        /* \"#utility.yul\":545:684   */\n      swap3\n      swap2\n      pop\n      pop\n      jump\t// out\n        /* \"#utility.yul\":690:807   */\n    tag_131:\n        /* \"#utility.yul\":799:800   */\n      0x00\n        /* \"#utility.yul\":796:797   */\n      dup1\n        /* \"#utility.yul\":789:801   */\n      revert\n        /* \"#utility.yul\":813:930   */\n    tag_132:\n        /* \"#utility.yul\":922:923   */\n      0x00\n        /* \"#utility.yul\":919:920   */\n      dup1\n        /* \"#utility.yul\":912:924   */\n      revert\n        /* \"#utility.yul\":936:1038   */\n    tag_133:\n        /* \"#utility.yul\":977:983   */\n      0x00\n        /* \"#utility.yul\":1028:1030   */\n      0x1f\n        /* \"#utility.yul\":1024:1031   */\n      not\n        /* \"#utility.yul\":1019:1021   */\n      0x1f\n        /* \"#utility.yul\":1012:1017   */\n      dup4\n        /* \"#utility.yul\":1008:1022   */\n      add\n        /* \"#utility.yul\":1004:1032   */\n      and\n        /* \"#utility.yul\":994:1032   */\n      swap1\n      pop\n        /* \"#utility.yul\":936:1038   */\n      swap2\n      swap1\n      pop\n      jump\t// out\n        /* \"#utility.yul\":1044:1224   */\n    tag_134:\n        /* \"#utility.yul\":1092:1169   */\n      0x4e487b7100000000000000000000000000000000000000000000000000000000\n        /* \"#utility.yul\":1089:1090   */\n      0x00\n        /* \"#utility.yul\":1082:1170   */\n      mstore\n        /* \"#utility.yul\":1189:1193   */\n      0x41\n        /* \"#utility.yul\":1186:1187   */\n      0x04\n        /* \"#utility.yul\":1179:1194   */\n      mstore\n        /* \"#utility.yul\":1213:1217   */\n      0x24\n        /* \"#utility.yul\":1210:1211   */\n      0x00\n        /* \"#utility.yul\":1203:1218   */\n      revert\n        /* \"#utility.yul\":1230:1511   */\n    tag_135:\n        /* \"#utility.yul\":1313:1340   */\n      tag_192\n        /* \"#utility.yul\":1335:1339   */\n      dup3\n        /* \"#utility.yul\":1313:1340   */\n      tag_133\n      jump\t// in\n    tag_192:\n        /* \"#utility.yul\":1305:1311   */\n      dup2\n        /* \"#utility.yul\":1301:1341   */\n      add\n        /* \"#utility.yul\":1443:1449   */\n      dup2\n        /* \"#utility.yul\":1431:1441   */\n      dup2\n        /* \"#utility.yul\":1428:1450   */\n      lt\n        /* \"#utility.yul\":1407:1425   */\n      0xffffffffffffffff\n        /* \"#utility.yul\":1395:1405   */\n      dup3\n        /* \"#utility.yul\":1392:1426   */\n      gt\n        /* \"#utility.yul\":1389:1451   */\n      or\n        /* \"#utility.yul\":1386:1474   */\n      iszero\n      tag_193\n      jumpi\n        /* \"#utility.yul\":1454:1472   */\n      tag_194\n      tag_134\n      jump\t// in\n    tag_194:\n        /* \"#utility.yul\":1386:1474   */\n    tag_193:\n        /* \"#utility.yul\":1494:1504   */\n      dup1\n        /* \"#utility.yul\":1490:1492   */\n      0x40\n        /* \"#utility.yul\":1483:1505   */\n      mstore\n        /* \"#utility.yul\":1273:1511   */\n      pop\n        /* \"#utility.yul\":1230:1511   */\n      pop\n      pop\n      jump\t// out\n        /* \"#utility.yul\":1517:1646   */\n    tag_136:\n        /* \"#utility.yul\":1551:1557   */\n      0x00\n        /* \"#utility.yul\":1578:1598   */\n      tag_196\n      tag_125\n      jump\t// in\n    tag_196:\n        /* \"#utility.yul\":1568:1598   */\n      swap1\n      pop\n        /* \"#utility.yul\":1607:1640   */\n      tag_197\n        /* \"#utility.yul\":1635:1639   */\n      dup3\n        /* \"#utility.yul\":1627:1633   */\n      dup3\n        /* \"#utility.yul\":1607:1640   */\n      tag_135\n      jump\t// in\n    tag_197:\n        /* \"#utility.yul\":1517:1646   */\n      swap2\n      swap1\n      pop\n      jump\t// out\n        /* \"#utility.yul\":1652:1960   */\n    tag_137:\n        /* \"#utility.yul\":1714:1718   */\n      0x00\n        /* \"#utility.yul\":1804:1822   */\n      0xffffffffffffffff\n        /* \"#utility.yul\":1796:1802   */\n      dup3\n        /* \"#utility.yul\":1793:1823   */\n      gt\n        /* \"#utility.yul\":1790:1846   */\n      iszero\n      tag_199\n      jumpi\n        /* \"#utility.yul\":1826:1844   */\n      tag_200\n      tag_134\n      jump\t// in\n    tag_200:\n        /* \"#utility.yul\":1790:1846   */\n    tag_199:\n        /* \"#utility.yul\":1864:1893   */\n      tag_201\n        /* \"#utility.yul\":1886:1892   */\n      dup3\n        /* \"#utility.yul\":1864:1893   */\n      tag_133\n      jump\t// in\n    tag_201:\n        /* \"#utility.yul\":1856:1893   */\n      swap1\n      pop\n        /* \"#utility.yul\":1948:1952   */\n      0x20\n        /* \"#utility.yul\":1942:1946   */\n      dup2\n        /* \"#utility.yul\":1938:1953   */\n      add\n        /* \"#utility.yul\":1930:1953   */\n      swap1\n      pop\n        /* \"#utility.yul\":1652:1960   */\n      swap2\n      swap1\n      pop\n      jump\t// out\n        /* \"#utility.yul\":1966:2112   */\n    tag_138:\n        /* \"#utility.yul\":2063:2069   */\n      dup3\n        /* \"#utility.yul\":2058:2061   */\n      dup2\n        /* \"#utility.yul\":2053:2056   */\n      dup4\n        /* \"#utility.yul\":2040:2070   */\n      calldatacopy\n        /* \"#utility.yul\":2104:2105   */\n      0x00\n        /* \"#utility.yul\":2095:2101   */\n      dup4\n        /* \"#utility.yul\":2090:2093   */\n      dup4\n        /* \"#utility.yul\":2086:2102   */\n      add\n        /* \"#utility.yul\":2079:2106   */\n      mstore\n        /* \"#utility.yul\":1966:2112   */\n      pop\n      pop\n      pop\n      jump\t// out\n        /* \"#utility.yul\":2118:2543   */\n    tag_139:\n        /* \"#utility.yul\":2196:2201   */\n      0x00\n        /* \"#utility.yul\":2221:2287   */\n      tag_204\n        /* \"#utility.yul\":2237:2286   */\n      tag_205\n        /* \"#utility.yul\":2279:2285   */\n      dup5\n        /* \"#utility.yul\":2237:2286   */\n      tag_137\n      jump\t// in\n    tag_205:\n        /* \"#utility.yul\":2221:2287   */\n      tag_136\n      jump\t// in\n    tag_204:\n        /* \"#utility.yul\":2212:2287   */\n      swap1\n      pop\n        /* \"#utility.yul\":2310:2316   */\n      dup3\n        /* \"#utility.yul\":2303:2308   */\n      dup2\n        /* \"#utility.yul\":2296:2317   */\n      mstore\n        /* \"#utility.yul\":2348:2352   */\n      0x20\n        /* \"#utility.yul\":2341:2346   */\n      dup2\n        /* \"#utility.yul\":2337:2353   */\n      add\n        /* \"#utility.yul\":2386:2389   */\n      dup5\n        /* \"#utility.yul\":2377:2383   */\n      dup5\n        /* \"#utility.yul\":2372:2375   */\n      dup5\n        /* \"#utility.yul\":2368:2384   */\n      add\n        /* \"#utility.yul\":2365:2390   */\n      gt\n        /* \"#utility.yul\":2362:2474   */\n      iszero\n      tag_206\n      jumpi\n        /* \"#utility.yul\":2393:2472   */\n      tag_207\n      tag_132\n      jump\t// in\n    tag_207:\n        /* \"#utility.yul\":2362:2474   */\n    tag_206:\n        /* \"#utility.yul\":2483:2537   */\n      tag_208\n        /* \"#utility.yul\":2530:2536   */\n      dup5\n        /* \"#utility.yul\":2525:2528   */\n      dup3\n        /* \"#utility.yul\":2520:2523   */\n      dup6\n        /* \"#utility.yul\":2483:2537   */\n      tag_138\n      jump\t// in\n    tag_208:\n        /* \"#utility.yul\":2202:2543   */\n      pop\n        /* \"#utility.yul\":2118:2543   */\n      swap4\n      swap3\n      pop\n      pop\n      pop\n      jump\t// out\n        /* \"#utility.yul\":2563:2903   */\n    tag_140:\n        /* \"#utility.yul\":2619:2624   */\n      0x00\n        /* \"#utility.yul\":2668:2671   */\n      dup3\n        /* \"#utility.yul\":2661:2665   */\n      0x1f\n        /* \"#utility.yul\":2653:2659   */\n      dup4\n        /* \"#utility.yul\":2649:2666   */\n      add\n        /* \"#utility.yul\":2645:2672   */\n      slt\n        /* \"#utility.yul\":2635:2757   */\n      tag_210\n      jumpi\n        /* \"#utility.yul\":2676:2755   */\n      tag_211\n      tag_131\n      jump\t// in\n    tag_211:\n        /* \"#utility.yul\":2635:2757   */\n    tag_210:\n        /* \"#utility.yul\":2793:2799   */\n      dup2\n        /* \"#utility.yul\":2780:2800   */\n      calldataload\n        /* \"#utility.yul\":2818:2897   */\n      tag_212\n        /* \"#utility.yul\":2893:2896   */\n      dup5\n        /* \"#utility.yul\":2885:2891   */\n      dup3\n        /* \"#utility.yul\":2878:2882   */\n      0x20\n        /* \"#utility.yul\":2870:2876   */\n      dup7\n        /* \"#utility.yul\":2866:2883   */\n      add\n        /* \"#utility.yul\":2818:2897   */\n      tag_139\n      jump\t// in\n    tag_212:\n        /* \"#utility.yul\":2809:2897   */\n      swap2\n      pop\n        /* \"#utility.yul\":2625:2903   */\n      pop\n        /* \"#utility.yul\":2563:2903   */\n      swap3\n      swap2\n      pop\n      pop\n      jump\t// out\n        /* \"#utility.yul\":2909:3708   */\n    tag_10:\n        /* \"#utility.yul\":2996:3002   */\n      0x00\n        /* \"#utility.yul\":3004:3010   */\n      dup1\n        /* \"#utility.yul\":3012:3018   */\n      0x00\n        /* \"#utility.yul\":3061:3063   */\n      0x60\n        /* \"#utility.yul\":3049:3058   */\n      dup5\n        /* \"#utility.yul\":3040:3047   */\n      dup7\n        /* \"#utility.yul\":3036:3059   */\n      sub\n        /* \"#utility.yul\":3032:3064   */\n      slt\n        /* \"#utility.yul\":3029:3148   */\n      iszero\n      tag_214\n      jumpi\n        /* \"#utility.yul\":3067:3146   */\n      tag_215\n      tag_126\n      jump\t// in\n    tag_215:\n        /* \"#utility.yul\":3029:3148   */\n    tag_214:\n        /* \"#utility.yul\":3187:3188   */\n      0x00\n        /* \"#utility.yul\":3212:3265   */\n      tag_216\n        /* \"#utility.yul\":3257:3264   */\n      dup7\n        /* \"#utility.yul\":3248:3254   */\n      dup3\n        /* \"#utility.yul\":3237:3246   */\n      dup8\n        /* \"#utility.yul\":3233:3255   */\n      add\n        /* \"#utility.yul\":3212:3265   */\n      tag_130\n      jump\t// in\n    tag_216:\n        /* \"#utility.yul\":3202:3265   */\n      swap4\n      pop\n        /* \"#utility.yul\":3158:3275   */\n      pop\n        /* \"#utility.yul\":3342:3344   */\n      0x20\n        /* \"#utility.yul\":3331:3340   */\n      dup5\n        /* \"#utility.yul\":3327:3345   */\n      add\n        /* \"#utility.yul\":3314:3346   */\n      calldataload\n        /* \"#utility.yul\":3373:3391   */\n      0xffffffffffffffff\n        /* \"#utility.yul\":3365:3371   */\n      dup2\n        /* \"#utility.yul\":3362:3392   */\n      gt\n        /* \"#utility.yul\":3359:3476   */\n      iszero\n      tag_217\n      jumpi\n        /* \"#utility.yul\":3395:3474   */\n      tag_218\n      tag_127\n      jump\t// in\n    tag_218:\n        /* \"#utility.yul\":3359:3476   */\n    tag_217:\n        /* \"#utility.yul\":3500:3563   */\n      tag_219\n        /* \"#utility.yul\":3555:3562   */\n      dup7\n        /* \"#utility.yul\":3546:3552   */\n      dup3\n        /* \"#utility.yul\":3535:3544   */\n      dup8\n        /* \"#utility.yul\":3531:3553   */\n      add\n        /* \"#utility.yul\":3500:3563   */\n      tag_140\n      jump\t// in\n    tag_219:\n        /* \"#utility.yul\":3490:3563   */\n      swap3\n      pop\n        /* \"#utility.yul\":3285:3573   */\n      pop\n        /* \"#utility.yul\":3612:3614   */\n      0x40\n        /* \"#utility.yul\":3638:3691   */\n      tag_220\n        /* \"#utility.yul\":3683:3690   */\n      dup7\n        /* \"#utility.yul\":3674:3680   */\n      dup3\n        /* \"#utility.yul\":3663:3672   */\n      dup8\n        /* \"#utility.yul\":3659:3681   */\n      add\n        /* \"#utility.yul\":3638:3691   */\n      tag_130\n      jump\t// in\n    tag_220:\n        /* \"#utility.yul\":3628:3691   */\n      swap2\n      pop\n        /* \"#utility.yul\":3583:3701   */\n      pop\n        /* \"#utility.yul\":2909:3708   */\n      swap3\n      pop\n      swap3\n      pop\n      swap3\n      jump\t// out\n        /* \"#utility.yul\":3714:4043   */\n    tag_14:\n        /* \"#utility.yul\":3773:3779   */\n      0x00\n        /* \"#utility.yul\":3822:3824   */\n      0x20\n        /* \"#utility.yul\":3810:3819   */\n      dup3\n        /* \"#utility.yul\":3801:3808   */\n      dup5\n        /* \"#utility.yul\":3797:3820   */\n      sub\n        /* \"#utility.yul\":3793:3825   */\n      slt\n        /* \"#utility.yul\":3790:3909   */\n      iszero\n      tag_222\n      jumpi\n        /* \"#utility.yul\":3828:3907   */\n      tag_223\n      tag_126\n      jump\t// in\n    tag_223:\n        /* \"#utility.yul\":3790:3909   */\n    tag_222:\n        /* \"#utility.yul\":3948:3949   */\n      0x00\n        /* \"#utility.yul\":3973:4026   */\n      tag_224\n        /* \"#utility.yul\":4018:4025   */\n      dup5\n        /* \"#utility.yul\":4009:4015   */\n      dup3\n        /* \"#utility.yul\":3998:4007   */\n      dup6\n        /* \"#utility.yul\":3994:4016   */\n      add\n        /* \"#utility.yul\":3973:4026   */\n      tag_130\n      jump\t// in\n    tag_224:\n        /* \"#utility.yul\":3963:4026   */\n      swap2\n      pop\n        /* \"#utility.yul\":3919:4036   */\n      pop\n        /* \"#utility.yul\":3714:4043   */\n      swap3\n      swap2\n      pop\n      pop\n      jump\t// out\n        /* \"#utility.yul\":4049:4157   */\n    tag_141:\n        /* \"#utility.yul\":4126:4150   */\n      tag_226\n        /* \"#utility.yul\":4144:4149   */\n      dup2\n        /* \"#utility.yul\":4126:4150   */\n      tag_128\n      jump\t// in\n    tag_226:\n        /* \"#utility.yul\":4121:4124   */\n      dup3\n        /* \"#utility.yul\":4114:4151   */\n      mstore\n        /* \"#utility.yul\":4049:4157   */\n      pop\n      pop\n      jump\t// out\n        /* \"#utility.yul\":4163:4262   */\n    tag_142:\n        /* \"#utility.yul\":4215:4221   */\n      0x00\n        /* \"#utility.yul\":4249:4254   */\n      dup2\n        /* \"#utility.yul\":4243:4255   */\n      mload\n        /* \"#utility.yul\":4233:4255   */\n      swap1\n      pop\n        /* \"#utility.yul\":4163:4262   */\n      swap2\n      swap1\n      pop\n      jump\t// out\n        /* \"#utility.yul\":4268:4427   */\n    tag_143:\n        /* \"#utility.yul\":4342:4353   */\n      0x00\n        /* \"#utility.yul\":4376:4382   */\n      dup3\n        /* \"#utility.yul\":4371:4374   */\n      dup3\n        /* \"#utility.yul\":4364:4383   */\n      mstore\n        /* \"#utility.yul\":4416:4420   */\n      0x20\n        /* \"#utility.yul\":4411:4414   */\n      dup3\n        /* \"#utility.yul\":4407:4421   */\n      add\n        /* \"#utility.yul\":4392:4421   */\n      swap1\n      pop\n        /* \"#utility.yul\":4268:4427   */\n      swap3\n      swap2\n      pop\n      pop\n      jump\t// out\n        /* \"#utility.yul\":4433:4679   */\n    tag_144:\n        /* \"#utility.yul\":4514:4515   */\n      0x00\n        /* \"#utility.yul\":4524:4637   */\n    tag_230:\n        /* \"#utility.yul\":4538:4544   */\n      dup4\n        /* \"#utility.yul\":4535:4536   */\n      dup2\n        /* \"#utility.yul\":4532:4545   */\n      lt\n        /* \"#utility.yul\":4524:4637   */\n      iszero\n      tag_232\n      jumpi\n        /* \"#utility.yul\":4623:4624   */\n      dup1\n        /* \"#utility.yul\":4618:4621   */\n      dup3\n        /* \"#utility.yul\":4614:4625   */\n      add\n        /* \"#utility.yul\":4608:4626   */\n      mload\n        /* \"#utility.yul\":4604:4605   */\n      dup2\n        /* \"#utility.yul\":4599:4602   */\n      dup5\n        /* \"#utility.yul\":4595:4606   */\n      add\n        /* \"#utility.yul\":4588:4627   */\n      mstore\n        /* \"#utility.yul\":4560:4562   */\n      0x20\n        /* \"#utility.yul\":4557:4558   */\n      dup2\n        /* \"#utility.yul\":4553:4563   */\n      add\n        /* \"#utility.yul\":4548:4563   */\n      swap1\n      pop\n        /* \"#utility.yul\":4524:4637   */\n      jump(tag_230)\n    tag_232:\n        /* \"#utility.yul\":4671:4672   */\n      0x00\n        /* \"#utility.yul\":4662:4668   */\n      dup5\n        /* \"#utility.yul\":4657:4660   */\n      dup5\n        /* \"#utility.yul\":4653:4669   */\n      add\n        /* \"#utility.yul\":4646:4673   */\n      mstore\n        /* \"#utility.yul\":4495:4679   */\n      pop\n        /* \"#utility.yul\":4433:4679   */\n      pop\n      pop\n      pop\n      jump\t// out\n        /* \"#utility.yul\":4685:5042   */\n    tag_145:\n        /* \"#utility.yul\":4763:4766   */\n      0x00\n        /* \"#utility.yul\":4791:4830   */\n      tag_234\n        /* \"#utility.yul\":4824:4829   */\n      dup3\n        /* \"#utility.yul\":4791:4830   */\n      tag_142\n      jump\t// in\n    tag_234:\n        /* \"#utility.yul\":4846:4907   */\n      tag_235\n        /* \"#utility.yul\":4900:4906   */\n      dup2\n        /* \"#utility.yul\":4895:4898   */\n      dup6\n        /* \"#utility.yul\":4846:4907   */\n      tag_143\n      jump\t// in\n    tag_235:\n        /* \"#utility.yul\":4839:4907   */\n      swap4\n      pop\n        /* \"#utility.yul\":4916:4981   */\n      tag_236\n        /* \"#utility.yul\":4974:4980   */\n      dup2\n        /* \"#utility.yul\":4969:4972   */\n      dup6\n        /* \"#utility.yul\":4962:4966   */\n      0x20\n        /* \"#utility.yul\":4955:4960   */\n      dup7\n        /* \"#utility.yul\":4951:4967   */\n      add\n        /* \"#utility.yul\":4916:4981   */\n      tag_144\n      jump\t// in\n    tag_236:\n        /* \"#utility.yul\":5006:5035   */\n      tag_237\n        /* \"#utility.yul\":5028:5034   */\n      dup2\n        /* \"#utility.yul\":5006:5035   */\n      tag_133\n      jump\t// in\n    tag_237:\n        /* \"#utility.yul\":5001:5004   */\n      dup5\n        /* \"#utility.yul\":4997:5036   */\n      add\n        /* \"#utility.yul\":4990:5036   */\n      swap2\n      pop\n        /* \"#utility.yul\":4767:5042   */\n      pop\n        /* \"#utility.yul\":4685:5042   */\n      swap3\n      swap2\n      pop\n      pop\n      jump\t// out\n        /* \"#utility.yul\":5120:5895   */\n    tag_146:\n        /* \"#utility.yul\":5237:5240   */\n      0x00\n        /* \"#utility.yul\":5273:5277   */\n      0x60\n        /* \"#utility.yul\":5268:5271   */\n      dup4\n        /* \"#utility.yul\":5264:5278   */\n      add\n        /* \"#utility.yul\":5358:5362   */\n      0x00\n        /* \"#utility.yul\":5351:5356   */\n      dup4\n        /* \"#utility.yul\":5347:5363   */\n      add\n        /* \"#utility.yul\":5341:5364   */\n      mload\n        /* \"#utility.yul\":5377:5440   */\n      tag_239\n        /* \"#utility.yul\":5434:5438   */\n      0x00\n        /* \"#utility.yul\":5429:5432   */\n      dup7\n        /* \"#utility.yul\":5425:5439   */\n      add\n        /* \"#utility.yul\":5411:5423   */\n      dup3\n        /* \"#utility.yul\":5377:5440   */\n      tag_141\n      jump\t// in\n    tag_239:\n        /* \"#utility.yul\":5288:5450   */\n      pop\n        /* \"#utility.yul\":5532:5536   */\n      0x20\n        /* \"#utility.yul\":5525:5530   */\n      dup4\n        /* \"#utility.yul\":5521:5537   */\n      add\n        /* \"#utility.yul\":5515:5538   */\n      mload\n        /* \"#utility.yul\":5585:5588   */\n      dup5\n        /* \"#utility.yul\":5579:5583   */\n      dup3\n        /* \"#utility.yul\":5575:5589   */\n      sub\n        /* \"#utility.yul\":5568:5572   */\n      0x20\n        /* \"#utility.yul\":5563:5566   */\n      dup7\n        /* \"#utility.yul\":5559:5573   */\n      add\n        /* \"#utility.yul\":5552:5590   */\n      mstore\n        /* \"#utility.yul\":5611:5684   */\n      tag_240\n        /* \"#utility.yul\":5679:5683   */\n      dup3\n        /* \"#utility.yul\":5665:5677   */\n      dup3\n        /* \"#utility.yul\":5611:5684   */\n      tag_145\n      jump\t// in\n    tag_240:\n        /* \"#utility.yul\":5603:5684   */\n      swap2\n      pop\n        /* \"#utility.yul\":5460:5695   */\n      pop\n        /* \"#utility.yul\":5776:5780   */\n      0x40\n        /* \"#utility.yul\":5769:5774   */\n      dup4\n        /* \"#utility.yul\":5765:5781   */\n      add\n        /* \"#utility.yul\":5759:5782   */\n      mload\n        /* \"#utility.yul\":5795:5858   */\n      tag_241\n        /* \"#utility.yul\":5852:5856   */\n      0x40\n        /* \"#utility.yul\":5847:5850   */\n      dup7\n        /* \"#utility.yul\":5843:5857   */\n      add\n        /* \"#utility.yul\":5829:5841   */\n      dup3\n        /* \"#utility.yul\":5795:5858   */\n      tag_141\n      jump\t// in\n    tag_241:\n        /* \"#utility.yul\":5705:5868   */\n      pop\n        /* \"#utility.yul\":5885:5889   */\n      dup1\n        /* \"#utility.yul\":5878:5889   */\n      swap2\n      pop\n        /* \"#utility.yul\":5242:5895   */\n      pop\n        /* \"#utility.yul\":5120:5895   */\n      swap3\n      swap2\n      pop\n      pop\n      jump\t// out\n        /* \"#utility.yul\":5901:6270   */\n    tag_17:\n        /* \"#utility.yul\":6042:6046   */\n      0x00\n        /* \"#utility.yul\":6080:6082   */\n      0x20\n        /* \"#utility.yul\":6069:6078   */\n      dup3\n        /* \"#utility.yul\":6065:6083   */\n      add\n        /* \"#utility.yul\":6057:6083   */\n      swap1\n      pop\n        /* \"#utility.yul\":6129:6138   */\n      dup2\n        /* \"#utility.yul\":6123:6127   */\n      dup2\n        /* \"#utility.yul\":6119:6139   */\n      sub\n        /* \"#utility.yul\":6115:6116   */\n      0x00\n        /* \"#utility.yul\":6104:6113   */\n      dup4\n        /* \"#utility.yul\":6100:6117   */\n      add\n        /* \"#utility.yul\":6093:6140   */\n      mstore\n        /* \"#utility.yul\":6157:6263   */\n      tag_243\n        /* \"#utility.yul\":6258:6262   */\n      dup2\n        /* \"#utility.yul\":6249:6255   */\n      dup5\n        /* \"#utility.yul\":6157:6263   */\n      tag_146\n      jump\t// in\n    tag_243:\n        /* \"#utility.yul\":6149:6263   */\n      swap1\n      pop\n        /* \"#utility.yul\":5901:6270   */\n      swap3\n      swap2\n      pop\n      pop\n      jump\t// out\n        /* \"#utility.yul\":6276:6414   */\n    tag_147:\n        /* \"#utility.yul\":6367:6373   */\n      0x00\n        /* \"#utility.yul\":6401:6406   */\n      dup2\n        /* \"#utility.yul\":6395:6407   */\n      mload\n        /* \"#utility.yul\":6385:6407   */\n      swap1\n      pop\n        /* \"#utility.yul\":6276:6414   */\n      swap2\n      swap1\n      pop\n      jump\t// out\n        /* \"#utility.yul\":6420:6628   */\n    tag_148:\n        /* \"#utility.yul\":6543:6554   */\n      0x00\n        /* \"#utility.yul\":6577:6583   */\n      dup3\n        /* \"#utility.yul\":6572:6575   */\n      dup3\n        /* \"#utility.yul\":6565:6584   */\n      mstore\n        /* \"#utility.yul\":6617:6621   */\n      0x20\n        /* \"#utility.yul\":6612:6615   */\n      dup3\n        /* \"#utility.yul\":6608:6622   */\n      add\n        /* \"#utility.yul\":6593:6622   */\n      swap1\n      pop\n        /* \"#utility.yul\":6420:6628   */\n      swap3\n      swap2\n      pop\n      pop\n      jump\t// out\n        /* \"#utility.yul\":6634:6790   */\n    tag_149:\n        /* \"#utility.yul\":6725:6729   */\n      0x00\n        /* \"#utility.yul\":6748:6751   */\n      dup2\n        /* \"#utility.yul\":6740:6751   */\n      swap1\n      pop\n        /* \"#utility.yul\":6778:6782   */\n      0x20\n        /* \"#utility.yul\":6773:6776   */\n      dup3\n        /* \"#utility.yul\":6769:6783   */\n      add\n        /* \"#utility.yul\":6761:6783   */\n      swap1\n      pop\n        /* \"#utility.yul\":6634:6790   */\n      swap2\n      swap1\n      pop\n      jump\t// out\n        /* \"#utility.yul\":6868:7633   */\n    tag_150:\n        /* \"#utility.yul\":6975:6978   */\n      0x00\n        /* \"#utility.yul\":7011:7015   */\n      0x60\n        /* \"#utility.yul\":7006:7009   */\n      dup4\n        /* \"#utility.yul\":7002:7016   */\n      add\n        /* \"#utility.yul\":7096:7100   */\n      0x00\n        /* \"#utility.yul\":7089:7094   */\n      dup4\n        /* \"#utility.yul\":7085:7101   */\n      add\n        /* \"#utility.yul\":7079:7102   */\n      mload\n        /* \"#utility.yul\":7115:7178   */\n      tag_248\n        /* \"#utility.yul\":7172:7176   */\n      0x00\n        /* \"#utility.yul\":7167:7170   */\n      dup7\n        /* \"#utility.yul\":7163:7177   */\n      add\n        /* \"#utility.yul\":7149:7161   */\n      dup3\n        /* \"#utility.yul\":7115:7178   */\n      tag_141\n      jump\t// in\n    tag_248:\n        /* \"#utility.yul\":7026:7188   */\n      pop\n        /* \"#utility.yul\":7270:7274   */\n      0x20\n        /* \"#utility.yul\":7263:7268   */\n      dup4\n        /* \"#utility.yul\":7259:7275   */\n      add\n        /* \"#utility.yul\":7253:7276   */\n      mload\n        /* \"#utility.yul\":7323:7326   */\n      dup5\n        /* \"#utility.yul\":7317:7321   */\n      dup3\n        /* \"#utility.yul\":7313:7327   */\n      sub\n        /* \"#utility.yul\":7306:7310   */\n      0x20\n        /* \"#utility.yul\":7301:7304   */\n      dup7\n        /* \"#utility.yul\":7297:7311   */\n      add\n        /* \"#utility.yul\":7290:7328   */\n      mstore\n        /* \"#utility.yul\":7349:7422   */\n      tag_249\n        /* \"#utility.yul\":7417:7421   */\n      dup3\n        /* \"#utility.yul\":7403:7415   */\n      dup3\n        /* \"#utility.yul\":7349:7422   */\n      tag_145\n      jump\t// in\n    tag_249:\n        /* \"#utility.yul\":7341:7422   */\n      swap2\n      pop\n        /* \"#utility.yul\":7198:7433   */\n      pop\n        /* \"#utility.yul\":7514:7518   */\n      0x40\n        /* \"#utility.yul\":7507:7512   */\n      dup4\n        /* \"#utility.yul\":7503:7519   */\n      add\n        /* \"#utility.yul\":7497:7520   */\n      mload\n        /* \"#utility.yul\":7533:7596   */\n      tag_250\n        /* \"#utility.yul\":7590:7594   */\n      0x40\n        /* \"#utility.yul\":7585:7588   */\n      dup7\n        /* \"#utility.yul\":7581:7595   */\n      add\n        /* \"#utility.yul\":7567:7579   */\n      dup3\n        /* \"#utility.yul\":7533:7596   */\n      tag_141\n      jump\t// in\n    tag_250:\n        /* \"#utility.yul\":7443:7606   */\n      pop\n        /* \"#utility.yul\":7623:7627   */\n      dup1\n        /* \"#utility.yul\":7616:7627   */\n      swap2\n      pop\n        /* \"#utility.yul\":6980:7633   */\n      pop\n        /* \"#utility.yul\":6868:7633   */\n      swap3\n      swap2\n      pop\n      pop\n      jump\t// out\n        /* \"#utility.yul\":7639:7891   */\n    tag_151:\n        /* \"#utility.yul\":7756:7766   */\n      0x00\n        /* \"#utility.yul\":7791:7885   */\n      tag_252\n        /* \"#utility.yul\":7881:7884   */\n      dup4\n        /* \"#utility.yul\":7873:7879   */\n      dup4\n        /* \"#utility.yul\":7791:7885   */\n      tag_150\n      jump\t// in\n    tag_252:\n        /* \"#utility.yul\":7777:7885   */\n      swap1\n      pop\n        /* \"#utility.yul\":7639:7891   */\n      swap3\n      swap2\n      pop\n      pop\n      jump\t// out\n        /* \"#utility.yul\":7897:8034   */\n    tag_152:\n        /* \"#utility.yul\":7991:7995   */\n      0x00\n        /* \"#utility.yul\":8023:8027   */\n      0x20\n        /* \"#utility.yul\":8018:8021   */\n      dup3\n        /* \"#utility.yul\":8014:8028   */\n      add\n        /* \"#utility.yul\":8006:8028   */\n      swap1\n      pop\n        /* \"#utility.yul\":7897:8034   */\n      swap2\n      swap1\n      pop\n      jump\t// out\n        /* \"#utility.yul\":8116:9219   */\n    tag_153:\n        /* \"#utility.yul\":8283:8286   */\n      0x00\n        /* \"#utility.yul\":8312:8390   */\n      tag_255\n        /* \"#utility.yul\":8384:8389   */\n      dup3\n        /* \"#utility.yul\":8312:8390   */\n      tag_147\n      jump\t// in\n    tag_255:\n        /* \"#utility.yul\":8406:8516   */\n      tag_256\n        /* \"#utility.yul\":8509:8515   */\n      dup2\n        /* \"#utility.yul\":8504:8507   */\n      dup6\n        /* \"#utility.yul\":8406:8516   */\n      tag_148\n      jump\t// in\n    tag_256:\n        /* \"#utility.yul\":8399:8516   */\n      swap4\n      pop\n        /* \"#utility.yul\":8542:8545   */\n      dup4\n        /* \"#utility.yul\":8587:8591   */\n      0x20\n        /* \"#utility.yul\":8579:8585   */\n      dup3\n        /* \"#utility.yul\":8575:8592   */\n      mul\n        /* \"#utility.yul\":8570:8573   */\n      dup6\n        /* \"#utility.yul\":8566:8593   */\n      add\n        /* \"#utility.yul\":8617:8697   */\n      tag_257\n        /* \"#utility.yul\":8691:8696   */\n      dup6\n        /* \"#utility.yul\":8617:8697   */\n      tag_149\n      jump\t// in\n    tag_257:\n        /* \"#utility.yul\":8720:8727   */\n      dup1\n        /* \"#utility.yul\":8751:8752   */\n      0x00\n        /* \"#utility.yul\":8736:9174   */\n    tag_258:\n        /* \"#utility.yul\":8761:8767   */\n      dup6\n        /* \"#utility.yul\":8758:8759   */\n      dup2\n        /* \"#utility.yul\":8755:8768   */\n      lt\n        /* \"#utility.yul\":8736:9174   */\n      iszero\n      tag_260\n      jumpi\n        /* \"#utility.yul\":8832:8841   */\n      dup5\n        /* \"#utility.yul\":8826:8830   */\n      dup5\n        /* \"#utility.yul\":8822:8842   */\n      sub\n        /* \"#utility.yul\":8817:8820   */\n      dup10\n        /* \"#utility.yul\":8810:8843   */\n      mstore\n        /* \"#utility.yul\":8883:8889   */\n      dup2\n        /* \"#utility.yul\":8877:8890   */\n      mload\n        /* \"#utility.yul\":8911:9023   */\n      tag_261\n        /* \"#utility.yul\":9018:9022   */\n      dup6\n        /* \"#utility.yul\":9003:9016   */\n      dup3\n        /* \"#utility.yul\":8911:9023   */\n      tag_151\n      jump\t// in\n    tag_261:\n        /* \"#utility.yul\":8903:9023   */\n      swap5\n      pop\n        /* \"#utility.yul\":9046:9130   */\n      tag_262\n        /* \"#utility.yul\":9123:9129   */\n      dup4\n        /* \"#utility.yul\":9046:9130   */\n      tag_152\n      jump\t// in\n    tag_262:\n        /* \"#utility.yul\":9036:9130   */\n      swap3\n      pop\n        /* \"#utility.yul\":9159:9163   */\n      0x20\n        /* \"#utility.yul\":9154:9157   */\n      dup11\n        /* \"#utility.yul\":9150:9164   */\n      add\n        /* \"#utility.yul\":9143:9164   */\n      swap10\n      pop\n        /* \"#utility.yul\":8796:9174   */\n      pop\n        /* \"#utility.yul\":8783:8784   */\n      0x01\n        /* \"#utility.yul\":8780:8781   */\n      dup2\n        /* \"#utility.yul\":8776:8785   */\n      add\n        /* \"#utility.yul\":8771:8785   */\n      swap1\n      pop\n        /* \"#utility.yul\":8736:9174   */\n      jump(tag_258)\n    tag_260:\n        /* \"#utility.yul\":8740:8754   */\n      pop\n        /* \"#utility.yul\":9190:9194   */\n      dup3\n        /* \"#utility.yul\":9183:9194   */\n      swap8\n      pop\n        /* \"#utility.yul\":9210:9213   */\n      dup8\n        /* \"#utility.yul\":9203:9213   */\n      swap6\n      pop\n        /* \"#utility.yul\":8288:9219   */\n      pop\n      pop\n      pop\n      pop\n      pop\n        /* \"#utility.yul\":8116:9219   */\n      swap3\n      swap2\n      pop\n      pop\n      jump\t// out\n        /* \"#utility.yul\":9225:9694   */\n    tag_27:\n        /* \"#utility.yul\":9416:9420   */\n      0x00\n        /* \"#utility.yul\":9454:9456   */\n      0x20\n        /* \"#utility.yul\":9443:9452   */\n      dup3\n        /* \"#utility.yul\":9439:9457   */\n      add\n        /* \"#utility.yul\":9431:9457   */\n      swap1\n      pop\n        /* \"#utility.yul\":9503:9512   */\n      dup2\n        /* \"#utility.yul\":9497:9501   */\n      dup2\n        /* \"#utility.yul\":9493:9513   */\n      sub\n        /* \"#utility.yul\":9489:9490   */\n      0x00\n        /* \"#utility.yul\":9478:9487   */\n      dup4\n        /* \"#utility.yul\":9474:9491   */\n      add\n        /* \"#utility.yul\":9467:9514   */\n      mstore\n        /* \"#utility.yul\":9531:9687   */\n      tag_264\n        /* \"#utility.yul\":9682:9686   */\n      dup2\n        /* \"#utility.yul\":9673:9679   */\n      dup5\n        /* \"#utility.yul\":9531:9687   */\n      tag_153\n      jump\t// in\n    tag_264:\n        /* \"#utility.yul\":9523:9687   */\n      swap1\n      pop\n        /* \"#utility.yul\":9225:9694   */\n      swap3\n      swap2\n      pop\n      pop\n      jump\t// out\n        /* \"#utility.yul\":9700:9880   */\n    tag_34:\n        /* \"#utility.yul\":9748:9825   */\n      0x4e487b7100000000000000000000000000000000000000000000000000000000\n        /* \"#utility.yul\":9745:9746   */\n      0x00\n        /* \"#utility.yul\":9738:9826   */\n      mstore\n        /* \"#utility.yul\":9845:9849   */\n      0x32\n        /* \"#utility.yul\":9842:9843   */\n      0x04\n        /* \"#utility.yul\":9835:9850   */\n      mstore\n        /* \"#utility.yul\":9869:9873   */\n      0x24\n        /* \"#utility.yul\":9866:9867   */\n      0x00\n        /* \"#utility.yul\":9859:9874   */\n      revert\n        /* \"#utility.yul\":9886:10055   */\n    tag_154:\n        /* \"#utility.yul\":9970:9981   */\n      0x00\n        /* \"#utility.yul\":10004:10010   */\n      dup3\n        /* \"#utility.yul\":9999:10002   */\n      dup3\n        /* \"#utility.yul\":9992:10011   */\n      mstore\n        /* \"#utility.yul\":10044:10048   */\n      0x20\n        /* \"#utility.yul\":10039:10042   */\n      dup3\n        /* \"#utility.yul\":10035:10049   */\n      add\n        /* \"#utility.yul\":10020:10049   */\n      swap1\n      pop\n        /* \"#utility.yul\":9886:10055   */\n      swap3\n      swap2\n      pop\n      pop\n      jump\t// out\n        /* \"#utility.yul\":10061:10228   */\n    tag_155:\n        /* \"#utility.yul\":10201:10220   */\n      0x494420616c726561647920657869737473000000000000000000000000000000\n        /* \"#utility.yul\":10197:10198   */\n      0x00\n        /* \"#utility.yul\":10189:10195   */\n      dup3\n        /* \"#utility.yul\":10185:10199   */\n      add\n        /* \"#utility.yul\":10178:10221   */\n      mstore\n        /* \"#utility.yul\":10061:10228   */\n      pop\n      jump\t// out\n        /* \"#utility.yul\":10234:10600   */\n    tag_156:\n        /* \"#utility.yul\":10376:10379   */\n      0x00\n        /* \"#utility.yul\":10397:10464   */\n      tag_269\n        /* \"#utility.yul\":10461:10463   */\n      0x11\n        /* \"#utility.yul\":10456:10459   */\n      dup4\n        /* \"#utility.yul\":10397:10464   */\n      tag_154\n      jump\t// in\n    tag_269:\n        /* \"#utility.yul\":10390:10464   */\n      swap2\n      pop\n        /* \"#utility.yul\":10473:10566   */\n      tag_270\n        /* \"#utility.yul\":10562:10565   */\n      dup3\n        /* \"#utility.yul\":10473:10566   */\n      tag_155\n      jump\t// in\n    tag_270:\n        /* \"#utility.yul\":10591:10593   */\n      0x20\n        /* \"#utility.yul\":10586:10589   */\n      dup3\n        /* \"#utility.yul\":10582:10594   */\n      add\n        /* \"#utility.yul\":10575:10594   */\n      swap1\n      pop\n        /* \"#utility.yul\":10234:10600   */\n      swap2\n      swap1\n      pop\n      jump\t// out\n        /* \"#utility.yul\":10606:11025   */\n    tag_38:\n        /* \"#utility.yul\":10772:10776   */\n      0x00\n        /* \"#utility.yul\":10810:10812   */\n      0x20\n        /* \"#utility.yul\":10799:10808   */\n      dup3\n        /* \"#utility.yul\":10795:10813   */\n      add\n        /* \"#utility.yul\":10787:10813   */\n      swap1\n      pop\n        /* \"#utility.yul\":10859:10868   */\n      dup2\n        /* \"#utility.yul\":10853:10857   */\n      dup2\n        /* \"#utility.yul\":10849:10869   */\n      sub\n        /* \"#utility.yul\":10845:10846   */\n      0x00\n        /* \"#utility.yul\":10834:10843   */\n      dup4\n        /* \"#utility.yul\":10830:10847   */\n      add\n        /* \"#utility.yul\":10823:10870   */\n      mstore\n        /* \"#utility.yul\":10887:11018   */\n      tag_272\n        /* \"#utility.yul\":11013:11017   */\n      dup2\n        /* \"#utility.yul\":10887:11018   */\n      tag_156\n      jump\t// in\n    tag_272:\n        /* \"#utility.yul\":10879:11018   */\n      swap1\n      pop\n        /* \"#utility.yul\":10606:11025   */\n      swap2\n      swap1\n      pop\n      jump\t// out\n        /* \"#utility.yul\":11031:11211   */\n    tag_157:\n        /* \"#utility.yul\":11079:11156   */\n      0x4e487b7100000000000000000000000000000000000000000000000000000000\n        /* \"#utility.yul\":11076:11077   */\n      0x00\n        /* \"#utility.yul\":11069:11157   */\n      mstore\n        /* \"#utility.yul\":11176:11180   */\n      0x11\n        /* \"#utility.yul\":11173:11174   */\n      0x04\n        /* \"#utility.yul\":11166:11181   */\n      mstore\n        /* \"#utility.yul\":11200:11204   */\n      0x24\n        /* \"#utility.yul\":11197:11198   */\n      0x00\n        /* \"#utility.yul\":11190:11205   */\n      revert\n        /* \"#utility.yul\":11217:11450   */\n    tag_40:\n        /* \"#utility.yul\":11256:11259   */\n      0x00\n        /* \"#utility.yul\":11279:11303   */\n      tag_275\n        /* \"#utility.yul\":11297:11302   */\n      dup3\n        /* \"#utility.yul\":11279:11303   */\n      tag_128\n      jump\t// in\n    tag_275:\n        /* \"#utility.yul\":11270:11303   */\n      swap2\n      pop\n        /* \"#utility.yul\":11325:11391   */\n      0xffffffffffffffffffffffffffffffffffffffffffffffffffffffffffffffff\n        /* \"#utility.yul\":11318:11323   */\n      dup3\n        /* \"#utility.yul\":11315:11392   */\n      sub\n        /* \"#utility.yul\":11312:11415   */\n      tag_276\n      jumpi\n        /* \"#utility.yul\":11395:11413   */\n      tag_277\n      tag_157\n      jump\t// in\n    tag_277:\n        /* \"#utility.yul\":11312:11415   */\n    tag_276:\n        /* \"#utility.yul\":11442:11443   */\n      0x01\n        /* \"#utility.yul\":11435:11440   */\n      dup3\n        /* \"#utility.yul\":11431:11444   */\n      add\n        /* \"#utility.yul\":11424:11444   */\n      swap1\n      pop\n        /* \"#utility.yul\":11217:11450   */\n      swap2\n      swap1\n      pop\n      jump\t// out\n        /* \"#utility.yul\":11456:11636   */\n    tag_158:\n        /* \"#utility.yul\":11504:11581   */\n      0x4e487b7100000000000000000000000000000000000000000000000000000000\n        /* \"#utility.yul\":11501:11502   */\n      0x00\n        /* \"#utility.yul\":11494:11582   */\n      mstore\n        /* \"#utility.yul\":11601:11605   */\n      0x22\n        /* \"#utility.yul\":11598:11599   */\n      0x04\n        /* \"#utility.yul\":11591:11606   */\n      mstore\n        /* \"#utility.yul\":11625:11629   */\n      0x24\n        /* \"#utility.yul\":11622:11623   */\n      0x00\n        /* \"#utility.yul\":11615:11630   */\n      revert\n        /* \"#utility.yul\":11642:11962   */\n    tag_58:\n        /* \"#utility.yul\":11686:11692   */\n      0x00\n        /* \"#utility.yul\":11723:11724   */\n      0x02\n        /* \"#utility.yul\":11717:11721   */\n      dup3\n        /* \"#utility.yul\":11713:11725   */\n      div\n        /* \"#utility.yul\":11703:11725   */\n      swap1\n      pop\n        /* \"#utility.yul\":11770:11771   */\n      0x01\n        /* \"#utility.yul\":11764:11768   */\n      dup3\n        /* \"#utility.yul\":11760:11772   */\n      and\n        /* \"#utility.yul\":11791:11809   */\n      dup1\n        /* \"#utility.yul\":11781:11862   */\n      tag_280\n      jumpi\n        /* \"#utility.yul\":11847:11851   */\n      0x7f\n        /* \"#utility.yul\":11839:11845   */\n      dup3\n        /* \"#utility.yul\":11835:11852   */\n      and\n        /* \"#utility.yul\":11825:11852   */\n      swap2\n      pop\n        /* \"#utility.yul\":11781:11862   */\n    tag_280:\n        /* \"#utility.yul\":11909:11911   */\n      0x20\n        /* \"#utility.yul\":11901:11907   */\n      dup3\n        /* \"#utility.yul\":11898:11912   */\n      lt\n        /* \"#utility.yul\":11878:11896   */\n      dup2\n        /* \"#utility.yul\":11875:11913   */\n      sub\n        /* \"#utility.yul\":11872:11956   */\n      tag_281\n      jumpi\n        /* \"#utility.yul\":11928:11946   */\n      tag_282\n      tag_158\n      jump\t// in\n    tag_282:\n        /* \"#utility.yul\":11872:11956   */\n    tag_281:\n        /* \"#utility.yul\":11693:11962   */\n      pop\n        /* \"#utility.yul\":11642:11962   */\n      swap2\n      swap1\n      pop\n      jump\t// out\n        /* \"#utility.yul\":11968:12109   */\n    tag_159:\n        /* \"#utility.yul\":12017:12021   */\n      0x00\n        /* \"#utility.yul\":12040:12043   */\n      dup2\n        /* \"#utility.yul\":12032:12043   */\n      swap1\n      pop\n        /* \"#utility.yul\":12063:12066   */\n      dup2\n        /* \"#utility.yul\":12060:12061   */\n      0x00\n        /* \"#utility.yul\":12053:12067   */\n      mstore\n        /* \"#utility.yul\":12097:12101   */\n      0x20\n        /* \"#utility.yul\":12094:12095   */\n      0x00\n        /* \"#utility.yul\":12084:12102   */\n      keccak256\n        /* \"#utility.yul\":12076:12102   */\n      swap1\n      pop\n        /* \"#utility.yul\":11968:12109   */\n      swap2\n      swap1\n      pop\n      jump\t// out\n        /* \"#utility.yul\":12115:12208   */\n    tag_160:\n        /* \"#utility.yul\":12152:12158   */\n      0x00\n        /* \"#utility.yul\":12199:12201   */\n      0x20\n        /* \"#utility.yul\":12194:12196   */\n      0x1f\n        /* \"#utility.yul\":12187:12192   */\n      dup4\n        /* \"#utility.yul\":12183:12197   */\n      add\n        /* \"#utility.yul\":12179:12202   */\n      div\n        /* \"#utility.yul\":12169:12202   */\n      swap1\n      pop\n        /* \"#utility.yul\":12115:12208   */\n      swap2\n      swap1\n      pop\n      jump\t// out\n        /* \"#utility.yul\":12214:12321   */\n    tag_161:\n        /* \"#utility.yul\":12258:12266   */\n      0x00\n        /* \"#utility.yul\":12308:12313   */\n      dup3\n        /* \"#utility.yul\":12302:12306   */\n      dup3\n        /* \"#utility.yul\":12298:12314   */\n      shl\n        /* \"#utility.yul\":12277:12314   */\n      swap1\n      pop\n        /* \"#utility.yul\":12214:12321   */\n      swap3\n      swap2\n      pop\n      pop\n      jump\t// out\n        /* \"#utility.yul\":12327:12720   */\n    tag_162:\n        /* \"#utility.yul\":12396:12402   */\n      0x00\n        /* \"#utility.yul\":12446:12447   */\n      0x08\n        /* \"#utility.yul\":12434:12444   */\n      dup4\n        /* \"#utility.yul\":12430:12448   */\n      mul\n        /* \"#utility.yul\":12469:12566   */\n      tag_287\n        /* \"#utility.yul\":12499:12565   */\n      0xffffffffffffffffffffffffffffffffffffffffffffffffffffffffffffffff\n        /* \"#utility.yul\":12488:12497   */\n      dup3\n        /* \"#utility.yul\":12469:12566   */\n      tag_161\n      jump\t// in\n    tag_287:\n        /* \"#utility.yul\":12587:12626   */\n      tag_288\n        /* \"#utility.yul\":12617:12625   */\n      dup7\n        /* \"#utility.yul\":12606:12615   */\n      dup4\n        /* \"#utility.yul\":12587:12626   */\n      tag_161\n      jump\t// in\n    tag_288:\n        /* \"#utility.yul\":12575:12626   */\n      swap6\n      pop\n        /* \"#utility.yul\":12659:12663   */\n      dup1\n        /* \"#utility.yul\":12655:12664   */\n      not\n        /* \"#utility.yul\":12648:12653   */\n      dup5\n        /* \"#utility.yul\":12644:12665   */\n      and\n        /* \"#utility.yul\":12635:12665   */\n      swap4\n      pop\n        /* \"#utility.yul\":12708:12712   */\n      dup1\n        /* \"#utility.yul\":12698:12706   */\n      dup7\n        /* \"#utility.yul\":12694:12713   */\n      and\n        /* \"#utility.yul\":12687:12692   */\n      dup5\n        /* \"#utility.yul\":12684:12714   */\n      or\n        /* \"#utility.yul\":12674:12714   */\n      swap3\n      pop\n        /* \"#utility.yul\":12403:12720   */\n      pop\n      pop\n        /* \"#utility.yul\":12327:12720   */\n      swap4\n      swap3\n      pop\n      pop\n      pop\n      jump\t// out\n        /* \"#utility.yul\":12726:12786   */\n    tag_163:\n        /* \"#utility.yul\":12754:12757   */\n      0x00\n        /* \"#utility.yul\":12775:12780   */\n      dup2\n        /* \"#utility.yul\":12768:12780   */\n      swap1\n      pop\n        /* \"#utility.yul\":12726:12786   */\n      swap2\n      swap1\n      pop\n      jump\t// out\n        /* \"#utility.yul\":12792:12934   */\n    tag_164:\n        /* \"#utility.yul\":12842:12851   */\n      0x00\n        /* \"#utility.yul\":12875:12928   */\n      tag_291\n        /* \"#utility.yul\":12893:12927   */\n      tag_292\n        /* \"#utility.yul\":12902:12926   */\n      tag_293\n        /* \"#utility.yul\":12920:12925   */\n      dup5\n        /* \"#utility.yul\":12902:12926   */\n      tag_128\n      jump\t// in\n    tag_293:\n        /* \"#utility.yul\":12893:12927   */\n      tag_163\n      jump\t// in\n    tag_292:\n        /* \"#utility.yul\":12875:12928   */\n      tag_128\n      jump\t// in\n    tag_291:\n        /* \"#utility.yul\":12862:12928   */\n      swap1\n      pop\n        /* \"#utility.yul\":12792:12934   */\n      swap2\n      swap1\n      pop\n      jump\t// out\n        /* \"#utility.yul\":12940:13015   */\n    tag_165:\n        /* \"#utility.yul\":12983:12986   */\n      0x00\n        /* \"#utility.yul\":13004:13009   */\n      dup2\n        /* \"#utility.yul\":12997:13009   */\n      swap1\n      pop\n        /* \"#utility.yul\":12940:13015   */\n      swap2\n      swap1\n      pop\n      jump\t// out\n        /* \"#utility.yul\":13021:13290   */\n    tag_166:\n        /* \"#utility.yul\":13131:13170   */\n      tag_296\n        /* \"#utility.yul\":13162:13169   */\n      dup4\n        /* \"#utility.yul\":13131:13170   */\n      tag_164\n      jump\t// in\n    tag_296:\n        /* \"#utility.yul\":13192:13283   */\n      tag_297\n        /* \"#utility.yul\":13241:13282   */\n      tag_298\n        /* \"#utility.yul\":13265:13281   */\n      dup3\n        /* \"#utility.yul\":13241:13282   */\n      tag_165\n      jump\t// in\n    tag_298:\n        /* \"#utility.yul\":13233:13239   */\n      dup5\n        /* \"#utility.yul\":13226:13230   */\n      dup5\n        /* \"#utility.yul\":13220:13231   */\n      sload\n        /* \"#utility.yul\":13192:13283   */\n      tag_162\n      jump\t// in\n    tag_297:\n        /* \"#utility.yul\":13186:13190   */\n      dup3\n        /* \"#utility.yul\":13179:13284   */\n      sstore\n        /* \"#utility.yul\":13097:13290   */\n      pop\n        /* \"#utility.yul\":13021:13290   */\n      pop\n      pop\n      pop\n      jump\t// out\n        /* \"#utility.yul\":13296:13369   */\n    tag_167:\n        /* \"#utility.yul\":13341:13344   */\n      0x00\n        /* \"#utility.yul\":13296:13369   */\n      swap1\n      jump\t// out\n        /* \"#utility.yul\":13375:13564   */\n    tag_168:\n        /* \"#utility.yul\":13452:13484   */\n      tag_301\n      tag_167\n      jump\t// in\n    tag_301:\n        /* \"#utility.yul\":13493:13558   */\n      tag_302\n        /* \"#utility.yul\":13551:13557   */\n      dup2\n        /* \"#utility.yul\":13543:13549   */\n      dup5\n        /* \"#utility.yul\":13537:13541   */\n      dup5\n        /* \"#utility.yul\":13493:13558   */\n      tag_166\n      jump\t// in\n    tag_302:\n        /* \"#utility.yul\":13428:13564   */\n      pop\n        /* \"#utility.yul\":13375:13564   */\n      pop\n      pop\n      jump\t// out\n        /* \"#utility.yul\":13570:13756   */\n    tag_169:\n        /* \"#utility.yul\":13630:13750   */\n    tag_304:\n        /* \"#utility.yul\":13647:13650   */\n      dup2\n        /* \"#utility.yul\":13640:13645   */\n      dup2\n        /* \"#utility.yul\":13637:13651   */\n      lt\n        /* \"#utility.yul\":13630:13750   */\n      iszero\n      tag_306\n      jumpi\n        /* \"#utility.yul\":13701:13740   */\n      tag_307\n        /* \"#utility.yul\":13738:13739   */\n      0x00\n        /* \"#utility.yul\":13731:13736   */\n      dup3\n        /* \"#utility.yul\":13701:13740   */\n      tag_168\n      jump\t// in\n    tag_307:\n        /* \"#utility.yul\":13674:13675   */\n      0x01\n        /* \"#utility.yul\":13667:13672   */\n      dup2\n        /* \"#utility.yul\":13663:13676   */\n      add\n        /* \"#utility.yul\":13654:13676   */\n      swap1\n      pop\n        /* \"#utility.yul\":13630:13750   */\n      jump(tag_304)\n    tag_306:\n        /* \"#utility.yul\":13570:13756   */\n      pop\n      pop\n      jump\t// out\n        /* \"#utility.yul\":13762:14305   */\n    tag_170:\n        /* \"#utility.yul\":13863:13865   */\n      0x1f\n        /* \"#utility.yul\":13858:13861   */\n      dup3\n        /* \"#utility.yul\":13855:13866   */\n      gt\n        /* \"#utility.yul\":13852:14298   */\n      iszero\n      tag_309\n      jumpi\n        /* \"#utility.yul\":13897:13935   */\n      tag_310\n        /* \"#utility.yul\":13929:13934   */\n      dup2\n        /* \"#utility.yul\":13897:13935   */\n      tag_159\n      jump\t// in\n    tag_310:\n        /* \"#utility.yul\":13981:14010   */\n      tag_311\n        /* \"#utility.yul\":13999:14009   */\n      dup5\n        /* \"#utility.yul\":13981:14010   */\n      tag_160\n      jump\t// in\n    tag_311:\n        /* \"#utility.yul\":13971:13979   */\n      dup2\n        /* \"#utility.yul\":13967:14011   */\n      add\n        /* \"#utility.yul\":14164:14166   */\n      0x20\n        /* \"#utility.yul\":14152:14162   */\n      dup6\n        /* \"#utility.yul\":14149:14167   */\n      lt\n        /* \"#utility.yul\":14146:14195   */\n      iszero\n      tag_312\n      jumpi\n        /* \"#utility.yul\":14185:14193   */\n      dup2\n        /* \"#utility.yul\":14170:14193   */\n      swap1\n      pop\n        /* \"#utility.yul\":14146:14195   */\n    tag_312:\n        /* \"#utility.yul\":14208:14288   */\n      tag_313\n        /* \"#utility.yul\":14264:14286   */\n      tag_314\n        /* \"#utility.yul\":14282:14285   */\n      dup6\n        /* \"#utility.yul\":14264:14286   */\n      tag_160\n      jump\t// in\n    tag_314:\n        /* \"#utility.yul\":14254:14262   */\n      dup4\n        /* \"#utility.yul\":14250:14287   */\n      add\n        /* \"#utility.yul\":14237:14248   */\n      dup3\n        /* \"#utility.yul\":14208:14288   */\n      tag_169\n      jump\t// in\n    tag_313:\n        /* \"#utility.yul\":13867:14298   */\n      pop\n      pop\n        /* \"#utility.yul\":13852:14298   */\n    tag_309:\n        /* \"#utility.yul\":13762:14305   */\n      pop\n      pop\n      pop\n      jump\t// out\n        /* \"#utility.yul\":14311:14428   */\n    tag_171:\n        /* \"#utility.yul\":14365:14373   */\n      0x00\n        /* \"#utility.yul\":14415:14420   */\n      dup3\n        /* \"#utility.yul\":14409:14413   */\n      dup3\n        /* \"#utility.yul\":14405:14421   */\n      shr\n        /* \"#utility.yul\":14384:14421   */\n      swap1\n      pop\n        /* \"#utility.yul\":14311:14428   */\n      swap3\n      swap2\n      pop\n      pop\n      jump\t// out\n        /* \"#utility.yul\":14434:14603   */\n    tag_172:\n        /* \"#utility.yul\":14478:14484   */\n      0x00\n        /* \"#utility.yul\":14511:14562   */\n      tag_317\n        /* \"#utility.yul\":14559:14560   */\n      0x00\n        /* \"#utility.yul\":14555:14561   */\n      not\n        /* \"#utility.yul\":14547:14552   */\n      dup5\n        /* \"#utility.yul\":14544:14545   */\n      0x08\n        /* \"#utility.yul\":14540:14553   */\n      mul\n        /* \"#utility.yul\":14511:14562   */\n      tag_171\n      jump\t// in\n    tag_317:\n        /* \"#utility.yul\":14507:14563   */\n      not\n        /* \"#utility.yul\":14592:14596   */\n      dup1\n        /* \"#utility.yul\":14586:14590   */\n      dup4\n        /* \"#utility.yul\":14582:14597   */\n      and\n        /* \"#utility.yul\":14572:14597   */\n      swap2\n      pop\n        /* \"#utility.yul\":14485:14603   */\n      pop\n        /* \"#utility.yul\":14434:14603   */\n      swap3\n      swap2\n      pop\n      pop\n      jump\t// out\n        /* \"#utility.yul\":14608:14903   */\n    tag_173:\n        /* \"#utility.yul\":14684:14688   */\n      0x00\n        /* \"#utility.yul\":14830:14859   */\n      tag_319\n        /* \"#utility.yul\":14855:14858   */\n      dup4\n        /* \"#utility.yul\":14849:14853   */\n      dup4\n        /* \"#utility.yul\":14830:14859   */\n      tag_172\n      jump\t// in\n    tag_319:\n        /* \"#utility.yul\":14822:14859   */\n      swap2\n      pop\n        /* \"#utility.yul\":14892:14895   */\n      dup3\n        /* \"#utility.yul\":14889:14890   */\n      0x02\n        /* \"#utility.yul\":14885:14896   */\n      mul\n        /* \"#utility.yul\":14879:14883   */\n      dup3\n        /* \"#utility.yul\":14876:14897   */\n      or\n        /* \"#utility.yul\":14868:14897   */\n      swap1\n      pop\n        /* \"#utility.yul\":14608:14903   */\n      swap3\n      swap2\n      pop\n      pop\n      jump\t// out\n        /* \"#utility.yul\":14908:16303   */\n    tag_43:\n        /* \"#utility.yul\":15025:15062   */\n      tag_321\n        /* \"#utility.yul\":15058:15061   */\n      dup3\n        /* \"#utility.yul\":15025:15062   */\n      tag_142\n      jump\t// in\n    tag_321:\n        /* \"#utility.yul\":15127:15145   */\n      0xffffffffffffffff\n        /* \"#utility.yul\":15119:15125   */\n      dup2\n        /* \"#utility.yul\":15116:15146   */\n      gt\n        /* \"#utility.yul\":15113:15169   */\n      iszero\n      tag_322\n      jumpi\n        /* \"#utility.yul\":15149:15167   */\n      tag_323\n      tag_134\n      jump\t// in\n    tag_323:\n        /* \"#utility.yul\":15113:15169   */\n    tag_322:\n        /* \"#utility.yul\":15193:15231   */\n      tag_324\n        /* \"#utility.yul\":15225:15229   */\n      dup3\n        /* \"#utility.yul\":15219:15230   */\n      sload\n        /* \"#utility.yul\":15193:15231   */\n      tag_58\n      jump\t// in\n    tag_324:\n        /* \"#utility.yul\":15278:15345   */\n      tag_325\n        /* \"#utility.yul\":15338:15344   */\n      dup3\n        /* \"#utility.yul\":15330:15336   */\n      dup3\n        /* \"#utility.yul\":15324:15328   */\n      dup6\n        /* \"#utility.yul\":15278:15345   */\n      tag_170\n      jump\t// in\n    tag_325:\n        /* \"#utility.yul\":15372:15373   */\n      0x00\n        /* \"#utility.yul\":15396:15400   */\n      0x20\n        /* \"#utility.yul\":15383:15400   */\n      swap1\n      pop\n        /* \"#utility.yul\":15428:15430   */\n      0x1f\n        /* \"#utility.yul\":15420:15426   */\n      dup4\n        /* \"#utility.yul\":15417:15431   */\n      gt\n        /* \"#utility.yul\":15445:15446   */\n      0x01\n        /* \"#utility.yul\":15440:16058   */\n      dup2\n      eq\n      tag_327\n      jumpi\n        /* \"#utility.yul\":16102:16103   */\n      0x00\n        /* \"#utility.yul\":16119:16125   */\n      dup5\n        /* \"#utility.yul\":16116:16193   */\n      iszero\n      tag_328\n      jumpi\n        /* \"#utility.yul\":16168:16177   */\n      dup3\n        /* \"#utility.yul\":16163:16166   */\n      dup8\n        /* \"#utility.yul\":16159:16178   */\n      add\n        /* \"#utility.yul\":16153:16179   */\n      mload\n        /* \"#utility.yul\":16144:16179   */\n      swap1\n      pop\n        /* \"#utility.yul\":16116:16193   */\n    tag_328:\n        /* \"#utility.yul\":16219:16286   */\n      tag_329\n        /* \"#utility.yul\":16279:16285   */\n      dup6\n        /* \"#utility.yul\":16272:16277   */\n      dup3\n        /* \"#utility.yul\":16219:16286   */\n      tag_173\n      jump\t// in\n    tag_329:\n        /* \"#utility.yul\":16213:16217   */\n      dup7\n        /* \"#utility.yul\":16206:16287   */\n      sstore\n        /* \"#utility.yul\":16075:16297   */\n      pop\n        /* \"#utility.yul\":15410:16297   */\n      jump(tag_326)\n        /* \"#utility.yul\":15440:16058   */\n    tag_327:\n        /* \"#utility.yul\":15492:15496   */\n      0x1f\n        /* \"#utility.yul\":15488:15497   */\n      not\n        /* \"#utility.yul\":15480:15486   */\n      dup5\n        /* \"#utility.yul\":15476:15498   */\n      and\n        /* \"#utility.yul\":15526:15563   */\n      tag_330\n        /* \"#utility.yul\":15558:15562   */\n      dup7\n        /* \"#utility.yul\":15526:15563   */\n      tag_159\n      jump\t// in\n    tag_330:\n        /* \"#utility.yul\":15585:15586   */\n      0x00\n        /* \"#utility.yul\":15599:15807   */\n    tag_331:\n        /* \"#utility.yul\":15613:15620   */\n      dup3\n        /* \"#utility.yul\":15610:15611   */\n      dup2\n        /* \"#utility.yul\":15607:15621   */\n      lt\n        /* \"#utility.yul\":15599:15807   */\n      iszero\n      tag_333\n      jumpi\n        /* \"#utility.yul\":15692:15701   */\n      dup5\n        /* \"#utility.yul\":15687:15690   */\n      dup10\n        /* \"#utility.yul\":15683:15702   */\n      add\n        /* \"#utility.yul\":15677:15703   */\n      mload\n        /* \"#utility.yul\":15669:15675   */\n      dup3\n        /* \"#utility.yul\":15662:15704   */\n      sstore\n        /* \"#utility.yul\":15743:15744   */\n      0x01\n        /* \"#utility.yul\":15735:15741   */\n      dup3\n        /* \"#utility.yul\":15731:15745   */\n      add\n        /* \"#utility.yul\":15721:15745   */\n      swap2\n      pop\n        /* \"#utility.yul\":15790:15792   */\n      0x20\n        /* \"#utility.yul\":15779:15788   */\n      dup6\n        /* \"#utility.yul\":15775:15793   */\n      add\n        /* \"#utility.yul\":15762:15793   */\n      swap5\n      pop\n        /* \"#utility.yul\":15636:15640   */\n      0x20\n        /* \"#utility.yul\":15633:15634   */\n      dup2\n        /* \"#utility.yul\":15629:15641   */\n      add\n        /* \"#utility.yul\":15624:15641   */\n      swap1\n      pop\n        /* \"#utility.yul\":15599:15807   */\n      jump(tag_331)\n    tag_333:\n        /* \"#utility.yul\":15835:15841   */\n      dup7\n        /* \"#utility.yul\":15826:15833   */\n      dup4\n        /* \"#utility.yul\":15823:15842   */\n      lt\n        /* \"#utility.yul\":15820:15999   */\n      iszero\n      tag_334\n      jumpi\n        /* \"#utility.yul\":15893:15902   */\n      dup5\n        /* \"#utility.yul\":15888:15891   */\n      dup10\n        /* \"#utility.yul\":15884:15903   */\n      add\n        /* \"#utility.yul\":15878:15904   */\n      mload\n        /* \"#utility.yul\":15936:15984   */\n      tag_335\n        /* \"#utility.yul\":15978:15982   */\n      0x1f\n        /* \"#utility.yul\":15970:15976   */\n      dup10\n        /* \"#utility.yul\":15966:15983   */\n      and\n        /* \"#utility.yul\":15955:15964   */\n      dup3\n        /* \"#utility.yul\":15936:15984   */\n      tag_172\n      jump\t// in\n    tag_335:\n        /* \"#utility.yul\":15928:15934   */\n      dup4\n        /* \"#utility.yul\":15921:15985   */\n      sstore\n        /* \"#utility.yul\":15843:15999   */\n      pop\n        /* \"#utility.yul\":15820:15999   */\n    tag_334:\n        /* \"#utility.yul\":16045:16046   */\n      0x01\n        /* \"#utility.yul\":16041:16042   */\n      0x02\n        /* \"#utility.yul\":16033:16039   */\n      dup9\n        /* \"#utility.yul\":16029:16043   */\n      mul\n        /* \"#utility.yul\":16025:16047   */\n      add\n        /* \"#utility.yul\":16019:16023   */\n      dup9\n        /* \"#utility.yul\":16012:16048   */\n      sstore\n        /* \"#utility.yul\":15447:16058   */\n      pop\n      pop\n      pop\n        /* \"#utility.yul\":15410:16297   */\n    tag_326:\n      pop\n        /* \"#utility.yul\":15000:16303   */\n      pop\n      pop\n      pop\n        /* \"#utility.yul\":14908:16303   */\n      pop\n      pop\n      jump\t// out\n        /* \"#utility.yul\":16309:16477   */\n    tag_174:\n        /* \"#utility.yul\":16449:16469   */\n      0x53747564656e74206e6f7420666f756e64210000000000000000000000000000\n        /* \"#utility.yul\":16445:16446   */\n      0x00\n        /* \"#utility.yul\":16437:16443   */\n      dup3\n        /* \"#utility.yul\":16433:16447   */\n      add\n        /* \"#utility.yul\":16426:16470   */\n      mstore\n        /* \"#utility.yul\":16309:16477   */\n      pop\n      jump\t// out\n        /* \"#utility.yul\":16483:16849   */\n    tag_175:\n        /* \"#utility.yul\":16625:16628   */\n      0x00\n        /* \"#utility.yul\":16646:16713   */\n      tag_338\n        /* \"#utility.yul\":16710:16712   */\n      0x12\n        /* \"#utility.yul\":16705:16708   */\n      dup4\n        /* \"#utility.yul\":16646:16713   */\n      tag_154\n      jump\t// in\n    tag_338:\n        /* \"#utility.yul\":16639:16713   */\n      swap2\n      pop\n        /* \"#utility.yul\":16722:16815   */\n      tag_339\n        /* \"#utility.yul\":16811:16814   */\n      dup3\n        /* \"#utility.yul\":16722:16815   */\n      tag_174\n      jump\t// in\n    tag_339:\n        /* \"#utility.yul\":16840:16842   */\n      0x20\n        /* \"#utility.yul\":16835:16838   */\n      dup3\n        /* \"#utility.yul\":16831:16843   */\n      add\n        /* \"#utility.yul\":16824:16843   */\n      swap1\n      pop\n        /* \"#utility.yul\":16483:16849   */\n      swap2\n      swap1\n      pop\n      jump\t// out\n        /* \"#utility.yul\":16855:17274   */\n    tag_65:\n        /* \"#utility.yul\":17021:17025   */\n      0x00\n        /* \"#utility.yul\":17059:17061   */\n      0x20\n        /* \"#utility.yul\":17048:17057   */\n      dup3\n        /* \"#utility.yul\":17044:17062   */\n      add\n        /* \"#utility.yul\":17036:17062   */\n      swap1\n      pop\n        /* \"#utility.yul\":17108:17117   */\n      dup2\n        /* \"#utility.yul\":17102:17106   */\n      dup2\n        /* \"#utility.yul\":17098:17118   */\n      sub\n        /* \"#utility.yul\":17094:17095   */\n      0x00\n        /* \"#utility.yul\":17083:17092   */\n      dup4\n        /* \"#utility.yul\":17079:17096   */\n      add\n        /* \"#utility.yul\":17072:17119   */\n      mstore\n        /* \"#utility.yul\":17136:17267   */\n      tag_341\n        /* \"#utility.yul\":17262:17266   */\n      dup2\n        /* \"#utility.yul\":17136:17267   */\n      tag_175\n      jump\t// in\n    tag_341:\n        /* \"#utility.yul\":17128:17267   */\n      swap1\n      pop\n        /* \"#utility.yul\":16855:17274   */\n      swap2\n      swap1\n      pop\n      jump\t// out\n        /* \"#utility.yul\":17280:17474   */\n    tag_75:\n        /* \"#utility.yul\":17320:17324   */\n      0x00\n        /* \"#utility.yul\":17340:17360   */\n      tag_343\n        /* \"#utility.yul\":17358:17359   */\n      dup3\n        /* \"#utility.yul\":17340:17360   */\n      tag_128\n      jump\t// in\n    tag_343:\n        /* \"#utility.yul\":17335:17360   */\n      swap2\n      pop\n        /* \"#utility.yul\":17374:17394   */\n      tag_344\n        /* \"#utility.yul\":17392:17393   */\n      dup4\n        /* \"#utility.yul\":17374:17394   */\n      tag_128\n      jump\t// in\n    tag_344:\n        /* \"#utility.yul\":17369:17394   */\n      swap3\n      pop\n        /* \"#utility.yul\":17418:17419   */\n      dup3\n        /* \"#utility.yul\":17415:17416   */\n      dup3\n        /* \"#utility.yul\":17411:17420   */\n      sub\n        /* \"#utility.yul\":17403:17420   */\n      swap1\n      pop\n        /* \"#utility.yul\":17442:17443   */\n      dup2\n        /* \"#utility.yul\":17436:17440   */\n      dup2\n        /* \"#utility.yul\":17433:17444   */\n      gt\n        /* \"#utility.yul\":17430:17467   */\n      iszero\n      tag_345\n      jumpi\n        /* \"#utility.yul\":17447:17465   */\n      tag_346\n      tag_157\n      jump\t// in\n    tag_346:\n        /* \"#utility.yul\":17430:17467   */\n    tag_345:\n        /* \"#utility.yul\":17280:17474   */\n      swap3\n      swap2\n      pop\n      pop\n      jump\t// out\n        /* \"#utility.yul\":17480:17629   */\n    tag_176:\n        /* \"#utility.yul\":17529:17535   */\n      0x00\n        /* \"#utility.yul\":17563:17568   */\n      dup2\n        /* \"#utility.yul\":17557:17569   */\n      sload\n        /* \"#utility.yul\":17547:17569   */\n      swap1\n      pop\n        /* \"#utility.yul\":17589:17622   */\n      tag_348\n        /* \"#utility.yul\":17615:17621   */\n      dup2\n        /* \"#utility.yul\":17589:17622   */\n      tag_58\n      jump\t// in\n    tag_348:\n        /* \"#utility.yul\":17579:17622   */\n      swap1\n      pop\n        /* \"#utility.yul\":17480:17629   */\n      swap2\n      swap1\n      pop\n      jump\t// out\n        /* \"#utility.yul\":17635:19086   */\n    tag_83:\n        /* \"#utility.yul\":17746:17749   */\n      dup2\n        /* \"#utility.yul\":17740:17744   */\n      dup2\n        /* \"#utility.yul\":17737:17750   */\n      sub\n        /* \"#utility.yul\":17734:17760   */\n      tag_350\n      jumpi\n        /* \"#utility.yul\":17753:17758   */\n      pop\n      pop\n      jump(tag_349)\n        /* \"#utility.yul\":17734:17760   */\n    tag_350:\n        /* \"#utility.yul\":17784:17818   */\n      tag_351\n        /* \"#utility.yul\":17814:17817   */\n      dup3\n        /* \"#utility.yul\":17784:17818   */\n      tag_176\n      jump\t// in\n    tag_351:\n        /* \"#utility.yul\":17883:17901   */\n      0xffffffffffffffff\n        /* \"#utility.yul\":17875:17881   */\n      dup2\n        /* \"#utility.yul\":17872:17902   */\n      gt\n        /* \"#utility.yul\":17869:17925   */\n      iszero\n      tag_352\n      jumpi\n        /* \"#utility.yul\":17905:17923   */\n      tag_353\n      tag_134\n      jump\t// in\n    tag_353:\n        /* \"#utility.yul\":17869:17925   */\n    tag_352:\n        /* \"#utility.yul\":17949:17987   */\n      tag_354\n        /* \"#utility.yul\":17981:17985   */\n      dup3\n        /* \"#utility.yul\":17975:17986   */\n      sload\n        /* \"#utility.yul\":17949:17987   */\n      tag_58\n      jump\t// in\n    tag_354:\n        /* \"#utility.yul\":18034:18101   */\n      tag_355\n        /* \"#utility.yul\":18094:18100   */\n      dup3\n        /* \"#utility.yul\":18086:18092   */\n      dup3\n        /* \"#utility.yul\":18080:18084   */\n      dup6\n        /* \"#utility.yul\":18034:18101   */\n      tag_170\n      jump\t// in\n    tag_355:\n        /* \"#utility.yul\":18128:18129   */\n      0x00\n        /* \"#utility.yul\":18157:18159   */\n      0x1f\n        /* \"#utility.yul\":18149:18155   */\n      dup4\n        /* \"#utility.yul\":18146:18160   */\n      gt\n        /* \"#utility.yul\":18174:18175   */\n      0x01\n        /* \"#utility.yul\":18169:18841   */\n      dup2\n      eq\n      tag_357\n      jumpi\n        /* \"#utility.yul\":18885:18886   */\n      0x00\n        /* \"#utility.yul\":18902:18908   */\n      dup5\n        /* \"#utility.yul\":18899:18976   */\n      iszero\n      tag_358\n      jumpi\n        /* \"#utility.yul\":18951:18960   */\n      dup3\n        /* \"#utility.yul\":18946:18949   */\n      dup8\n        /* \"#utility.yul\":18942:18961   */\n      add\n        /* \"#utility.yul\":18936:18962   */\n      sload\n        /* \"#utility.yul\":18927:18962   */\n      swap1\n      pop\n        /* \"#utility.yul\":18899:18976   */\n    tag_358:\n        /* \"#utility.yul\":19002:19069   */\n      tag_359\n        /* \"#utility.yul\":19062:19068   */\n      dup6\n        /* \"#utility.yul\":19055:19060   */\n      dup3\n        /* \"#utility.yul\":19002:19069   */\n      tag_173\n      jump\t// in\n    tag_359:\n        /* \"#utility.yul\":18996:19000   */\n      dup7\n        /* \"#utility.yul\":18989:19070   */\n      sstore\n        /* \"#utility.yul\":18858:19080   */\n      pop\n        /* \"#utility.yul\":18139:19080   */\n      jump(tag_356)\n        /* \"#utility.yul\":18169:18841   */\n    tag_357:\n        /* \"#utility.yul\":18221:18225   */\n      0x1f\n        /* \"#utility.yul\":18217:18226   */\n      not\n        /* \"#utility.yul\":18209:18215   */\n      dup5\n        /* \"#utility.yul\":18205:18227   */\n      and\n        /* \"#utility.yul\":18247:18283   */\n      tag_360\n        /* \"#utility.yul\":18279:18282   */\n      dup8\n        /* \"#utility.yul\":18247:18283   */\n      tag_159\n      jump\t// in\n    tag_360:\n        /* \"#utility.yul\":18240:18283   */\n      swap7\n      pop\n        /* \"#utility.yul\":18310:18347   */\n      tag_361\n        /* \"#utility.yul\":18342:18346   */\n      dup7\n        /* \"#utility.yul\":18310:18347   */\n      tag_159\n      jump\t// in\n    tag_361:\n        /* \"#utility.yul\":18369:18370   */\n      0x00\n        /* \"#utility.yul\":18383:18590   */\n    tag_362:\n        /* \"#utility.yul\":18397:18404   */\n      dup3\n        /* \"#utility.yul\":18394:18395   */\n      dup2\n        /* \"#utility.yul\":18391:18405   */\n      lt\n        /* \"#utility.yul\":18383:18590   */\n      iszero\n      tag_364\n      jumpi\n        /* \"#utility.yul\":18476:18485   */\n      dup5\n        /* \"#utility.yul\":18471:18474   */\n      dup10\n        /* \"#utility.yul\":18467:18486   */\n      add\n        /* \"#utility.yul\":18461:18487   */\n      sload\n        /* \"#utility.yul\":18453:18459   */\n      dup3\n        /* \"#utility.yul\":18446:18488   */\n      sstore\n        /* \"#utility.yul\":18527:18528   */\n      0x01\n        /* \"#utility.yul\":18519:18525   */\n      dup3\n        /* \"#utility.yul\":18515:18529   */\n      add\n        /* \"#utility.yul\":18505:18529   */\n      swap2\n      pop\n        /* \"#utility.yul\":18574:18575   */\n      0x01\n        /* \"#utility.yul\":18563:18572   */\n      dup6\n        /* \"#utility.yul\":18559:18576   */\n      add\n        /* \"#utility.yul\":18546:18576   */\n      swap5\n      pop\n        /* \"#utility.yul\":18420:18424   */\n      0x20\n        /* \"#utility.yul\":18417:18418   */\n      dup2\n        /* \"#utility.yul\":18413:18425   */\n      add\n        /* \"#utility.yul\":18408:18425   */\n      swap1\n      pop\n        /* \"#utility.yul\":18383:18590   */\n      jump(tag_362)\n    tag_364:\n        /* \"#utility.yul\":18618:18624   */\n      dup7\n        /* \"#utility.yul\":18609:18616   */\n      dup4\n        /* \"#utility.yul\":18606:18625   */\n      lt\n        /* \"#utility.yul\":18603:18782   */\n      iszero\n      tag_365\n      jumpi\n        /* \"#utility.yul\":18676:18685   */\n      dup5\n        /* \"#utility.yul\":18671:18674   */\n      dup10\n        /* \"#utility.yul\":18667:18686   */\n      add\n        /* \"#utility.yul\":18661:18687   */\n      sload\n        /* \"#utility.yul\":18719:18767   */\n      tag_366\n        /* \"#utility.yul\":18761:18765   */\n      0x1f\n        /* \"#utility.yul\":18753:18759   */\n      dup10\n        /* \"#utility.yul\":18749:18766   */\n      and\n        /* \"#utility.yul\":18738:18747   */\n      dup3\n        /* \"#utility.yul\":18719:18767   */\n      tag_172\n      jump\t// in\n    tag_366:\n        /* \"#utility.yul\":18711:18717   */\n      dup4\n        /* \"#utility.yul\":18704:18768   */\n      sstore\n        /* \"#utility.yul\":18626:18782   */\n      pop\n        /* \"#utility.yul\":18603:18782   */\n    tag_365:\n        /* \"#utility.yul\":18828:18829   */\n      0x01\n        /* \"#utility.yul\":18824:18825   */\n      0x02\n        /* \"#utility.yul\":18816:18822   */\n      dup9\n        /* \"#utility.yul\":18812:18826   */\n      mul\n        /* \"#utility.yul\":18808:18830   */\n      add\n        /* \"#utility.yul\":18802:18806   */\n      dup9\n        /* \"#utility.yul\":18795:18831   */\n      sstore\n        /* \"#utility.yul\":18176:18841   */\n      pop\n      pop\n      pop\n        /* \"#utility.yul\":18139:19080   */\n    tag_356:\n      pop\n        /* \"#utility.yul\":17724:19086   */\n      pop\n      pop\n      pop\n        /* \"#utility.yul\":17635:19086   */\n      pop\n      pop\n    tag_349:\n      jump\t// out\n        /* \"#utility.yul\":19092:19272   */\n    tag_86:\n        /* \"#utility.yul\":19140:19217   */\n      0x4e487b7100000000000000000000000000000000000000000000000000000000\n        /* \"#utility.yul\":19137:19138   */\n      0x00\n        /* \"#utility.yul\":19130:19218   */\n      mstore\n        /* \"#utility.yul\":19237:19241   */\n      0x31\n        /* \"#utility.yul\":19234:19235   */\n      0x04\n        /* \"#utility.yul\":19227:19242   */\n      mstore\n        /* \"#utility.yul\":19261:19265   */\n      0x24\n        /* \"#utility.yul\":19258:19259   */\n      0x00\n        /* \"#utility.yul\":19251:19266   */\n      revert\n\n    auxdata: 0xa26469706673582212203fd7e271892bf03d82e63ac717022e6e60a396842ab57ac2da28230eb1b1c17d64736f6c63430008130033\n}\n",
				"bytecode": {
					"linkReferences": {},
					"object": "608060405234801561001057600080fd5b506115a9806100206000396000f3fe608060405234801561001057600080fd5b50600436106100575760003560e01c80631b5c81a51461005c578063c8fb079314610078578063dc3266c6146100a8578063ec7505b1146100c4578063f1d064b3146100e0575b600080fd5b61007660048036038101906100719190610cd5565b6100fe565b005b610092600480360381019061008d9190610d44565b6102b4565b60405161009f9190610e4f565b60405180910390f35b6100c260048036038101906100bd9190610d44565b6104db565b005b6100de60048036038101906100d99190610cd5565b6107a3565b005b6100e8610986565b6040516100f59190610f83565b60405180910390f35b60005b6000803373ffffffffffffffffffffffffffffffffffffffff1673ffffffffffffffffffffffffffffffffffffffff1681526020019081526020016000208054905081101561020057836000803373ffffffffffffffffffffffffffffffffffffffff1673ffffffffffffffffffffffffffffffffffffffff168152602001908152602001600020828154811061019b5761019a610fa5565b5b906000526020600020906003020160000154036101ed576040517f08c379a00000000000000000000000000000000000000000000000000000000081526004016101e490611031565b60405180910390fd5b80806101f890611080565b915050610101565b506000803373ffffffffffffffffffffffffffffffffffffffff1673ffffffffffffffffffffffffffffffffffffffff16815260200190815260200160002060405180606001604052808581526020018481526020018381525090806001815401808255809150506001900390600052602060002090600302016000909190919091506000820151816000015560208201518160010190816102a291906112d4565b50604082015181600201555050505050565b6102bc610ac7565b60005b6000803373ffffffffffffffffffffffffffffffffffffffff1673ffffffffffffffffffffffffffffffffffffffff1681526020019081526020016000208054905081101561049a57826000803373ffffffffffffffffffffffffffffffffffffffff1673ffffffffffffffffffffffffffffffffffffffff168152602001908152602001600020828154811061035957610358610fa5565b5b90600052602060002090600302016000015403610487576000803373ffffffffffffffffffffffffffffffffffffffff1673ffffffffffffffffffffffffffffffffffffffff16815260200190815260200160002081815481106103c0576103bf610fa5565b5b9060005260206000209060030201604051806060016040529081600082015481526020016001820180546103f3906110f7565b80601f016020809104026020016040519081016040528092919081815260200182805461041f906110f7565b801561046c5780601f106104415761010080835404028352916020019161046c565b820191906000526020600020905b81548152906001019060200180831161044f57829003601f168201915b505050505081526020016002820154815250509150506104d6565b808061049290611080565b9150506102bf565b506040517f08c379a00000000000000000000000000000000000000000000000000000000081526004016104cd906113f2565b60405180910390fd5b919050565b60005b6000803373ffffffffffffffffffffffffffffffffffffffff1673ffffffffffffffffffffffffffffffffffffffff1681526020019081526020016000208054905081101561076457816000803373ffffffffffffffffffffffffffffffffffffffff1673ffffffffffffffffffffffffffffffffffffffff168152602001908152602001600020828154811061057857610577610fa5565b5b90600052602060002090600302016000015403610751576000803373ffffffffffffffffffffffffffffffffffffffff1673ffffffffffffffffffffffffffffffffffffffff16815260200190815260200160002060016000803373ffffffffffffffffffffffffffffffffffffffff1673ffffffffffffffffffffffffffffffffffffffff1681526020019081526020016000208054905061061b9190611412565b8154811061062c5761062b610fa5565b5b90600052602060002090600302016000803373ffffffffffffffffffffffffffffffffffffffff1673ffffffffffffffffffffffffffffffffffffffff168152602001908152602001600020828154811061068a57610689610fa5565b5b906000526020600020906003020160008201548160000155600182018160010190816106b6919061145c565b50600282015481600201559050506000803373ffffffffffffffffffffffffffffffffffffffff1673ffffffffffffffffffffffffffffffffffffffff16815260200190815260200160002080548061071257610711611544565b5b600190038181906000526020600020906003020160008082016000905560018201600061073f9190610ae8565b600282016000905550509055506107a0565b808061075c90611080565b9150506104de565b506040517f08c379a0000000000000000000000000000000000000000000000000000000008152600401610797906113f2565b60405180910390fd5b50565b60005b6000803373ffffffffffffffffffffffffffffffffffffffff1673ffffffffffffffffffffffffffffffffffffffff1681526020019081526020016000208054905081101561094557836000803373ffffffffffffffffffffffffffffffffffffffff1673ffffffffffffffffffffffffffffffffffffffff16815260200190815260200160002082815481106108405761083f610fa5565b5b9060005260206000209060030201600001540361093257826000803373ffffffffffffffffffffffffffffffffffffffff1673ffffffffffffffffffffffffffffffffffffffff16815260200190815260200160002082815481106108a8576108a7610fa5565b5b906000526020600020906003020160010190816108c591906112d4565b50816000803373ffffffffffffffffffffffffffffffffffffffff1673ffffffffffffffffffffffffffffffffffffffff168152602001908152602001600020828154811061091757610916610fa5565b5b90600052602060002090600302016002018190555050610981565b808061093d90611080565b9150506107a6565b506040517f08c379a0000000000000000000000000000000000000000000000000000000008152600401610978906113f2565b60405180910390fd5b505050565b60606000803373ffffffffffffffffffffffffffffffffffffffff1673ffffffffffffffffffffffffffffffffffffffff168152602001908152602001600020805480602002602001604051908101604052809291908181526020016000905b82821015610abe578382906000526020600020906003020160405180606001604052908160008201548152602001600182018054610a23906110f7565b80601f0160208091040260200160405190810160405280929190818152602001828054610a4f906110f7565b8015610a9c5780601f10610a7157610100808354040283529160200191610a9c565b820191906000526020600020905b815481529060010190602001808311610a7f57829003601f168201915b50505050508152602001600282015481525050815260200190600101906109e6565b50505050905090565b60405180606001604052806000815260200160608152602001600081525090565b508054610af4906110f7565b6000825580601f10610b065750610b25565b601f016020900490600052602060002090810190610b249190610b28565b5b50565b5b80821115610b41576000816000905550600101610b29565b5090565b6000604051905090565b600080fd5b600080fd5b6000819050919050565b610b6c81610b59565b8114610b7757600080fd5b50565b600081359050610b8981610b63565b92915050565b600080fd5b600080fd5b6000601f19601f8301169050919050565b7f4e487b7100000000000000000000000000000000000000000000000000000000600052604160045260246000fd5b610be282610b99565b810181811067ffffffffffffffff82111715610c0157610c00610baa565b5b80604052505050565b6000610c14610b45565b9050610c208282610bd9565b919050565b600067ffffffffffffffff821115610c4057610c3f610baa565b5b610c4982610b99565b9050602081019050919050565b82818337600083830152505050565b6000610c78610c7384610c25565b610c0a565b905082815260208101848484011115610c9457610c93610b94565b5b610c9f848285610c56565b509392505050565b600082601f830112610cbc57610cbb610b8f565b5b8135610ccc848260208601610c65565b91505092915050565b600080600060608486031215610cee57610ced610b4f565b5b6000610cfc86828701610b7a565b935050602084013567ffffffffffffffff811115610d1d57610d1c610b54565b5b610d2986828701610ca7565b9250506040610d3a86828701610b7a565b9150509250925092565b600060208284031215610d5a57610d59610b4f565b5b6000610d6884828501610b7a565b91505092915050565b610d7a81610b59565b82525050565b600081519050919050565b600082825260208201905092915050565b60005b83811015610dba578082015181840152602081019050610d9f565b60008484015250505050565b6000610dd182610d80565b610ddb8185610d8b565b9350610deb818560208601610d9c565b610df481610b99565b840191505092915050565b6000606083016000830151610e176000860182610d71565b5060208301518482036020860152610e2f8282610dc6565b9150506040830151610e446040860182610d71565b508091505092915050565b60006020820190508181036000830152610e698184610dff565b905092915050565b600081519050919050565b600082825260208201905092915050565b6000819050602082019050919050565b6000606083016000830151610eb56000860182610d71565b5060208301518482036020860152610ecd8282610dc6565b9150506040830151610ee26040860182610d71565b508091505092915050565b6000610ef98383610e9d565b905092915050565b6000602082019050919050565b6000610f1982610e71565b610f238185610e7c565b935083602082028501610f3585610e8d565b8060005b85811015610f715784840389528151610f528582610eed565b9450610f5d83610f01565b925060208a01995050600181019050610f39565b50829750879550505050505092915050565b60006020820190508181036000830152610f9d8184610f0e565b905092915050565b7f4e487b7100000000000000000000000000000000000000000000000000000000600052603260045260246000fd5b600082825260208201905092915050565b7f494420616c726561647920657869737473000000000000000000000000000000600082015250565b600061101b601183610fd4565b915061102682610fe5565b602082019050919050565b6000602082019050818103600083015261104a8161100e565b9050919050565b7f4e487b7100000000000000000000000000000000000000000000000000000000600052601160045260246000fd5b600061108b82610b59565b91507fffffffffffffffffffffffffffffffffffffffffffffffffffffffffffffffff82036110bd576110bc611051565b5b600182019050919050565b7f4e487b7100000000000000000000000000000000000000000000000000000000600052602260045260246000fd5b6000600282049050600182168061110f57607f821691505b602082108103611122576111216110c8565b5b50919050565b60008190508160005260206000209050919050565b60006020601f8301049050919050565b600082821b905092915050565b60006008830261118a7fffffffffffffffffffffffffffffffffffffffffffffffffffffffffffffffff8261114d565b611194868361114d565b95508019841693508086168417925050509392505050565b6000819050919050565b60006111d16111cc6111c784610b59565b6111ac565b610b59565b9050919050565b6000819050919050565b6111eb836111b6565b6111ff6111f7826111d8565b84845461115a565b825550505050565b600090565b611214611207565b61121f8184846111e2565b505050565b5b818110156112435761123860008261120c565b600181019050611225565b5050565b601f8211156112885761125981611128565b6112628461113d565b81016020851015611271578190505b61128561127d8561113d565b830182611224565b50505b505050565b600082821c905092915050565b60006112ab6000198460080261128d565b1980831691505092915050565b60006112c4838361129a565b9150826002028217905092915050565b6112dd82610d80565b67ffffffffffffffff8111156112f6576112f5610baa565b5b61130082546110f7565b61130b828285611247565b600060209050601f83116001811461133e576000841561132c578287015190505b61133685826112b8565b86555061139e565b601f19841661134c86611128565b60005b828110156113745784890151825560018201915060208501945060208101905061134f565b86831015611391578489015161138d601f89168261129a565b8355505b6001600288020188555050505b505050505050565b7f53747564656e74206e6f7420666f756e64210000000000000000000000000000600082015250565b60006113dc601283610fd4565b91506113e7826113a6565b602082019050919050565b6000602082019050818103600083015261140b816113cf565b9050919050565b600061141d82610b59565b915061142883610b59565b92508282039050818111156114405761143f611051565b5b92915050565b600081549050611455816110f7565b9050919050565b81810361146a575050611542565b61147382611446565b67ffffffffffffffff81111561148c5761148b610baa565b5b61149682546110f7565b6114a1828285611247565b6000601f8311600181146114d057600084156114be578287015490505b6114c885826112b8565b86555061153b565b601f1984166114de87611128565b96506114e986611128565b60005b82811015611511578489015482556001820191506001850194506020810190506114ec565b8683101561152e578489015461152a601f89168261129a565b8355505b6001600288020188555050505b5050505050505b565b7f4e487b7100000000000000000000000000000000000000000000000000000000600052603160045260246000fdfea26469706673582212203fd7e271892bf03d82e63ac717022e6e60a396842ab57ac2da28230eb1b1c17d64736f6c63430008130033",
					"opcodes": "PUSH1 0x80 PUSH1 0x40 MSTORE CALLVALUE DUP1 ISZERO PUSH2 0x10 JUMPI PUSH1 0x0 DUP1 REVERT JUMPDEST POP PUSH2 0x15A9 DUP1 PUSH2 0x20 PUSH1 0x0 CODECOPY PUSH1 0x0 RETURN INVALID PUSH1 0x80 PUSH1 0x40 MSTORE CALLVALUE DUP1 ISZERO PUSH2 0x10 JUMPI PUSH1 0x0 DUP1 REVERT JUMPDEST POP PUSH1 0x4 CALLDATASIZE LT PUSH2 0x57 JUMPI PUSH1 0x0 CALLDATALOAD PUSH1 0xE0 SHR DUP1 PUSH4 0x1B5C81A5 EQ PUSH2 0x5C JUMPI DUP1 PUSH4 0xC8FB0793 EQ PUSH2 0x78 JUMPI DUP1 PUSH4 0xDC3266C6 EQ PUSH2 0xA8 JUMPI DUP1 PUSH4 0xEC7505B1 EQ PUSH2 0xC4 JUMPI DUP1 PUSH4 0xF1D064B3 EQ PUSH2 0xE0 JUMPI JUMPDEST PUSH1 0x0 DUP1 REVERT JUMPDEST PUSH2 0x76 PUSH1 0x4 DUP1 CALLDATASIZE SUB DUP2 ADD SWAP1 PUSH2 0x71 SWAP2 SWAP1 PUSH2 0xCD5 JUMP JUMPDEST PUSH2 0xFE JUMP JUMPDEST STOP JUMPDEST PUSH2 0x92 PUSH1 0x4 DUP1 CALLDATASIZE SUB DUP2 ADD SWAP1 PUSH2 0x8D SWAP2 SWAP1 PUSH2 0xD44 JUMP JUMPDEST PUSH2 0x2B4 JUMP JUMPDEST PUSH1 0x40 MLOAD PUSH2 0x9F SWAP2 SWAP1 PUSH2 0xE4F JUMP JUMPDEST PUSH1 0x40 MLOAD DUP1 SWAP2 SUB SWAP1 RETURN JUMPDEST PUSH2 0xC2 PUSH1 0x4 DUP1 CALLDATASIZE SUB DUP2 ADD SWAP1 PUSH2 0xBD SWAP2 SWAP1 PUSH2 0xD44 JUMP JUMPDEST PUSH2 0x4DB JUMP JUMPDEST STOP JUMPDEST PUSH2 0xDE PUSH1 0x4 DUP1 CALLDATASIZE SUB DUP2 ADD SWAP1 PUSH2 0xD9 SWAP2 SWAP1 PUSH2 0xCD5 JUMP JUMPDEST PUSH2 0x7A3 JUMP JUMPDEST STOP JUMPDEST PUSH2 0xE8 PUSH2 0x986 JUMP JUMPDEST PUSH1 0x40 MLOAD PUSH2 0xF5 SWAP2 SWAP1 PUSH2 0xF83 JUMP JUMPDEST PUSH1 0x40 MLOAD DUP1 SWAP2 SUB SWAP1 RETURN JUMPDEST PUSH1 0x0 JUMPDEST PUSH1 0x0 DUP1 CALLER PUSH20 0xFFFFFFFFFFFFFFFFFFFFFFFFFFFFFFFFFFFFFFFF AND PUSH20 0xFFFFFFFFFFFFFFFFFFFFFFFFFFFFFFFFFFFFFFFF AND DUP2 MSTORE PUSH1 0x20 ADD SWAP1 DUP2 MSTORE PUSH1 0x20 ADD PUSH1 0x0 KECCAK256 DUP1 SLOAD SWAP1 POP DUP2 LT ISZERO PUSH2 0x200 JUMPI DUP4 PUSH1 0x0 DUP1 CALLER PUSH20 0xFFFFFFFFFFFFFFFFFFFFFFFFFFFFFFFFFFFFFFFF AND PUSH20 0xFFFFFFFFFFFFFFFFFFFFFFFFFFFFFFFFFFFFFFFF AND DUP2 MSTORE PUSH1 0x20 ADD SWAP1 DUP2 MSTORE PUSH1 0x20 ADD PUSH1 0x0 KECCAK256 DUP3 DUP2 SLOAD DUP2 LT PUSH2 0x19B JUMPI PUSH2 0x19A PUSH2 0xFA5 JUMP JUMPDEST JUMPDEST SWAP1 PUSH1 0x0 MSTORE PUSH1 0x20 PUSH1 0x0 KECCAK256 SWAP1 PUSH1 0x3 MUL ADD PUSH1 0x0 ADD SLOAD SUB PUSH2 0x1ED JUMPI PUSH1 0x40 MLOAD PUSH32 0x8C379A000000000000000000000000000000000000000000000000000000000 DUP2 MSTORE PUSH1 0x4 ADD PUSH2 0x1E4 SWAP1 PUSH2 0x1031 JUMP JUMPDEST PUSH1 0x40 MLOAD DUP1 SWAP2 SUB SWAP1 REVERT JUMPDEST DUP1 DUP1 PUSH2 0x1F8 SWAP1 PUSH2 0x1080 JUMP JUMPDEST SWAP2 POP POP PUSH2 0x101 JUMP JUMPDEST POP PUSH1 0x0 DUP1 CALLER PUSH20 0xFFFFFFFFFFFFFFFFFFFFFFFFFFFFFFFFFFFFFFFF AND PUSH20 0xFFFFFFFFFFFFFFFFFFFFFFFFFFFFFFFFFFFFFFFF AND DUP2 MSTORE PUSH1 0x20 ADD SWAP1 DUP2 MSTORE PUSH1 0x20 ADD PUSH1 0x0 KECCAK256 PUSH1 0x40 MLOAD DUP1 PUSH1 0x60 ADD PUSH1 0x40 MSTORE DUP1 DUP6 DUP2 MSTORE PUSH1 0x20 ADD DUP5 DUP2 MSTORE PUSH1 0x20 ADD DUP4 DUP2 MSTORE POP SWAP1 DUP1 PUSH1 0x1 DUP2 SLOAD ADD DUP1 DUP3 SSTORE DUP1 SWAP2 POP POP PUSH1 0x1 SWAP1 SUB SWAP1 PUSH1 0x0 MSTORE PUSH1 0x20 PUSH1 0x0 KECCAK256 SWAP1 PUSH1 0x3 MUL ADD PUSH1 0x0 SWAP1 SWAP2 SWAP1 SWAP2 SWAP1 SWAP2 POP PUSH1 0x0 DUP3 ADD MLOAD DUP2 PUSH1 0x0 ADD SSTORE PUSH1 0x20 DUP3 ADD MLOAD DUP2 PUSH1 0x1 ADD SWAP1 DUP2 PUSH2 0x2A2 SWAP2 SWAP1 PUSH2 0x12D4 JUMP JUMPDEST POP PUSH1 0x40 DUP3 ADD MLOAD DUP2 PUSH1 0x2 ADD SSTORE POP POP POP POP POP JUMP JUMPDEST PUSH2 0x2BC PUSH2 0xAC7 JUMP JUMPDEST PUSH1 0x0 JUMPDEST PUSH1 0x0 DUP1 CALLER PUSH20 0xFFFFFFFFFFFFFFFFFFFFFFFFFFFFFFFFFFFFFFFF AND PUSH20 0xFFFFFFFFFFFFFFFFFFFFFFFFFFFFFFFFFFFFFFFF AND DUP2 MSTORE PUSH1 0x20 ADD SWAP1 DUP2 MSTORE PUSH1 0x20 ADD PUSH1 0x0 KECCAK256 DUP1 SLOAD SWAP1 POP DUP2 LT ISZERO PUSH2 0x49A JUMPI DUP3 PUSH1 0x0 DUP1 CALLER PUSH20 0xFFFFFFFFFFFFFFFFFFFFFFFFFFFFFFFFFFFFFFFF AND PUSH20 0xFFFFFFFFFFFFFFFFFFFFFFFFFFFFFFFFFFFFFFFF AND DUP2 MSTORE PUSH1 0x20 ADD SWAP1 DUP2 MSTORE PUSH1 0x20 ADD PUSH1 0x0 KECCAK256 DUP3 DUP2 SLOAD DUP2 LT PUSH2 0x359 JUMPI PUSH2 0x358 PUSH2 0xFA5 JUMP JUMPDEST JUMPDEST SWAP1 PUSH1 0x0 MSTORE PUSH1 0x20 PUSH1 0x0 KECCAK256 SWAP1 PUSH1 0x3 MUL ADD PUSH1 0x0 ADD SLOAD SUB PUSH2 0x487 JUMPI PUSH1 0x0 DUP1 CALLER PUSH20 0xFFFFFFFFFFFFFFFFFFFFFFFFFFFFFFFFFFFFFFFF AND PUSH20 0xFFFFFFFFFFFFFFFFFFFFFFFFFFFFFFFFFFFFFFFF AND DUP2 MSTORE PUSH1 0x20 ADD SWAP1 DUP2 MSTORE PUSH1 0x20 ADD PUSH1 0x0 KECCAK256 DUP2 DUP2 SLOAD DUP2 LT PUSH2 0x3C0 JUMPI PUSH2 0x3BF PUSH2 0xFA5 JUMP JUMPDEST JUMPDEST SWAP1 PUSH1 0x0 MSTORE PUSH1 0x20 PUSH1 0x0 KECCAK256 SWAP1 PUSH1 0x3 MUL ADD PUSH1 0x40 MLOAD DUP1 PUSH1 0x60 ADD PUSH1 0x40 MSTORE SWAP1 DUP2 PUSH1 0x0 DUP3 ADD SLOAD DUP2 MSTORE PUSH1 0x20 ADD PUSH1 0x1 DUP3 ADD DUP1 SLOAD PUSH2 0x3F3 SWAP1 PUSH2 0x10F7 JUMP JUMPDEST DUP1 PUSH1 0x1F ADD PUSH1 0x20 DUP1 SWAP2 DIV MUL PUSH1 0x20 ADD PUSH1 0x40 MLOAD SWAP1 DUP2 ADD PUSH1 0x40 MSTORE DUP1 SWAP3 SWAP2 SWAP1 DUP2 DUP2 MSTORE PUSH1 0x20 ADD DUP3 DUP1 SLOAD PUSH2 0x41F SWAP1 PUSH2 0x10F7 JUMP JUMPDEST DUP1 ISZERO PUSH2 0x46C JUMPI DUP1 PUSH1 0x1F LT PUSH2 0x441 JUMPI PUSH2 0x100 DUP1 DUP4 SLOAD DIV MUL DUP4 MSTORE SWAP2 PUSH1 0x20 ADD SWAP2 PUSH2 0x46C JUMP JUMPDEST DUP3 ADD SWAP2 SWAP1 PUSH1 0x0 MSTORE PUSH1 0x20 PUSH1 0x0 KECCAK256 SWAP1 JUMPDEST DUP2 SLOAD DUP2 MSTORE SWAP1 PUSH1 0x1 ADD SWAP1 PUSH1 0x20 ADD DUP1 DUP4 GT PUSH2 0x44F JUMPI DUP3 SWAP1 SUB PUSH1 0x1F AND DUP3 ADD SWAP2 JUMPDEST POP POP POP POP POP DUP2 MSTORE PUSH1 0x20 ADD PUSH1 0x2 DUP3 ADD SLOAD DUP2 MSTORE POP POP SWAP2 POP POP PUSH2 0x4D6 JUMP JUMPDEST DUP1 DUP1 PUSH2 0x492 SWAP1 PUSH2 0x1080 JUMP JUMPDEST SWAP2 POP POP PUSH2 0x2BF JUMP JUMPDEST POP PUSH1 0x40 MLOAD PUSH32 0x8C379A000000000000000000000000000000000000000000000000000000000 DUP2 MSTORE PUSH1 0x4 ADD PUSH2 0x4CD SWAP1 PUSH2 0x13F2 JUMP JUMPDEST PUSH1 0x40 MLOAD DUP1 SWAP2 SUB SWAP1 REVERT JUMPDEST SWAP2 SWAP1 POP JUMP JUMPDEST PUSH1 0x0 JUMPDEST PUSH1 0x0 DUP1 CALLER PUSH20 0xFFFFFFFFFFFFFFFFFFFFFFFFFFFFFFFFFFFFFFFF AND PUSH20 0xFFFFFFFFFFFFFFFFFFFFFFFFFFFFFFFFFFFFFFFF AND DUP2 MSTORE PUSH1 0x20 ADD SWAP1 DUP2 MSTORE PUSH1 0x20 ADD PUSH1 0x0 KECCAK256 DUP1 SLOAD SWAP1 POP DUP2 LT ISZERO PUSH2 0x764 JUMPI DUP2 PUSH1 0x0 DUP1 CALLER PUSH20 0xFFFFFFFFFFFFFFFFFFFFFFFFFFFFFFFFFFFFFFFF AND PUSH20 0xFFFFFFFFFFFFFFFFFFFFFFFFFFFFFFFFFFFFFFFF AND DUP2 MSTORE PUSH1 0x20 ADD SWAP1 DUP2 MSTORE PUSH1 0x20 ADD PUSH1 0x0 KECCAK256 DUP3 DUP2 SLOAD DUP2 LT PUSH2 0x578 JUMPI PUSH2 0x577 PUSH2 0xFA5 JUMP JUMPDEST JUMPDEST SWAP1 PUSH1 0x0 MSTORE PUSH1 0x20 PUSH1 0x0 KECCAK256 SWAP1 PUSH1 0x3 MUL ADD PUSH1 0x0 ADD SLOAD SUB PUSH2 0x751 JUMPI PUSH1 0x0 DUP1 CALLER PUSH20 0xFFFFFFFFFFFFFFFFFFFFFFFFFFFFFFFFFFFFFFFF AND PUSH20 0xFFFFFFFFFFFFFFFFFFFFFFFFFFFFFFFFFFFFFFFF AND DUP2 MSTORE PUSH1 0x20 ADD SWAP1 DUP2 MSTORE PUSH1 0x20 ADD PUSH1 0x0 KECCAK256 PUSH1 0x1 PUSH1 0x0 DUP1 CALLER PUSH20 0xFFFFFFFFFFFFFFFFFFFFFFFFFFFFFFFFFFFFFFFF AND PUSH20 0xFFFFFFFFFFFFFFFFFFFFFFFFFFFFFFFFFFFFFFFF AND DUP2 MSTORE PUSH1 0x20 ADD SWAP1 DUP2 MSTORE PUSH1 0x20 ADD PUSH1 0x0 KECCAK256 DUP1 SLOAD SWAP1 POP PUSH2 0x61B SWAP2 SWAP1 PUSH2 0x1412 JUMP JUMPDEST DUP2 SLOAD DUP2 LT PUSH2 0x62C JUMPI PUSH2 0x62B PUSH2 0xFA5 JUMP JUMPDEST JUMPDEST SWAP1 PUSH1 0x0 MSTORE PUSH1 0x20 PUSH1 0x0 KECCAK256 SWAP1 PUSH1 0x3 MUL ADD PUSH1 0x0 DUP1 CALLER PUSH20 0xFFFFFFFFFFFFFFFFFFFFFFFFFFFFFFFFFFFFFFFF AND PUSH20 0xFFFFFFFFFFFFFFFFFFFFFFFFFFFFFFFFFFFFFFFF AND DUP2 MSTORE PUSH1 0x20 ADD SWAP1 DUP2 MSTORE PUSH1 0x20 ADD PUSH1 0x0 KECCAK256 DUP3 DUP2 SLOAD DUP2 LT PUSH2 0x68A JUMPI PUSH2 0x689 PUSH2 0xFA5 JUMP JUMPDEST JUMPDEST SWAP1 PUSH1 0x0 MSTORE PUSH1 0x20 PUSH1 0x0 KECCAK256 SWAP1 PUSH1 0x3 MUL ADD PUSH1 0x0 DUP3 ADD SLOAD DUP2 PUSH1 0x0 ADD SSTORE PUSH1 0x1 DUP3 ADD DUP2 PUSH1 0x1 ADD SWAP1 DUP2 PUSH2 0x6B6 SWAP2 SWAP1 PUSH2 0x145C JUMP JUMPDEST POP PUSH1 0x2 DUP3 ADD SLOAD DUP2 PUSH1 0x2 ADD SSTORE SWAP1 POP POP PUSH1 0x0 DUP1 CALLER PUSH20 0xFFFFFFFFFFFFFFFFFFFFFFFFFFFFFFFFFFFFFFFF AND PUSH20 0xFFFFFFFFFFFFFFFFFFFFFFFFFFFFFFFFFFFFFFFF AND DUP2 MSTORE PUSH1 0x20 ADD SWAP1 DUP2 MSTORE PUSH1 0x20 ADD PUSH1 0x0 KECCAK256 DUP1 SLOAD DUP1 PUSH2 0x712 JUMPI PUSH2 0x711 PUSH2 0x1544 JUMP JUMPDEST JUMPDEST PUSH1 0x1 SWAP1 SUB DUP2 DUP2 SWAP1 PUSH1 0x0 MSTORE PUSH1 0x20 PUSH1 0x0 KECCAK256 SWAP1 PUSH1 0x3 MUL ADD PUSH1 0x0 DUP1 DUP3 ADD PUSH1 0x0 SWAP1 SSTORE PUSH1 0x1 DUP3 ADD PUSH1 0x0 PUSH2 0x73F SWAP2 SWAP1 PUSH2 0xAE8 JUMP JUMPDEST PUSH1 0x2 DUP3 ADD PUSH1 0x0 SWAP1 SSTORE POP POP SWAP1 SSTORE POP PUSH2 0x7A0 JUMP JUMPDEST DUP1 DUP1 PUSH2 0x75C SWAP1 PUSH2 0x1080 JUMP JUMPDEST SWAP2 POP POP PUSH2 0x4DE JUMP JUMPDEST POP PUSH1 0x40 MLOAD PUSH32 0x8C379A000000000000000000000000000000000000000000000000000000000 DUP2 MSTORE PUSH1 0x4 ADD PUSH2 0x797 SWAP1 PUSH2 0x13F2 JUMP JUMPDEST PUSH1 0x40 MLOAD DUP1 SWAP2 SUB SWAP1 REVERT JUMPDEST POP JUMP JUMPDEST PUSH1 0x0 JUMPDEST PUSH1 0x0 DUP1 CALLER PUSH20 0xFFFFFFFFFFFFFFFFFFFFFFFFFFFFFFFFFFFFFFFF AND PUSH20 0xFFFFFFFFFFFFFFFFFFFFFFFFFFFFFFFFFFFFFFFF AND DUP2 MSTORE PUSH1 0x20 ADD SWAP1 DUP2 MSTORE PUSH1 0x20 ADD PUSH1 0x0 KECCAK256 DUP1 SLOAD SWAP1 POP DUP2 LT ISZERO PUSH2 0x945 JUMPI DUP4 PUSH1 0x0 DUP1 CALLER PUSH20 0xFFFFFFFFFFFFFFFFFFFFFFFFFFFFFFFFFFFFFFFF AND PUSH20 0xFFFFFFFFFFFFFFFFFFFFFFFFFFFFFFFFFFFFFFFF AND DUP2 MSTORE PUSH1 0x20 ADD SWAP1 DUP2 MSTORE PUSH1 0x20 ADD PUSH1 0x0 KECCAK256 DUP3 DUP2 SLOAD DUP2 LT PUSH2 0x840 JUMPI PUSH2 0x83F PUSH2 0xFA5 JUMP JUMPDEST JUMPDEST SWAP1 PUSH1 0x0 MSTORE PUSH1 0x20 PUSH1 0x0 KECCAK256 SWAP1 PUSH1 0x3 MUL ADD PUSH1 0x0 ADD SLOAD SUB PUSH2 0x932 JUMPI DUP3 PUSH1 0x0 DUP1 CALLER PUSH20 0xFFFFFFFFFFFFFFFFFFFFFFFFFFFFFFFFFFFFFFFF AND PUSH20 0xFFFFFFFFFFFFFFFFFFFFFFFFFFFFFFFFFFFFFFFF AND DUP2 MSTORE PUSH1 0x20 ADD SWAP1 DUP2 MSTORE PUSH1 0x20 ADD PUSH1 0x0 KECCAK256 DUP3 DUP2 SLOAD DUP2 LT PUSH2 0x8A8 JUMPI PUSH2 0x8A7 PUSH2 0xFA5 JUMP JUMPDEST JUMPDEST SWAP1 PUSH1 0x0 MSTORE PUSH1 0x20 PUSH1 0x0 KECCAK256 SWAP1 PUSH1 0x3 MUL ADD PUSH1 0x1 ADD SWAP1 DUP2 PUSH2 0x8C5 SWAP2 SWAP1 PUSH2 0x12D4 JUMP JUMPDEST POP DUP2 PUSH1 0x0 DUP1 CALLER PUSH20 0xFFFFFFFFFFFFFFFFFFFFFFFFFFFFFFFFFFFFFFFF AND PUSH20 0xFFFFFFFFFFFFFFFFFFFFFFFFFFFFFFFFFFFFFFFF AND DUP2 MSTORE PUSH1 0x20 ADD SWAP1 DUP2 MSTORE PUSH1 0x20 ADD PUSH1 0x0 KECCAK256 DUP3 DUP2 SLOAD DUP2 LT PUSH2 0x917 JUMPI PUSH2 0x916 PUSH2 0xFA5 JUMP JUMPDEST JUMPDEST SWAP1 PUSH1 0x0 MSTORE PUSH1 0x20 PUSH1 0x0 KECCAK256 SWAP1 PUSH1 0x3 MUL ADD PUSH1 0x2 ADD DUP2 SWAP1 SSTORE POP POP PUSH2 0x981 JUMP JUMPDEST DUP1 DUP1 PUSH2 0x93D SWAP1 PUSH2 0x1080 JUMP JUMPDEST SWAP2 POP POP PUSH2 0x7A6 JUMP JUMPDEST POP PUSH1 0x40 MLOAD PUSH32 0x8C379A000000000000000000000000000000000000000000000000000000000 DUP2 MSTORE PUSH1 0x4 ADD PUSH2 0x978 SWAP1 PUSH2 0x13F2 JUMP JUMPDEST PUSH1 0x40 MLOAD DUP1 SWAP2 SUB SWAP1 REVERT JUMPDEST POP POP POP JUMP JUMPDEST PUSH1 0x60 PUSH1 0x0 DUP1 CALLER PUSH20 0xFFFFFFFFFFFFFFFFFFFFFFFFFFFFFFFFFFFFFFFF AND PUSH20 0xFFFFFFFFFFFFFFFFFFFFFFFFFFFFFFFFFFFFFFFF AND DUP2 MSTORE PUSH1 0x20 ADD SWAP1 DUP2 MSTORE PUSH1 0x20 ADD PUSH1 0x0 KECCAK256 DUP1 SLOAD DUP1 PUSH1 0x20 MUL PUSH1 0x20 ADD PUSH1 0x40 MLOAD SWAP1 DUP2 ADD PUSH1 0x40 MSTORE DUP1 SWAP3 SWAP2 SWAP1 DUP2 DUP2 MSTORE PUSH1 0x20 ADD PUSH1 0x0 SWAP1 JUMPDEST DUP3 DUP3 LT ISZERO PUSH2 0xABE JUMPI DUP4 DUP3 SWAP1 PUSH1 0x0 MSTORE PUSH1 0x20 PUSH1 0x0 KECCAK256 SWAP1 PUSH1 0x3 MUL ADD PUSH1 0x40 MLOAD DUP1 PUSH1 0x60 ADD PUSH1 0x40 MSTORE SWAP1 DUP2 PUSH1 0x0 DUP3 ADD SLOAD DUP2 MSTORE PUSH1 0x20 ADD PUSH1 0x1 DUP3 ADD DUP1 SLOAD PUSH2 0xA23 SWAP1 PUSH2 0x10F7 JUMP JUMPDEST DUP1 PUSH1 0x1F ADD PUSH1 0x20 DUP1 SWAP2 DIV MUL PUSH1 0x20 ADD PUSH1 0x40 MLOAD SWAP1 DUP2 ADD PUSH1 0x40 MSTORE DUP1 SWAP3 SWAP2 SWAP1 DUP2 DUP2 MSTORE PUSH1 0x20 ADD DUP3 DUP1 SLOAD PUSH2 0xA4F SWAP1 PUSH2 0x10F7 JUMP JUMPDEST DUP1 ISZERO PUSH2 0xA9C JUMPI DUP1 PUSH1 0x1F LT PUSH2 0xA71 JUMPI PUSH2 0x100 DUP1 DUP4 SLOAD DIV MUL DUP4 MSTORE SWAP2 PUSH1 0x20 ADD SWAP2 PUSH2 0xA9C JUMP JUMPDEST DUP3 ADD SWAP2 SWAP1 PUSH1 0x0 MSTORE PUSH1 0x20 PUSH1 0x0 KECCAK256 SWAP1 JUMPDEST DUP2 SLOAD DUP2 MSTORE SWAP1 PUSH1 0x1 ADD SWAP1 PUSH1 0x20 ADD DUP1 DUP4 GT PUSH2 0xA7F JUMPI DUP3 SWAP1 SUB PUSH1 0x1F AND DUP3 ADD SWAP2 JUMPDEST POP POP POP POP POP DUP2 MSTORE PUSH1 0x20 ADD PUSH1 0x2 DUP3 ADD SLOAD DUP2 MSTORE POP POP DUP2 MSTORE PUSH1 0x20 ADD SWAP1 PUSH1 0x1 ADD SWAP1 PUSH2 0x9E6 JUMP JUMPDEST POP POP POP POP SWAP1 POP SWAP1 JUMP JUMPDEST PUSH1 0x40 MLOAD DUP1 PUSH1 0x60 ADD PUSH1 0x40 MSTORE DUP1 PUSH1 0x0 DUP2 MSTORE PUSH1 0x20 ADD PUSH1 0x60 DUP2 MSTORE PUSH1 0x20 ADD PUSH1 0x0 DUP2 MSTORE POP SWAP1 JUMP JUMPDEST POP DUP1 SLOAD PUSH2 0xAF4 SWAP1 PUSH2 0x10F7 JUMP JUMPDEST PUSH1 0x0 DUP3 SSTORE DUP1 PUSH1 0x1F LT PUSH2 0xB06 JUMPI POP PUSH2 0xB25 JUMP JUMPDEST PUSH1 0x1F ADD PUSH1 0x20 SWAP1 DIV SWAP1 PUSH1 0x0 MSTORE PUSH1 0x20 PUSH1 0x0 KECCAK256 SWAP1 DUP2 ADD SWAP1 PUSH2 0xB24 SWAP2 SWAP1 PUSH2 0xB28 JUMP JUMPDEST JUMPDEST POP JUMP JUMPDEST JUMPDEST DUP1 DUP3 GT ISZERO PUSH2 0xB41 JUMPI PUSH1 0x0 DUP2 PUSH1 0x0 SWAP1 SSTORE POP PUSH1 0x1 ADD PUSH2 0xB29 JUMP JUMPDEST POP SWAP1 JUMP JUMPDEST PUSH1 0x0 PUSH1 0x40 MLOAD SWAP1 POP SWAP1 JUMP JUMPDEST PUSH1 0x0 DUP1 REVERT JUMPDEST PUSH1 0x0 DUP1 REVERT JUMPDEST PUSH1 0x0 DUP2 SWAP1 POP SWAP2 SWAP1 POP JUMP JUMPDEST PUSH2 0xB6C DUP2 PUSH2 0xB59 JUMP JUMPDEST DUP2 EQ PUSH2 0xB77 JUMPI PUSH1 0x0 DUP1 REVERT JUMPDEST POP JUMP JUMPDEST PUSH1 0x0 DUP2 CALLDATALOAD SWAP1 POP PUSH2 0xB89 DUP2 PUSH2 0xB63 JUMP JUMPDEST SWAP3 SWAP2 POP POP JUMP JUMPDEST PUSH1 0x0 DUP1 REVERT JUMPDEST PUSH1 0x0 DUP1 REVERT JUMPDEST PUSH1 0x0 PUSH1 0x1F NOT PUSH1 0x1F DUP4 ADD AND SWAP1 POP SWAP2 SWAP1 POP JUMP JUMPDEST PUSH32 0x4E487B7100000000000000000000000000000000000000000000000000000000 PUSH1 0x0 MSTORE PUSH1 0x41 PUSH1 0x4 MSTORE PUSH1 0x24 PUSH1 0x0 REVERT JUMPDEST PUSH2 0xBE2 DUP3 PUSH2 0xB99 JUMP JUMPDEST DUP2 ADD DUP2 DUP2 LT PUSH8 0xFFFFFFFFFFFFFFFF DUP3 GT OR ISZERO PUSH2 0xC01 JUMPI PUSH2 0xC00 PUSH2 0xBAA JUMP JUMPDEST JUMPDEST DUP1 PUSH1 0x40 MSTORE POP POP POP JUMP JUMPDEST PUSH1 0x0 PUSH2 0xC14 PUSH2 0xB45 JUMP JUMPDEST SWAP1 POP PUSH2 0xC20 DUP3 DUP3 PUSH2 0xBD9 JUMP JUMPDEST SWAP2 SWAP1 POP JUMP JUMPDEST PUSH1 0x0 PUSH8 0xFFFFFFFFFFFFFFFF DUP3 GT ISZERO PUSH2 0xC40 JUMPI PUSH2 0xC3F PUSH2 0xBAA JUMP JUMPDEST JUMPDEST PUSH2 0xC49 DUP3 PUSH2 0xB99 JUMP JUMPDEST SWAP1 POP PUSH1 0x20 DUP2 ADD SWAP1 POP SWAP2 SWAP1 POP JUMP JUMPDEST DUP3 DUP2 DUP4 CALLDATACOPY PUSH1 0x0 DUP4 DUP4 ADD MSTORE POP POP POP JUMP JUMPDEST PUSH1 0x0 PUSH2 0xC78 PUSH2 0xC73 DUP5 PUSH2 0xC25 JUMP JUMPDEST PUSH2 0xC0A JUMP JUMPDEST SWAP1 POP DUP3 DUP2 MSTORE PUSH1 0x20 DUP2 ADD DUP5 DUP5 DUP5 ADD GT ISZERO PUSH2 0xC94 JUMPI PUSH2 0xC93 PUSH2 0xB94 JUMP JUMPDEST JUMPDEST PUSH2 0xC9F DUP5 DUP3 DUP6 PUSH2 0xC56 JUMP JUMPDEST POP SWAP4 SWAP3 POP POP POP JUMP JUMPDEST PUSH1 0x0 DUP3 PUSH1 0x1F DUP4 ADD SLT PUSH2 0xCBC JUMPI PUSH2 0xCBB PUSH2 0xB8F JUMP JUMPDEST JUMPDEST DUP2 CALLDATALOAD PUSH2 0xCCC DUP5 DUP3 PUSH1 0x20 DUP7 ADD PUSH2 0xC65 JUMP JUMPDEST SWAP2 POP POP SWAP3 SWAP2 POP POP JUMP JUMPDEST PUSH1 0x0 DUP1 PUSH1 0x0 PUSH1 0x60 DUP5 DUP7 SUB SLT ISZERO PUSH2 0xCEE JUMPI PUSH2 0xCED PUSH2 0xB4F JUMP JUMPDEST JUMPDEST PUSH1 0x0 PUSH2 0xCFC DUP7 DUP3 DUP8 ADD PUSH2 0xB7A JUMP JUMPDEST SWAP4 POP POP PUSH1 0x20 DUP5 ADD CALLDATALOAD PUSH8 0xFFFFFFFFFFFFFFFF DUP2 GT ISZERO PUSH2 0xD1D JUMPI PUSH2 0xD1C PUSH2 0xB54 JUMP JUMPDEST JUMPDEST PUSH2 0xD29 DUP7 DUP3 DUP8 ADD PUSH2 0xCA7 JUMP JUMPDEST SWAP3 POP POP PUSH1 0x40 PUSH2 0xD3A DUP7 DUP3 DUP8 ADD PUSH2 0xB7A JUMP JUMPDEST SWAP2 POP POP SWAP3 POP SWAP3 POP SWAP3 JUMP JUMPDEST PUSH1 0x0 PUSH1 0x20 DUP3 DUP5 SUB SLT ISZERO PUSH2 0xD5A JUMPI PUSH2 0xD59 PUSH2 0xB4F JUMP JUMPDEST JUMPDEST PUSH1 0x0 PUSH2 0xD68 DUP5 DUP3 DUP6 ADD PUSH2 0xB7A JUMP JUMPDEST SWAP2 POP POP SWAP3 SWAP2 POP POP JUMP JUMPDEST PUSH2 0xD7A DUP2 PUSH2 0xB59 JUMP JUMPDEST DUP3 MSTORE POP POP JUMP JUMPDEST PUSH1 0x0 DUP2 MLOAD SWAP1 POP SWAP2 SWAP1 POP JUMP JUMPDEST PUSH1 0x0 DUP3 DUP3 MSTORE PUSH1 0x20 DUP3 ADD SWAP1 POP SWAP3 SWAP2 POP POP JUMP JUMPDEST PUSH1 0x0 JUMPDEST DUP4 DUP2 LT ISZERO PUSH2 0xDBA JUMPI DUP1 DUP3 ADD MLOAD DUP2 DUP5 ADD MSTORE PUSH1 0x20 DUP2 ADD SWAP1 POP PUSH2 0xD9F JUMP JUMPDEST PUSH1 0x0 DUP5 DUP5 ADD MSTORE POP POP POP POP JUMP JUMPDEST PUSH1 0x0 PUSH2 0xDD1 DUP3 PUSH2 0xD80 JUMP JUMPDEST PUSH2 0xDDB DUP2 DUP6 PUSH2 0xD8B JUMP JUMPDEST SWAP4 POP PUSH2 0xDEB DUP2 DUP6 PUSH1 0x20 DUP7 ADD PUSH2 0xD9C JUMP JUMPDEST PUSH2 0xDF4 DUP2 PUSH2 0xB99 JUMP JUMPDEST DUP5 ADD SWAP2 POP POP SWAP3 SWAP2 POP POP JUMP JUMPDEST PUSH1 0x0 PUSH1 0x60 DUP4 ADD PUSH1 0x0 DUP4 ADD MLOAD PUSH2 0xE17 PUSH1 0x0 DUP7 ADD DUP3 PUSH2 0xD71 JUMP JUMPDEST POP PUSH1 0x20 DUP4 ADD MLOAD DUP5 DUP3 SUB PUSH1 0x20 DUP7 ADD MSTORE PUSH2 0xE2F DUP3 DUP3 PUSH2 0xDC6 JUMP JUMPDEST SWAP2 POP POP PUSH1 0x40 DUP4 ADD MLOAD PUSH2 0xE44 PUSH1 0x40 DUP7 ADD DUP3 PUSH2 0xD71 JUMP JUMPDEST POP DUP1 SWAP2 POP POP SWAP3 SWAP2 POP POP JUMP JUMPDEST PUSH1 0x0 PUSH1 0x20 DUP3 ADD SWAP1 POP DUP2 DUP2 SUB PUSH1 0x0 DUP4 ADD MSTORE PUSH2 0xE69 DUP2 DUP5 PUSH2 0xDFF JUMP JUMPDEST SWAP1 POP SWAP3 SWAP2 POP POP JUMP JUMPDEST PUSH1 0x0 DUP2 MLOAD SWAP1 POP SWAP2 SWAP1 POP JUMP JUMPDEST PUSH1 0x0 DUP3 DUP3 MSTORE PUSH1 0x20 DUP3 ADD SWAP1 POP SWAP3 SWAP2 POP POP JUMP JUMPDEST PUSH1 0x0 DUP2 SWAP1 POP PUSH1 0x20 DUP3 ADD SWAP1 POP SWAP2 SWAP1 POP JUMP JUMPDEST PUSH1 0x0 PUSH1 0x60 DUP4 ADD PUSH1 0x0 DUP4 ADD MLOAD PUSH2 0xEB5 PUSH1 0x0 DUP7 ADD DUP3 PUSH2 0xD71 JUMP JUMPDEST POP PUSH1 0x20 DUP4 ADD MLOAD DUP5 DUP3 SUB PUSH1 0x20 DUP7 ADD MSTORE PUSH2 0xECD DUP3 DUP3 PUSH2 0xDC6 JUMP JUMPDEST SWAP2 POP POP PUSH1 0x40 DUP4 ADD MLOAD PUSH2 0xEE2 PUSH1 0x40 DUP7 ADD DUP3 PUSH2 0xD71 JUMP JUMPDEST POP DUP1 SWAP2 POP POP SWAP3 SWAP2 POP POP JUMP JUMPDEST PUSH1 0x0 PUSH2 0xEF9 DUP4 DUP4 PUSH2 0xE9D JUMP JUMPDEST SWAP1 POP SWAP3 SWAP2 POP POP JUMP JUMPDEST PUSH1 0x0 PUSH1 0x20 DUP3 ADD SWAP1 POP SWAP2 SWAP1 POP JUMP JUMPDEST PUSH1 0x0 PUSH2 0xF19 DUP3 PUSH2 0xE71 JUMP JUMPDEST PUSH2 0xF23 DUP2 DUP6 PUSH2 0xE7C JUMP JUMPDEST SWAP4 POP DUP4 PUSH1 0x20 DUP3 MUL DUP6 ADD PUSH2 0xF35 DUP6 PUSH2 0xE8D JUMP JUMPDEST DUP1 PUSH1 0x0 JUMPDEST DUP6 DUP2 LT ISZERO PUSH2 0xF71 JUMPI DUP5 DUP5 SUB DUP10 MSTORE DUP2 MLOAD PUSH2 0xF52 DUP6 DUP3 PUSH2 0xEED JUMP JUMPDEST SWAP5 POP PUSH2 0xF5D DUP4 PUSH2 0xF01 JUMP JUMPDEST SWAP3 POP PUSH1 0x20 DUP11 ADD SWAP10 POP POP PUSH1 0x1 DUP2 ADD SWAP1 POP PUSH2 0xF39 JUMP JUMPDEST POP DUP3 SWAP8 POP DUP8 SWAP6 POP POP POP POP POP POP SWAP3 SWAP2 POP POP JUMP JUMPDEST PUSH1 0x0 PUSH1 0x20 DUP3 ADD SWAP1 POP DUP2 DUP2 SUB PUSH1 0x0 DUP4 ADD MSTORE PUSH2 0xF9D DUP2 DUP5 PUSH2 0xF0E JUMP JUMPDEST SWAP1 POP SWAP3 SWAP2 POP POP JUMP JUMPDEST PUSH32 0x4E487B7100000000000000000000000000000000000000000000000000000000 PUSH1 0x0 MSTORE PUSH1 0x32 PUSH1 0x4 MSTORE PUSH1 0x24 PUSH1 0x0 REVERT JUMPDEST PUSH1 0x0 DUP3 DUP3 MSTORE PUSH1 0x20 DUP3 ADD SWAP1 POP SWAP3 SWAP2 POP POP JUMP JUMPDEST PUSH32 0x494420616C726561647920657869737473000000000000000000000000000000 PUSH1 0x0 DUP3 ADD MSTORE POP JUMP JUMPDEST PUSH1 0x0 PUSH2 0x101B PUSH1 0x11 DUP4 PUSH2 0xFD4 JUMP JUMPDEST SWAP2 POP PUSH2 0x1026 DUP3 PUSH2 0xFE5 JUMP JUMPDEST PUSH1 0x20 DUP3 ADD SWAP1 POP SWAP2 SWAP1 POP JUMP JUMPDEST PUSH1 0x0 PUSH1 0x20 DUP3 ADD SWAP1 POP DUP2 DUP2 SUB PUSH1 0x0 DUP4 ADD MSTORE PUSH2 0x104A DUP2 PUSH2 0x100E JUMP JUMPDEST SWAP1 POP SWAP2 SWAP1 POP JUMP JUMPDEST PUSH32 0x4E487B7100000000000000000000000000000000000000000000000000000000 PUSH1 0x0 MSTORE PUSH1 0x11 PUSH1 0x4 MSTORE PUSH1 0x24 PUSH1 0x0 REVERT JUMPDEST PUSH1 0x0 PUSH2 0x108B DUP3 PUSH2 0xB59 JUMP JUMPDEST SWAP2 POP PUSH32 0xFFFFFFFFFFFFFFFFFFFFFFFFFFFFFFFFFFFFFFFFFFFFFFFFFFFFFFFFFFFFFFFF DUP3 SUB PUSH2 0x10BD JUMPI PUSH2 0x10BC PUSH2 0x1051 JUMP JUMPDEST JUMPDEST PUSH1 0x1 DUP3 ADD SWAP1 POP SWAP2 SWAP1 POP JUMP JUMPDEST PUSH32 0x4E487B7100000000000000000000000000000000000000000000000000000000 PUSH1 0x0 MSTORE PUSH1 0x22 PUSH1 0x4 MSTORE PUSH1 0x24 PUSH1 0x0 REVERT JUMPDEST PUSH1 0x0 PUSH1 0x2 DUP3 DIV SWAP1 POP PUSH1 0x1 DUP3 AND DUP1 PUSH2 0x110F JUMPI PUSH1 0x7F DUP3 AND SWAP2 POP JUMPDEST PUSH1 0x20 DUP3 LT DUP2 SUB PUSH2 0x1122 JUMPI PUSH2 0x1121 PUSH2 0x10C8 JUMP JUMPDEST JUMPDEST POP SWAP2 SWAP1 POP JUMP JUMPDEST PUSH1 0x0 DUP2 SWAP1 POP DUP2 PUSH1 0x0 MSTORE PUSH1 0x20 PUSH1 0x0 KECCAK256 SWAP1 POP SWAP2 SWAP1 POP JUMP JUMPDEST PUSH1 0x0 PUSH1 0x20 PUSH1 0x1F DUP4 ADD DIV SWAP1 POP SWAP2 SWAP1 POP JUMP JUMPDEST PUSH1 0x0 DUP3 DUP3 SHL SWAP1 POP SWAP3 SWAP2 POP POP JUMP JUMPDEST PUSH1 0x0 PUSH1 0x8 DUP4 MUL PUSH2 0x118A PUSH32 0xFFFFFFFFFFFFFFFFFFFFFFFFFFFFFFFFFFFFFFFFFFFFFFFFFFFFFFFFFFFFFFFF DUP3 PUSH2 0x114D JUMP JUMPDEST PUSH2 0x1194 DUP7 DUP4 PUSH2 0x114D JUMP JUMPDEST SWAP6 POP DUP1 NOT DUP5 AND SWAP4 POP DUP1 DUP7 AND DUP5 OR SWAP3 POP POP POP SWAP4 SWAP3 POP POP POP JUMP JUMPDEST PUSH1 0x0 DUP2 SWAP1 POP SWAP2 SWAP1 POP JUMP JUMPDEST PUSH1 0x0 PUSH2 0x11D1 PUSH2 0x11CC PUSH2 0x11C7 DUP5 PUSH2 0xB59 JUMP JUMPDEST PUSH2 0x11AC JUMP JUMPDEST PUSH2 0xB59 JUMP JUMPDEST SWAP1 POP SWAP2 SWAP1 POP JUMP JUMPDEST PUSH1 0x0 DUP2 SWAP1 POP SWAP2 SWAP1 POP JUMP JUMPDEST PUSH2 0x11EB DUP4 PUSH2 0x11B6 JUMP JUMPDEST PUSH2 0x11FF PUSH2 0x11F7 DUP3 PUSH2 0x11D8 JUMP JUMPDEST DUP5 DUP5 SLOAD PUSH2 0x115A JUMP JUMPDEST DUP3 SSTORE POP POP POP POP JUMP JUMPDEST PUSH1 0x0 SWAP1 JUMP JUMPDEST PUSH2 0x1214 PUSH2 0x1207 JUMP JUMPDEST PUSH2 0x121F DUP2 DUP5 DUP5 PUSH2 0x11E2 JUMP JUMPDEST POP POP POP JUMP JUMPDEST JUMPDEST DUP2 DUP2 LT ISZERO PUSH2 0x1243 JUMPI PUSH2 0x1238 PUSH1 0x0 DUP3 PUSH2 0x120C JUMP JUMPDEST PUSH1 0x1 DUP2 ADD SWAP1 POP PUSH2 0x1225 JUMP JUMPDEST POP POP JUMP JUMPDEST PUSH1 0x1F DUP3 GT ISZERO PUSH2 0x1288 JUMPI PUSH2 0x1259 DUP2 PUSH2 0x1128 JUMP JUMPDEST PUSH2 0x1262 DUP5 PUSH2 0x113D JUMP JUMPDEST DUP2 ADD PUSH1 0x20 DUP6 LT ISZERO PUSH2 0x1271 JUMPI DUP2 SWAP1 POP JUMPDEST PUSH2 0x1285 PUSH2 0x127D DUP6 PUSH2 0x113D JUMP JUMPDEST DUP4 ADD DUP3 PUSH2 0x1224 JUMP JUMPDEST POP POP JUMPDEST POP POP POP JUMP JUMPDEST PUSH1 0x0 DUP3 DUP3 SHR SWAP1 POP SWAP3 SWAP2 POP POP JUMP JUMPDEST PUSH1 0x0 PUSH2 0x12AB PUSH1 0x0 NOT DUP5 PUSH1 0x8 MUL PUSH2 0x128D JUMP JUMPDEST NOT DUP1 DUP4 AND SWAP2 POP POP SWAP3 SWAP2 POP POP JUMP JUMPDEST PUSH1 0x0 PUSH2 0x12C4 DUP4 DUP4 PUSH2 0x129A JUMP JUMPDEST SWAP2 POP DUP3 PUSH1 0x2 MUL DUP3 OR SWAP1 POP SWAP3 SWAP2 POP POP JUMP JUMPDEST PUSH2 0x12DD DUP3 PUSH2 0xD80 JUMP JUMPDEST PUSH8 0xFFFFFFFFFFFFFFFF DUP2 GT ISZERO PUSH2 0x12F6 JUMPI PUSH2 0x12F5 PUSH2 0xBAA JUMP JUMPDEST JUMPDEST PUSH2 0x1300 DUP3 SLOAD PUSH2 0x10F7 JUMP JUMPDEST PUSH2 0x130B DUP3 DUP3 DUP6 PUSH2 0x1247 JUMP JUMPDEST PUSH1 0x0 PUSH1 0x20 SWAP1 POP PUSH1 0x1F DUP4 GT PUSH1 0x1 DUP2 EQ PUSH2 0x133E JUMPI PUSH1 0x0 DUP5 ISZERO PUSH2 0x132C JUMPI DUP3 DUP8 ADD MLOAD SWAP1 POP JUMPDEST PUSH2 0x1336 DUP6 DUP3 PUSH2 0x12B8 JUMP JUMPDEST DUP7 SSTORE POP PUSH2 0x139E JUMP JUMPDEST PUSH1 0x1F NOT DUP5 AND PUSH2 0x134C DUP7 PUSH2 0x1128 JUMP JUMPDEST PUSH1 0x0 JUMPDEST DUP3 DUP2 LT ISZERO PUSH2 0x1374 JUMPI DUP5 DUP10 ADD MLOAD DUP3 SSTORE PUSH1 0x1 DUP3 ADD SWAP2 POP PUSH1 0x20 DUP6 ADD SWAP5 POP PUSH1 0x20 DUP2 ADD SWAP1 POP PUSH2 0x134F JUMP JUMPDEST DUP7 DUP4 LT ISZERO PUSH2 0x1391 JUMPI DUP5 DUP10 ADD MLOAD PUSH2 0x138D PUSH1 0x1F DUP10 AND DUP3 PUSH2 0x129A JUMP JUMPDEST DUP4 SSTORE POP JUMPDEST PUSH1 0x1 PUSH1 0x2 DUP9 MUL ADD DUP9 SSTORE POP POP POP JUMPDEST POP POP POP POP POP POP JUMP JUMPDEST PUSH32 0x53747564656E74206E6F7420666F756E64210000000000000000000000000000 PUSH1 0x0 DUP3 ADD MSTORE POP JUMP JUMPDEST PUSH1 0x0 PUSH2 0x13DC PUSH1 0x12 DUP4 PUSH2 0xFD4 JUMP JUMPDEST SWAP2 POP PUSH2 0x13E7 DUP3 PUSH2 0x13A6 JUMP JUMPDEST PUSH1 0x20 DUP3 ADD SWAP1 POP SWAP2 SWAP1 POP JUMP JUMPDEST PUSH1 0x0 PUSH1 0x20 DUP3 ADD SWAP1 POP DUP2 DUP2 SUB PUSH1 0x0 DUP4 ADD MSTORE PUSH2 0x140B DUP2 PUSH2 0x13CF JUMP JUMPDEST SWAP1 POP SWAP2 SWAP1 POP JUMP JUMPDEST PUSH1 0x0 PUSH2 0x141D DUP3 PUSH2 0xB59 JUMP JUMPDEST SWAP2 POP PUSH2 0x1428 DUP4 PUSH2 0xB59 JUMP JUMPDEST SWAP3 POP DUP3 DUP3 SUB SWAP1 POP DUP2 DUP2 GT ISZERO PUSH2 0x1440 JUMPI PUSH2 0x143F PUSH2 0x1051 JUMP JUMPDEST JUMPDEST SWAP3 SWAP2 POP POP JUMP JUMPDEST PUSH1 0x0 DUP2 SLOAD SWAP1 POP PUSH2 0x1455 DUP2 PUSH2 0x10F7 JUMP JUMPDEST SWAP1 POP SWAP2 SWAP1 POP JUMP JUMPDEST DUP2 DUP2 SUB PUSH2 0x146A JUMPI POP POP PUSH2 0x1542 JUMP JUMPDEST PUSH2 0x1473 DUP3 PUSH2 0x1446 JUMP JUMPDEST PUSH8 0xFFFFFFFFFFFFFFFF DUP2 GT ISZERO PUSH2 0x148C JUMPI PUSH2 0x148B PUSH2 0xBAA JUMP JUMPDEST JUMPDEST PUSH2 0x1496 DUP3 SLOAD PUSH2 0x10F7 JUMP JUMPDEST PUSH2 0x14A1 DUP3 DUP3 DUP6 PUSH2 0x1247 JUMP JUMPDEST PUSH1 0x0 PUSH1 0x1F DUP4 GT PUSH1 0x1 DUP2 EQ PUSH2 0x14D0 JUMPI PUSH1 0x0 DUP5 ISZERO PUSH2 0x14BE JUMPI DUP3 DUP8 ADD SLOAD SWAP1 POP JUMPDEST PUSH2 0x14C8 DUP6 DUP3 PUSH2 0x12B8 JUMP JUMPDEST DUP7 SSTORE POP PUSH2 0x153B JUMP JUMPDEST PUSH1 0x1F NOT DUP5 AND PUSH2 0x14DE DUP8 PUSH2 0x1128 JUMP JUMPDEST SWAP7 POP PUSH2 0x14E9 DUP7 PUSH2 0x1128 JUMP JUMPDEST PUSH1 0x0 JUMPDEST DUP3 DUP2 LT ISZERO PUSH2 0x1511 JUMPI DUP5 DUP10 ADD SLOAD DUP3 SSTORE PUSH1 0x1 DUP3 ADD SWAP2 POP PUSH1 0x1 DUP6 ADD SWAP5 POP PUSH1 0x20 DUP2 ADD SWAP1 POP PUSH2 0x14EC JUMP JUMPDEST DUP7 DUP4 LT ISZERO PUSH2 0x152E JUMPI DUP5 DUP10 ADD SLOAD PUSH2 0x152A PUSH1 0x1F DUP10 AND DUP3 PUSH2 0x129A JUMP JUMPDEST DUP4 SSTORE POP JUMPDEST PUSH1 0x1 PUSH1 0x2 DUP9 MUL ADD DUP9 SSTORE POP POP POP JUMPDEST POP POP POP POP POP POP JUMPDEST JUMP JUMPDEST PUSH32 0x4E487B7100000000000000000000000000000000000000000000000000000000 PUSH1 0x0 MSTORE PUSH1 0x31 PUSH1 0x4 MSTORE PUSH1 0x24 PUSH1 0x0 REVERT INVALID LOG2 PUSH5 0x6970667358 0x22 SLT KECCAK256 EXTCODEHASH 0xD7 0xE2 PUSH18 0x892BF03D82E63AC717022E6E60A396842AB5 PUSH27 0xC2DA28230EB1B1C17D64736F6C6343000813003300000000000000 "
				},
				"gasEstimates": {
					"creation": {
						"codeDepositCost": "1109000",
						"executionCost": "1154",
						"totalCost": "1110154"
					},
					"external": {
						"deleteStudentById(uint256)": "infinite",
						"getStudentById(uint256)": "infinite",
						"getStudents()": "infinite",
						"registerStudent(uint256,string,uint256)": "infinite",
						"updateStudent(uint256,string,uint256)": "infinite"
					}
				},
				"methodIdentifiers": {
					"deleteStudentById(uint256)": "dc3266c6",
					"getStudentById(uint256)": "c8fb0793",
					"getStudents()": "f1d064b3",
					"registerStudent(uint256,string,uint256)": "1b5c81a5",
					"updateStudent(uint256,string,uint256)": "ec7505b1"
				}
			},
			"storageLayout": {
				"storage": [
					{
						"astId": 188,
						"contract": "StudentRegistry.sol:StudentRegistry",
						"label": "students",
						"offset": 0,
						"slot": "0",
						"type": "t_mapping(t_address,t_array(t_struct(Student)182_storage)dyn_storage)"
					}
				],
				"types": {
					"t_address": {
						"encoding": "inplace",
						"label": "address",
						"numberOfBytes": "20"
					},
					"t_array(t_struct(Student)182_storage)dyn_storage": {
						"base": "t_struct(Student)182_storage",
						"encoding": "dynamic_array",
						"label": "struct StudentRegistry.Student[]",
						"numberOfBytes": "32"
					},
					"t_mapping(t_address,t_array(t_struct(Student)182_storage)dyn_storage)": {
						"encoding": "mapping",
						"key": "t_address",
						"label": "mapping(address => struct StudentRegistry.Student[])",
						"numberOfBytes": "32",
						"value": "t_array(t_struct(Student)182_storage)dyn_storage"
					},
					"t_string_storage": {
						"encoding": "bytes",
						"label": "string",
						"numberOfBytes": "32"
					},
					"t_struct(Student)182_storage": {
						"encoding": "inplace",
						"label": "struct StudentRegistry.Student",
						"members": [
							{
								"astId": 177,
								"contract": "StudentRegistry.sol:StudentRegistry",
								"label": "id",
								"offset": 0,
								"slot": "0",
								"type": "t_uint256"
							},
							{
								"astId": 179,
								"contract": "StudentRegistry.sol:StudentRegistry",
								"label": "name",
								"offset": 0,
								"slot": "1",
								"type": "t_string_storage"
							},
							{
								"astId": 181,
								"contract": "StudentRegistry.sol:StudentRegistry",
								"label": "age",
								"offset": 0,
								"slot": "2",
								"type": "t_uint256"
							}
						],
						"numberOfBytes": "96"
					},
					"t_uint256": {
						"encoding": "inplace",
						"label": "uint256",
						"numberOfBytes": "32"
					}
				}
			},
			"userdoc": {
				"kind": "user",
				"methods": {},
				"version": 1
			}
		}
	}
}