{
	"data": {
		"bytecode": {
			"linkReferences": {},
			"object": "608060405234801561001057600080fd5b50612ca2806100206000396000f3fe608060405234801561001057600080fd5b50600436106100935760003560e01c8063bef55d4711610066578063bef55d471461010f578063e0e2a3761461013f578063e95f49051461016f578063ea7c666914610179578063efbd33de1461018357610093565b806304e48bd1146100985780631aba8695146100b65780636e66302c146100d257806396f979d2146100dc575b600080fd5b6100a06101b3565b6040516100ad9190610cc9565b60405180910390f35b6100d060048036038101906100cb9190610e8c565b61035b565b005b6100da610522565b005b6100f660048036038101906100f19190610f2b565b610524565b6040516101069493929190610fc0565b60405180910390f35b61012960048036038101906101249190610f2b565b610681565b6040516101369190611092565b60405180910390f35b610159600480360381019061015491906110ad565b6106c0565b6040516101669190611160565b60405180910390f35b610177610966565b005b610181610968565b005b61019d60048036038101906101989190611182565b6109fb565b6040516101aa91906111e3565b60405180910390f35b60606001805480602002602001604051908101604052809291908181526020016000905b82821015610352578382906000526020600020906004020160405180608001604052908160008201805461020a9061122d565b80601f01602080910402602001604051908101604052809291908181526020018280546102369061122d565b80156102835780601f1061025857610100808354040283529160200191610283565b820191906000526020600020905b81548152906001019060200180831161026657829003601f168201915b5050505050815260200160018201805461029c9061122d565b80601f01602080910402602001604051908101604052809291908181526020018280546102c89061122d565b80156103155780601f106102ea57610100808354040283529160200191610315565b820191906000526020600020905b8154815290600101906020018083116102f857829003601f168201915b50505050508152602001600282015481526020016003820160009054906101000a900460ff161515151581525050815260200190600101906101d7565b50505050905090565b60005b6001805490508110156104755761042285600183815481106103835761038261125e565b5b9060005260206000209060040201600001805461039f9061122d565b80601f01602080910402602001604051908101604052809291908181526020018280546103cb9061122d565b80156104185780601f106103ed57610100808354040283529160200191610418565b820191906000526020600020905b8154815290600101906020018083116103fb57829003601f168201915b5050505050610a49565b15610462576040517f08c379a0000000000000000000000000000000000000000000000000000000008152600401610459906112d9565b60405180910390fd5b808061046d90611328565b91505061035e565b5060016040518060800160405280868152602001858152602001848152602001831515815250908060018154018082558091505060019003906000526020600020906004020160009091909190915060008201518160000190816104d99190611512565b5060208201518160010190816104ef9190611512565b506040820151816002015560608201518160030160006101000a81548160ff021916908315150217905550505050505050565b565b6001818154811061053457600080fd5b90600052602060002090600402016000915090508060000180546105579061122d565b80601f01602080910402602001604051908101604052809291908181526020018280546105839061122d565b80156105d05780601f106105a5576101008083540402835291602001916105d0565b820191906000526020600020905b8154815290600101906020018083116105b357829003601f168201915b5050505050908060010180546105e59061122d565b80601f01602080910402602001604051908101604052809291908181526020018280546106119061122d565b801561065e5780601f106106335761010080835404028352916020019161065e565b820191906000526020600020905b81548152906001019060200180831161064157829003601f168201915b5050505050908060020154908060030160009054906101000a900460ff16905084565b6000818154811061069157600080fd5b906000526020600020016000915054906101000a900473ffffffffffffffffffffffffffffffffffffffff1681565b6106c8610aa2565b60005b6001805490508110156109255761078f600182815481106106ef576106ee61125e565b5b9060005260206000209060040201600001805461070b9061122d565b80601f01602080910402602001604051908101604052809291908181526020018280546107379061122d565b80156107845780601f1061075957610100808354040283529160200191610784565b820191906000526020600020905b81548152906001019060200180831161076757829003601f168201915b505050505084610a49565b1561091257600181815481106107a8576107a761125e565b5b90600052602060002090600402016040518060800160405290816000820180546107d19061122d565b80601f01602080910402602001604051908101604052809291908181526020018280546107fd9061122d565b801561084a5780601f1061081f5761010080835404028352916020019161084a565b820191906000526020600020905b81548152906001019060200180831161082d57829003601f168201915b505050505081526020016001820180546108639061122d565b80601f016020809104026020016040519081016040528092919081815260200182805461088f9061122d565b80156108dc5780601f106108b1576101008083540402835291602001916108dc565b820191906000526020600020905b8154815290600101906020018083116108bf57829003601f168201915b50505050508152602001600282015481526020016003820160009054906101000a900460ff161515151581525050915050610961565b808061091d90611328565b9150506106cb565b506040517f08c379a000000000000000000000000000000000000000000000000000000000815260040161095890611630565b60405180910390fd5b919050565b565b600060405161097690610acc565b604051809103906000f080158015610992573d6000803e3d6000fd5b5090506000819080600181540180825580915050600190039060005260206000200160009091909190916101000a81548173ffffffffffffffffffffffffffffffffffffffff021916908373ffffffffffffffffffffffffffffffffffffffff16021790555050565b60026020528160005260406000208181548110610a1757600080fd5b906000526020600020016000915091509054906101000a900473ffffffffffffffffffffffffffffffffffffffff1681565b600081604051602001610a5c919061168c565b6040516020818303038152906040528051906020012083604051602001610a83919061168c565b6040516020818303038152906040528051906020012014905092915050565b60405180608001604052806060815260200160608152602001600081526020016000151581525090565b6115c9806116a483390190565b600081519050919050565b600082825260208201905092915050565b6000819050602082019050919050565b600081519050919050565b600082825260208201905092915050565b60005b83811015610b3f578082015181840152602081019050610b24565b60008484015250505050565b6000601f19601f8301169050919050565b6000610b6782610b05565b610b718185610b10565b9350610b81818560208601610b21565b610b8a81610b4b565b840191505092915050565b6000819050919050565b610ba881610b95565b82525050565b60008115159050919050565b610bc381610bae565b82525050565b60006080830160008301518482036000860152610be68282610b5c565b91505060208301518482036020860152610c008282610b5c565b9150506040830151610c156040860182610b9f565b506060830151610c286060860182610bba565b508091505092915050565b6000610c3f8383610bc9565b905092915050565b6000602082019050919050565b6000610c5f82610ad9565b610c698185610ae4565b935083602082028501610c7b85610af5565b8060005b85811015610cb75784840389528151610c988582610c33565b9450610ca383610c47565b925060208a01995050600181019050610c7f565b50829750879550505050505092915050565b60006020820190508181036000830152610ce38184610c54565b905092915050565b6000604051905090565b600080fd5b600080fd5b600080fd5b600080fd5b7f4e487b7100000000000000000000000000000000000000000000000000000000600052604160045260246000fd5b610d4182610b4b565b810181811067ffffffffffffffff82111715610d6057610d5f610d09565b5b80604052505050565b6000610d73610ceb565b9050610d7f8282610d38565b919050565b600067ffffffffffffffff821115610d9f57610d9e610d09565b5b610da882610b4b565b9050602081019050919050565b82818337600083830152505050565b6000610dd7610dd284610d84565b610d69565b905082815260208101848484011115610df357610df2610d04565b5b610dfe848285610db5565b509392505050565b600082601f830112610e1b57610e1a610cff565b5b8135610e2b848260208601610dc4565b91505092915050565b610e3d81610b95565b8114610e4857600080fd5b50565b600081359050610e5a81610e34565b92915050565b610e6981610bae565b8114610e7457600080fd5b50565b600081359050610e8681610e60565b92915050565b60008060008060808587031215610ea657610ea5610cf5565b5b600085013567ffffffffffffffff811115610ec457610ec3610cfa565b5b610ed087828801610e06565b945050602085013567ffffffffffffffff811115610ef157610ef0610cfa565b5b610efd87828801610e06565b9350506040610f0e87828801610e4b565b9250506060610f1f87828801610e77565b91505092959194509250565b600060208284031215610f4157610f40610cf5565b5b6000610f4f84828501610e4b565b91505092915050565b600082825260208201905092915050565b6000610f7482610b05565b610f7e8185610f58565b9350610f8e818560208601610b21565b610f9781610b4b565b840191505092915050565b610fab81610b95565b82525050565b610fba81610bae565b82525050565b60006080820190508181036000830152610fda8187610f69565b90508181036020830152610fee8186610f69565b9050610ffd6040830185610fa2565b61100a6060830184610fb1565b95945050505050565b600073ffffffffffffffffffffffffffffffffffffffff82169050919050565b6000819050919050565b600061105861105361104e84611013565b611033565b611013565b9050919050565b600061106a8261103d565b9050919050565b600061107c8261105f565b9050919050565b61108c81611071565b82525050565b60006020820190506110a76000830184611083565b92915050565b6000602082840312156110c3576110c2610cf5565b5b600082013567ffffffffffffffff8111156110e1576110e0610cfa565b5b6110ed84828501610e06565b91505092915050565b600060808301600083015184820360008601526111138282610b5c565b9150506020830151848203602086015261112d8282610b5c565b91505060408301516111426040860182610b9f565b5060608301516111556060860182610bba565b508091505092915050565b6000602082019050818103600083015261117a81846110f6565b905092915050565b6000806040838503121561119957611198610cf5565b5b60006111a785828601610e4b565b92505060206111b885828601610e4b565b9150509250929050565b60006111cd82611013565b9050919050565b6111dd816111c2565b82525050565b60006020820190506111f860008301846111d4565b92915050565b7f4e487b7100000000000000000000000000000000000000000000000000000000600052602260045260246000fd5b6000600282049050600182168061124557607f821691505b602082108103611258576112576111fe565b5b50919050565b7f4e487b7100000000000000000000000000000000000000000000000000000000600052603260045260246000fd5b7f436f7572736520616c7265616479206578697374730000000000000000000000600082015250565b60006112c3601583610f58565b91506112ce8261128d565b602082019050919050565b600060208201905081810360008301526112f2816112b6565b9050919050565b7f4e487b7100000000000000000000000000000000000000000000000000000000600052601160045260246000fd5b600061133382610b95565b91507fffffffffffffffffffffffffffffffffffffffffffffffffffffffffffffffff8203611365576113646112f9565b5b600182019050919050565b60008190508160005260206000209050919050565b60006020601f8301049050919050565b600082821b905092915050565b6000600883026113d27fffffffffffffffffffffffffffffffffffffffffffffffffffffffffffffffff82611395565b6113dc8683611395565b95508019841693508086168417925050509392505050565b600061140f61140a61140584610b95565b611033565b610b95565b9050919050565b6000819050919050565b611429836113f4565b61143d61143582611416565b8484546113a2565b825550505050565b600090565b611452611445565b61145d818484611420565b505050565b5b818110156114815761147660008261144a565b600181019050611463565b5050565b601f8211156114c65761149781611370565b6114a084611385565b810160208510156114af578190505b6114c36114bb85611385565b830182611462565b50505b505050565b600082821c905092915050565b60006114e9600019846008026114cb565b1980831691505092915050565b600061150283836114d8565b9150826002028217905092915050565b61151b82610b05565b67ffffffffffffffff81111561153457611533610d09565b5b61153e825461122d565b611549828285611485565b600060209050601f83116001811461157c576000841561156a578287015190505b61157485826114f6565b8655506115dc565b601f19841661158a86611370565b60005b828110156115b25784890151825560018201915060208501945060208101905061158d565b868310156115cf57848901516115cb601f8916826114d8565b8355505b6001600288020188555050505b505050505050565b7f436f75727365206e6f7420666f756e6421000000000000000000000000000000600082015250565b600061161a601183610f58565b9150611625826115e4565b602082019050919050565b600060208201905081810360008301526116498161160d565b9050919050565b600081905092915050565b600061166682610b05565b6116708185611650565b9350611680818560208601610b21565b80840191505092915050565b6000611698828461165b565b91508190509291505056fe608060405234801561001057600080fd5b506115a9806100206000396000f3fe608060405234801561001057600080fd5b50600436106100575760003560e01c80631b5c81a51461005c578063c8fb079314610078578063dc3266c6146100a8578063ec7505b1146100c4578063f1d064b3146100e0575b600080fd5b61007660048036038101906100719190610cd5565b6100fe565b005b610092600480360381019061008d9190610d44565b6102b4565b60405161009f9190610e4f565b60405180910390f35b6100c260048036038101906100bd9190610d44565b6104db565b005b6100de60048036038101906100d99190610cd5565b6107a3565b005b6100e8610986565b6040516100f59190610f83565b60405180910390f35b60005b6000803373ffffffffffffffffffffffffffffffffffffffff1673ffffffffffffffffffffffffffffffffffffffff1681526020019081526020016000208054905081101561020057836000803373ffffffffffffffffffffffffffffffffffffffff1673ffffffffffffffffffffffffffffffffffffffff168152602001908152602001600020828154811061019b5761019a610fa5565b5b906000526020600020906003020160000154036101ed576040517f08c379a00000000000000000000000000000000000000000000000000000000081526004016101e490611031565b60405180910390fd5b80806101f890611080565b915050610101565b506000803373ffffffffffffffffffffffffffffffffffffffff1673ffffffffffffffffffffffffffffffffffffffff16815260200190815260200160002060405180606001604052808581526020018481526020018381525090806001815401808255809150506001900390600052602060002090600302016000909190919091506000820151816000015560208201518160010190816102a291906112d4565b50604082015181600201555050505050565b6102bc610ac7565b60005b6000803373ffffffffffffffffffffffffffffffffffffffff1673ffffffffffffffffffffffffffffffffffffffff1681526020019081526020016000208054905081101561049a57826000803373ffffffffffffffffffffffffffffffffffffffff1673ffffffffffffffffffffffffffffffffffffffff168152602001908152602001600020828154811061035957610358610fa5565b5b90600052602060002090600302016000015403610487576000803373ffffffffffffffffffffffffffffffffffffffff1673ffffffffffffffffffffffffffffffffffffffff16815260200190815260200160002081815481106103c0576103bf610fa5565b5b9060005260206000209060030201604051806060016040529081600082015481526020016001820180546103f3906110f7565b80601f016020809104026020016040519081016040528092919081815260200182805461041f906110f7565b801561046c5780601f106104415761010080835404028352916020019161046c565b820191906000526020600020905b81548152906001019060200180831161044f57829003601f168201915b505050505081526020016002820154815250509150506104d6565b808061049290611080565b9150506102bf565b506040517f08c379a00000000000000000000000000000000000000000000000000000000081526004016104cd906113f2565b60405180910390fd5b919050565b60005b6000803373ffffffffffffffffffffffffffffffffffffffff1673ffffffffffffffffffffffffffffffffffffffff1681526020019081526020016000208054905081101561076457816000803373ffffffffffffffffffffffffffffffffffffffff1673ffffffffffffffffffffffffffffffffffffffff168152602001908152602001600020828154811061057857610577610fa5565b5b90600052602060002090600302016000015403610751576000803373ffffffffffffffffffffffffffffffffffffffff1673ffffffffffffffffffffffffffffffffffffffff16815260200190815260200160002060016000803373ffffffffffffffffffffffffffffffffffffffff1673ffffffffffffffffffffffffffffffffffffffff1681526020019081526020016000208054905061061b9190611412565b8154811061062c5761062b610fa5565b5b90600052602060002090600302016000803373ffffffffffffffffffffffffffffffffffffffff1673ffffffffffffffffffffffffffffffffffffffff168152602001908152602001600020828154811061068a57610689610fa5565b5b906000526020600020906003020160008201548160000155600182018160010190816106b6919061145c565b50600282015481600201559050506000803373ffffffffffffffffffffffffffffffffffffffff1673ffffffffffffffffffffffffffffffffffffffff16815260200190815260200160002080548061071257610711611544565b5b600190038181906000526020600020906003020160008082016000905560018201600061073f9190610ae8565b600282016000905550509055506107a0565b808061075c90611080565b9150506104de565b506040517f08c379a0000000000000000000000000000000000000000000000000000000008152600401610797906113f2565b60405180910390fd5b50565b60005b6000803373ffffffffffffffffffffffffffffffffffffffff1673ffffffffffffffffffffffffffffffffffffffff1681526020019081526020016000208054905081101561094557836000803373ffffffffffffffffffffffffffffffffffffffff1673ffffffffffffffffffffffffffffffffffffffff16815260200190815260200160002082815481106108405761083f610fa5565b5b9060005260206000209060030201600001540361093257826000803373ffffffffffffffffffffffffffffffffffffffff1673ffffffffffffffffffffffffffffffffffffffff16815260200190815260200160002082815481106108a8576108a7610fa5565b5b906000526020600020906003020160010190816108c591906112d4565b50816000803373ffffffffffffffffffffffffffffffffffffffff1673ffffffffffffffffffffffffffffffffffffffff168152602001908152602001600020828154811061091757610916610fa5565b5b90600052602060002090600302016002018190555050610981565b808061093d90611080565b9150506107a6565b506040517f08c379a0000000000000000000000000000000000000000000000000000000008152600401610978906113f2565b60405180910390fd5b505050565b60606000803373ffffffffffffffffffffffffffffffffffffffff1673ffffffffffffffffffffffffffffffffffffffff168152602001908152602001600020805480602002602001604051908101604052809291908181526020016000905b82821015610abe578382906000526020600020906003020160405180606001604052908160008201548152602001600182018054610a23906110f7565b80601f0160208091040260200160405190810160405280929190818152602001828054610a4f906110f7565b8015610a9c5780601f10610a7157610100808354040283529160200191610a9c565b820191906000526020600020905b815481529060010190602001808311610a7f57829003601f168201915b50505050508152602001600282015481525050815260200190600101906109e6565b50505050905090565b60405180606001604052806000815260200160608152602001600081525090565b508054610af4906110f7565b6000825580601f10610b065750610b25565b601f016020900490600052602060002090810190610b249190610b28565b5b50565b5b80821115610b41576000816000905550600101610b29565b5090565b6000604051905090565b600080fd5b600080fd5b6000819050919050565b610b6c81610b59565b8114610b7757600080fd5b50565b600081359050610b8981610b63565b92915050565b600080fd5b600080fd5b6000601f19601f8301169050919050565b7f4e487b7100000000000000000000000000000000000000000000000000000000600052604160045260246000fd5b610be282610b99565b810181811067ffffffffffffffff82111715610c0157610c00610baa565b5b80604052505050565b6000610c14610b45565b9050610c208282610bd9565b919050565b600067ffffffffffffffff821115610c4057610c3f610baa565b5b610c4982610b99565b9050602081019050919050565b82818337600083830152505050565b6000610c78610c7384610c25565b610c0a565b905082815260208101848484011115610c9457610c93610b94565b5b610c9f848285610c56565b509392505050565b600082601f830112610cbc57610cbb610b8f565b5b8135610ccc848260208601610c65565b91505092915050565b600080600060608486031215610cee57610ced610b4f565b5b6000610cfc86828701610b7a565b935050602084013567ffffffffffffffff811115610d1d57610d1c610b54565b5b610d2986828701610ca7565b9250506040610d3a86828701610b7a565b9150509250925092565b600060208284031215610d5a57610d59610b4f565b5b6000610d6884828501610b7a565b91505092915050565b610d7a81610b59565b82525050565b600081519050919050565b600082825260208201905092915050565b60005b83811015610dba578082015181840152602081019050610d9f565b60008484015250505050565b6000610dd182610d80565b610ddb8185610d8b565b9350610deb818560208601610d9c565b610df481610b99565b840191505092915050565b6000606083016000830151610e176000860182610d71565b5060208301518482036020860152610e2f8282610dc6565b9150506040830151610e446040860182610d71565b508091505092915050565b60006020820190508181036000830152610e698184610dff565b905092915050565b600081519050919050565b600082825260208201905092915050565b6000819050602082019050919050565b6000606083016000830151610eb56000860182610d71565b5060208301518482036020860152610ecd8282610dc6565b9150506040830151610ee26040860182610d71565b508091505092915050565b6000610ef98383610e9d565b905092915050565b6000602082019050919050565b6000610f1982610e71565b610f238185610e7c565b935083602082028501610f3585610e8d565b8060005b85811015610f715784840389528151610f528582610eed565b9450610f5d83610f01565b925060208a01995050600181019050610f39565b50829750879550505050505092915050565b60006020820190508181036000830152610f9d8184610f0e565b905092915050565b7f4e487b7100000000000000000000000000000000000000000000000000000000600052603260045260246000fd5b600082825260208201905092915050565b7f494420616c726561647920657869737473000000000000000000000000000000600082015250565b600061101b601183610fd4565b915061102682610fe5565b602082019050919050565b6000602082019050818103600083015261104a8161100e565b9050919050565b7f4e487b7100000000000000000000000000000000000000000000000000000000600052601160045260246000fd5b600061108b82610b59565b91507fffffffffffffffffffffffffffffffffffffffffffffffffffffffffffffffff82036110bd576110bc611051565b5b600182019050919050565b7f4e487b7100000000000000000000000000000000000000000000000000000000600052602260045260246000fd5b6000600282049050600182168061110f57607f821691505b602082108103611122576111216110c8565b5b50919050565b60008190508160005260206000209050919050565b60006020601f8301049050919050565b600082821b905092915050565b60006008830261118a7fffffffffffffffffffffffffffffffffffffffffffffffffffffffffffffffff8261114d565b611194868361114d565b95508019841693508086168417925050509392505050565b6000819050919050565b60006111d16111cc6111c784610b59565b6111ac565b610b59565b9050919050565b6000819050919050565b6111eb836111b6565b6111ff6111f7826111d8565b84845461115a565b825550505050565b600090565b611214611207565b61121f8184846111e2565b505050565b5b818110156112435761123860008261120c565b600181019050611225565b5050565b601f8211156112885761125981611128565b6112628461113d565b81016020851015611271578190505b61128561127d8561113d565b830182611224565b50505b505050565b600082821c905092915050565b60006112ab6000198460080261128d565b1980831691505092915050565b60006112c4838361129a565b9150826002028217905092915050565b6112dd82610d80565b67ffffffffffffffff8111156112f6576112f5610baa565b5b61130082546110f7565b61130b828285611247565b600060209050601f83116001811461133e576000841561132c578287015190505b61133685826112b8565b86555061139e565b601f19841661134c86611128565b60005b828110156113745784890151825560018201915060208501945060208101905061134f565b86831015611391578489015161138d601f89168261129a565b8355505b6001600288020188555050505b505050505050565b7f53747564656e74206e6f7420666f756e64210000000000000000000000000000600082015250565b60006113dc601283610fd4565b91506113e7826113a6565b602082019050919050565b6000602082019050818103600083015261140b816113cf565b9050919050565b600061141d82610b59565b915061142883610b59565b92508282039050818111156114405761143f611051565b5b92915050565b600081549050611455816110f7565b9050919050565b81810361146a575050611542565b61147382611446565b67ffffffffffffffff81111561148c5761148b610baa565b5b61149682546110f7565b6114a1828285611247565b6000601f8311600181146114d057600084156114be578287015490505b6114c885826112b8565b86555061153b565b601f1984166114de87611128565b96506114e986611128565b60005b82811015611511578489015482556001820191506001850194506020810190506114ec565b8683101561152e578489015461152a601f89168261129a565b8355505b6001600288020188555050505b5050505050505b565b7f4e487b7100000000000000000000000000000000000000000000000000000000600052603160045260246000fdfea26469706673582212203fd7e271892bf03d82e63ac717022e6e60a396842ab57ac2da28230eb1b1c17d64736f6c63430008130033a26469706673582212200dcb9707ed164b17a2e5b79facaf5807dc1eece1c2a22731ec5ddca015dc87d764736f6c63430008130033",
			"opcodes": "PUSH1 0x80 PUSH1 0x40 MSTORE CALLVALUE DUP1 ISZERO PUSH2 0x10 JUMPI PUSH1 0x0 DUP1 REVERT JUMPDEST POP PUSH2 0x2CA2 DUP1 PUSH2 0x20 PUSH1 0x0 CODECOPY PUSH1 0x0 RETURN INVALID PUSH1 0x80 PUSH1 0x40 MSTORE CALLVALUE DUP1 ISZERO PUSH2 0x10 JUMPI PUSH1 0x0 DUP1 REVERT JUMPDEST POP PUSH1 0x4 CALLDATASIZE LT PUSH2 0x93 JUMPI PUSH1 0x0 CALLDATALOAD PUSH1 0xE0 SHR DUP1 PUSH4 0xBEF55D47 GT PUSH2 0x66 JUMPI DUP1 PUSH4 0xBEF55D47 EQ PUSH2 0x10F JUMPI DUP1 PUSH4 0xE0E2A376 EQ PUSH2 0x13F JUMPI DUP1 PUSH4 0xE95F4905 EQ PUSH2 0x16F JUMPI DUP1 PUSH4 0xEA7C6669 EQ PUSH2 0x179 JUMPI DUP1 PUSH4 0xEFBD33DE EQ PUSH2 0x183 JUMPI PUSH2 0x93 JUMP JUMPDEST DUP1 PUSH4 0x4E48BD1 EQ PUSH2 0x98 JUMPI DUP1 PUSH4 0x1ABA8695 EQ PUSH2 0xB6 JUMPI DUP1 PUSH4 0x6E66302C EQ PUSH2 0xD2 JUMPI DUP1 PUSH4 0x96F979D2 EQ PUSH2 0xDC JUMPI JUMPDEST PUSH1 0x0 DUP1 REVERT JUMPDEST PUSH2 0xA0 PUSH2 0x1B3 JUMP JUMPDEST PUSH1 0x40 MLOAD PUSH2 0xAD SWAP2 SWAP1 PUSH2 0xCC9 JUMP JUMPDEST PUSH1 0x40 MLOAD DUP1 SWAP2 SUB SWAP1 RETURN JUMPDEST PUSH2 0xD0 PUSH1 0x4 DUP1 CALLDATASIZE SUB DUP2 ADD SWAP1 PUSH2 0xCB SWAP2 SWAP1 PUSH2 0xE8C JUMP JUMPDEST PUSH2 0x35B JUMP JUMPDEST STOP JUMPDEST PUSH2 0xDA PUSH2 0x522 JUMP JUMPDEST STOP JUMPDEST PUSH2 0xF6 PUSH1 0x4 DUP1 CALLDATASIZE SUB DUP2 ADD SWAP1 PUSH2 0xF1 SWAP2 SWAP1 PUSH2 0xF2B JUMP JUMPDEST PUSH2 0x524 JUMP JUMPDEST PUSH1 0x40 MLOAD PUSH2 0x106 SWAP5 SWAP4 SWAP3 SWAP2 SWAP1 PUSH2 0xFC0 JUMP JUMPDEST PUSH1 0x40 MLOAD DUP1 SWAP2 SUB SWAP1 RETURN JUMPDEST PUSH2 0x129 PUSH1 0x4 DUP1 CALLDATASIZE SUB DUP2 ADD SWAP1 PUSH2 0x124 SWAP2 SWAP1 PUSH2 0xF2B JUMP JUMPDEST PUSH2 0x681 JUMP JUMPDEST PUSH1 0x40 MLOAD PUSH2 0x136 SWAP2 SWAP1 PUSH2 0x1092 JUMP JUMPDEST PUSH1 0x40 MLOAD DUP1 SWAP2 SUB SWAP1 RETURN JUMPDEST PUSH2 0x159 PUSH1 0x4 DUP1 CALLDATASIZE SUB DUP2 ADD SWAP1 PUSH2 0x154 SWAP2 SWAP1 PUSH2 0x10AD JUMP JUMPDEST PUSH2 0x6C0 JUMP JUMPDEST PUSH1 0x40 MLOAD PUSH2 0x166 SWAP2 SWAP1 PUSH2 0x1160 JUMP JUMPDEST PUSH1 0x40 MLOAD DUP1 SWAP2 SUB SWAP1 RETURN JUMPDEST PUSH2 0x177 PUSH2 0x966 JUMP JUMPDEST STOP JUMPDEST PUSH2 0x181 PUSH2 0x968 JUMP JUMPDEST STOP JUMPDEST PUSH2 0x19D PUSH1 0x4 DUP1 CALLDATASIZE SUB DUP2 ADD SWAP1 PUSH2 0x198 SWAP2 SWAP1 PUSH2 0x1182 JUMP JUMPDEST PUSH2 0x9FB JUMP JUMPDEST PUSH1 0x40 MLOAD PUSH2 0x1AA SWAP2 SWAP1 PUSH2 0x11E3 JUMP JUMPDEST PUSH1 0x40 MLOAD DUP1 SWAP2 SUB SWAP1 RETURN JUMPDEST PUSH1 0x60 PUSH1 0x1 DUP1 SLOAD DUP1 PUSH1 0x20 MUL PUSH1 0x20 ADD PUSH1 0x40 MLOAD SWAP1 DUP2 ADD PUSH1 0x40 MSTORE DUP1 SWAP3 SWAP2 SWAP1 DUP2 DUP2 MSTORE PUSH1 0x20 ADD PUSH1 0x0 SWAP1 JUMPDEST DUP3 DUP3 LT ISZERO PUSH2 0x352 JUMPI DUP4 DUP3 SWAP1 PUSH1 0x0 MSTORE PUSH1 0x20 PUSH1 0x0 KECCAK256 SWAP1 PUSH1 0x4 MUL ADD PUSH1 0x40 MLOAD DUP1 PUSH1 0x80 ADD PUSH1 0x40 MSTORE SWAP1 DUP2 PUSH1 0x0 DUP3 ADD DUP1 SLOAD PUSH2 0x20A SWAP1 PUSH2 0x122D JUMP JUMPDEST DUP1 PUSH1 0x1F ADD PUSH1 0x20 DUP1 SWAP2 DIV MUL PUSH1 0x20 ADD PUSH1 0x40 MLOAD SWAP1 DUP2 ADD PUSH1 0x40 MSTORE DUP1 SWAP3 SWAP2 SWAP1 DUP2 DUP2 MSTORE PUSH1 0x20 ADD DUP3 DUP1 SLOAD PUSH2 0x236 SWAP1 PUSH2 0x122D JUMP JUMPDEST DUP1 ISZERO PUSH2 0x283 JUMPI DUP1 PUSH1 0x1F LT PUSH2 0x258 JUMPI PUSH2 0x100 DUP1 DUP4 SLOAD DIV MUL DUP4 MSTORE SWAP2 PUSH1 0x20 ADD SWAP2 PUSH2 0x283 JUMP JUMPDEST DUP3 ADD SWAP2 SWAP1 PUSH1 0x0 MSTORE PUSH1 0x20 PUSH1 0x0 KECCAK256 SWAP1 JUMPDEST DUP2 SLOAD DUP2 MSTORE SWAP1 PUSH1 0x1 ADD SWAP1 PUSH1 0x20 ADD DUP1 DUP4 GT PUSH2 0x266 JUMPI DUP3 SWAP1 SUB PUSH1 0x1F AND DUP3 ADD SWAP2 JUMPDEST POP POP POP POP POP DUP2 MSTORE PUSH1 0x20 ADD PUSH1 0x1 DUP3 ADD DUP1 SLOAD PUSH2 0x29C SWAP1 PUSH2 0x122D JUMP JUMPDEST DUP1 PUSH1 0x1F ADD PUSH1 0x20 DUP1 SWAP2 DIV MUL PUSH1 0x20 ADD PUSH1 0x40 MLOAD SWAP1 DUP2 ADD PUSH1 0x40 MSTORE DUP1 SWAP3 SWAP2 SWAP1 DUP2 DUP2 MSTORE PUSH1 0x20 ADD DUP3 DUP1 SLOAD PUSH2 0x2C8 SWAP1 PUSH2 0x122D JUMP JUMPDEST DUP1 ISZERO PUSH2 0x315 JUMPI DUP1 PUSH1 0x1F LT PUSH2 0x2EA JUMPI PUSH2 0x100 DUP1 DUP4 SLOAD DIV MUL DUP4 MSTORE SWAP2 PUSH1 0x20 ADD SWAP2 PUSH2 0x315 JUMP JUMPDEST DUP3 ADD SWAP2 SWAP1 PUSH1 0x0 MSTORE PUSH1 0x20 PUSH1 0x0 KECCAK256 SWAP1 JUMPDEST DUP2 SLOAD DUP2 MSTORE SWAP1 PUSH1 0x1 ADD SWAP1 PUSH1 0x20 ADD DUP1 DUP4 GT PUSH2 0x2F8 JUMPI DUP3 SWAP1 SUB PUSH1 0x1F AND DUP3 ADD SWAP2 JUMPDEST POP POP POP POP POP DUP2 MSTORE PUSH1 0x20 ADD PUSH1 0x2 DUP3 ADD SLOAD DUP2 MSTORE PUSH1 0x20 ADD PUSH1 0x3 DUP3 ADD PUSH1 0x0 SWAP1 SLOAD SWAP1 PUSH2 0x100 EXP SWAP1 DIV PUSH1 0xFF AND ISZERO ISZERO ISZERO ISZERO DUP2 MSTORE POP POP DUP2 MSTORE PUSH1 0x20 ADD SWAP1 PUSH1 0x1 ADD SWAP1 PUSH2 0x1D7 JUMP JUMPDEST POP POP POP POP SWAP1 POP SWAP1 JUMP JUMPDEST PUSH1 0x0 JUMPDEST PUSH1 0x1 DUP1 SLOAD SWAP1 POP DUP2 LT ISZERO PUSH2 0x475 JUMPI PUSH2 0x422 DUP6 PUSH1 0x1 DUP4 DUP2 SLOAD DUP2 LT PUSH2 0x383 JUMPI PUSH2 0x382 PUSH2 0x125E JUMP JUMPDEST JUMPDEST SWAP1 PUSH1 0x0 MSTORE PUSH1 0x20 PUSH1 0x0 KECCAK256 SWAP1 PUSH1 0x4 MUL ADD PUSH1 0x0 ADD DUP1 SLOAD PUSH2 0x39F SWAP1 PUSH2 0x122D JUMP JUMPDEST DUP1 PUSH1 0x1F ADD PUSH1 0x20 DUP1 SWAP2 DIV MUL PUSH1 0x20 ADD PUSH1 0x40 MLOAD SWAP1 DUP2 ADD PUSH1 0x40 MSTORE DUP1 SWAP3 SWAP2 SWAP1 DUP2 DUP2 MSTORE PUSH1 0x20 ADD DUP3 DUP1 SLOAD PUSH2 0x3CB SWAP1 PUSH2 0x122D JUMP JUMPDEST DUP1 ISZERO PUSH2 0x418 JUMPI DUP1 PUSH1 0x1F LT PUSH2 0x3ED JUMPI PUSH2 0x100 DUP1 DUP4 SLOAD DIV MUL DUP4 MSTORE SWAP2 PUSH1 0x20 ADD SWAP2 PUSH2 0x418 JUMP JUMPDEST DUP3 ADD SWAP2 SWAP1 PUSH1 0x0 MSTORE PUSH1 0x20 PUSH1 0x0 KECCAK256 SWAP1 JUMPDEST DUP2 SLOAD DUP2 MSTORE SWAP1 PUSH1 0x1 ADD SWAP1 PUSH1 0x20 ADD DUP1 DUP4 GT PUSH2 0x3FB JUMPI DUP3 SWAP1 SUB PUSH1 0x1F AND DUP3 ADD SWAP2 JUMPDEST POP POP POP POP POP PUSH2 0xA49 JUMP JUMPDEST ISZERO PUSH2 0x462 JUMPI PUSH1 0x40 MLOAD PUSH32 0x8C379A000000000000000000000000000000000000000000000000000000000 DUP2 MSTORE PUSH1 0x4 ADD PUSH2 0x459 SWAP1 PUSH2 0x12D9 JUMP JUMPDEST PUSH1 0x40 MLOAD DUP1 SWAP2 SUB SWAP1 REVERT JUMPDEST DUP1 DUP1 PUSH2 0x46D SWAP1 PUSH2 0x1328 JUMP JUMPDEST SWAP2 POP POP PUSH2 0x35E JUMP JUMPDEST POP PUSH1 0x1 PUSH1 0x40 MLOAD DUP1 PUSH1 0x80 ADD PUSH1 0x40 MSTORE DUP1 DUP7 DUP2 MSTORE PUSH1 0x20 ADD DUP6 DUP2 MSTORE PUSH1 0x20 ADD DUP5 DUP2 MSTORE PUSH1 0x20 ADD DUP4 ISZERO ISZERO DUP2 MSTORE POP SWAP1 DUP1 PUSH1 0x1 DUP2 SLOAD ADD DUP1 DUP3 SSTORE DUP1 SWAP2 POP POP PUSH1 0x1 SWAP1 SUB SWAP1 PUSH1 0x0 MSTORE PUSH1 0x20 PUSH1 0x0 KECCAK256 SWAP1 PUSH1 0x4 MUL ADD PUSH1 0x0 SWAP1 SWAP2 SWAP1 SWAP2 SWAP1 SWAP2 POP PUSH1 0x0 DUP3 ADD MLOAD DUP2 PUSH1 0x0 ADD SWAP1 DUP2 PUSH2 0x4D9 SWAP2 SWAP1 PUSH2 0x1512 JUMP JUMPDEST POP PUSH1 0x20 DUP3 ADD MLOAD DUP2 PUSH1 0x1 ADD SWAP1 DUP2 PUSH2 0x4EF SWAP2 SWAP1 PUSH2 0x1512 JUMP JUMPDEST POP PUSH1 0x40 DUP3 ADD MLOAD DUP2 PUSH1 0x2 ADD SSTORE PUSH1 0x60 DUP3 ADD MLOAD DUP2 PUSH1 0x3 ADD PUSH1 0x0 PUSH2 0x100 EXP DUP2 SLOAD DUP2 PUSH1 0xFF MUL NOT AND SWAP1 DUP4 ISZERO ISZERO MUL OR SWAP1 SSTORE POP POP POP POP POP POP POP JUMP JUMPDEST JUMP JUMPDEST PUSH1 0x1 DUP2 DUP2 SLOAD DUP2 LT PUSH2 0x534 JUMPI PUSH1 0x0 DUP1 REVERT JUMPDEST SWAP1 PUSH1 0x0 MSTORE PUSH1 0x20 PUSH1 0x0 KECCAK256 SWAP1 PUSH1 0x4 MUL ADD PUSH1 0x0 SWAP2 POP SWAP1 POP DUP1 PUSH1 0x0 ADD DUP1 SLOAD PUSH2 0x557 SWAP1 PUSH2 0x122D JUMP JUMPDEST DUP1 PUSH1 0x1F ADD PUSH1 0x20 DUP1 SWAP2 DIV MUL PUSH1 0x20 ADD PUSH1 0x40 MLOAD SWAP1 DUP2 ADD PUSH1 0x40 MSTORE DUP1 SWAP3 SWAP2 SWAP1 DUP2 DUP2 MSTORE PUSH1 0x20 ADD DUP3 DUP1 SLOAD PUSH2 0x583 SWAP1 PUSH2 0x122D JUMP JUMPDEST DUP1 ISZERO PUSH2 0x5D0 JUMPI DUP1 PUSH1 0x1F LT PUSH2 0x5A5 JUMPI PUSH2 0x100 DUP1 DUP4 SLOAD DIV MUL DUP4 MSTORE SWAP2 PUSH1 0x20 ADD SWAP2 PUSH2 0x5D0 JUMP JUMPDEST DUP3 ADD SWAP2 SWAP1 PUSH1 0x0 MSTORE PUSH1 0x20 PUSH1 0x0 KECCAK256 SWAP1 JUMPDEST DUP2 SLOAD DUP2 MSTORE SWAP1 PUSH1 0x1 ADD SWAP1 PUSH1 0x20 ADD DUP1 DUP4 GT PUSH2 0x5B3 JUMPI DUP3 SWAP1 SUB PUSH1 0x1F AND DUP3 ADD SWAP2 JUMPDEST POP POP POP POP POP SWAP1 DUP1 PUSH1 0x1 ADD DUP1 SLOAD PUSH2 0x5E5 SWAP1 PUSH2 0x122D JUMP JUMPDEST DUP1 PUSH1 0x1F ADD PUSH1 0x20 DUP1 SWAP2 DIV MUL PUSH1 0x20 ADD PUSH1 0x40 MLOAD SWAP1 DUP2 ADD PUSH1 0x40 MSTORE DUP1 SWAP3 SWAP2 SWAP1 DUP2 DUP2 MSTORE PUSH1 0x20 ADD DUP3 DUP1 SLOAD PUSH2 0x611 SWAP1 PUSH2 0x122D JUMP JUMPDEST DUP1 ISZERO PUSH2 0x65E JUMPI DUP1 PUSH1 0x1F LT PUSH2 0x633 JUMPI PUSH2 0x100 DUP1 DUP4 SLOAD DIV MUL DUP4 MSTORE SWAP2 PUSH1 0x20 ADD SWAP2 PUSH2 0x65E JUMP JUMPDEST DUP3 ADD SWAP2 SWAP1 PUSH1 0x0 MSTORE PUSH1 0x20 PUSH1 0x0 KECCAK256 SWAP1 JUMPDEST DUP2 SLOAD DUP2 MSTORE SWAP1 PUSH1 0x1 ADD SWAP1 PUSH1 0x20 ADD DUP1 DUP4 GT PUSH2 0x641 JUMPI DUP3 SWAP1 SUB PUSH1 0x1F AND DUP3 ADD SWAP2 JUMPDEST POP POP POP POP POP SWAP1 DUP1 PUSH1 0x2 ADD SLOAD SWAP1 DUP1 PUSH1 0x3 ADD PUSH1 0x0 SWAP1 SLOAD SWAP1 PUSH2 0x100 EXP SWAP1 DIV PUSH1 0xFF AND SWAP1 POP DUP5 JUMP JUMPDEST PUSH1 0x0 DUP2 DUP2 SLOAD DUP2 LT PUSH2 0x691 JUMPI PUSH1 0x0 DUP1 REVERT JUMPDEST SWAP1 PUSH1 0x0 MSTORE PUSH1 0x20 PUSH1 0x0 KECCAK256 ADD PUSH1 0x0 SWAP2 POP SLOAD SWAP1 PUSH2 0x100 EXP SWAP1 DIV PUSH20 0xFFFFFFFFFFFFFFFFFFFFFFFFFFFFFFFFFFFFFFFF AND DUP2 JUMP JUMPDEST PUSH2 0x6C8 PUSH2 0xAA2 JUMP JUMPDEST PUSH1 0x0 JUMPDEST PUSH1 0x1 DUP1 SLOAD SWAP1 POP DUP2 LT ISZERO PUSH2 0x925 JUMPI PUSH2 0x78F PUSH1 0x1 DUP3 DUP2 SLOAD DUP2 LT PUSH2 0x6EF JUMPI PUSH2 0x6EE PUSH2 0x125E JUMP JUMPDEST JUMPDEST SWAP1 PUSH1 0x0 MSTORE PUSH1 0x20 PUSH1 0x0 KECCAK256 SWAP1 PUSH1 0x4 MUL ADD PUSH1 0x0 ADD DUP1 SLOAD PUSH2 0x70B SWAP1 PUSH2 0x122D JUMP JUMPDEST DUP1 PUSH1 0x1F ADD PUSH1 0x20 DUP1 SWAP2 DIV MUL PUSH1 0x20 ADD PUSH1 0x40 MLOAD SWAP1 DUP2 ADD PUSH1 0x40 MSTORE DUP1 SWAP3 SWAP2 SWAP1 DUP2 DUP2 MSTORE PUSH1 0x20 ADD DUP3 DUP1 SLOAD PUSH2 0x737 SWAP1 PUSH2 0x122D JUMP JUMPDEST DUP1 ISZERO PUSH2 0x784 JUMPI DUP1 PUSH1 0x1F LT PUSH2 0x759 JUMPI PUSH2 0x100 DUP1 DUP4 SLOAD DIV MUL DUP4 MSTORE SWAP2 PUSH1 0x20 ADD SWAP2 PUSH2 0x784 JUMP JUMPDEST DUP3 ADD SWAP2 SWAP1 PUSH1 0x0 MSTORE PUSH1 0x20 PUSH1 0x0 KECCAK256 SWAP1 JUMPDEST DUP2 SLOAD DUP2 MSTORE SWAP1 PUSH1 0x1 ADD SWAP1 PUSH1 0x20 ADD DUP1 DUP4 GT PUSH2 0x767 JUMPI DUP3 SWAP1 SUB PUSH1 0x1F AND DUP3 ADD SWAP2 JUMPDEST POP POP POP POP POP DUP5 PUSH2 0xA49 JUMP JUMPDEST ISZERO PUSH2 0x912 JUMPI PUSH1 0x1 DUP2 DUP2 SLOAD DUP2 LT PUSH2 0x7A8 JUMPI PUSH2 0x7A7 PUSH2 0x125E JUMP JUMPDEST JUMPDEST SWAP1 PUSH1 0x0 MSTORE PUSH1 0x20 PUSH1 0x0 KECCAK256 SWAP1 PUSH1 0x4 MUL ADD PUSH1 0x40 MLOAD DUP1 PUSH1 0x80 ADD PUSH1 0x40 MSTORE SWAP1 DUP2 PUSH1 0x0 DUP3 ADD DUP1 SLOAD PUSH2 0x7D1 SWAP1 PUSH2 0x122D JUMP JUMPDEST DUP1 PUSH1 0x1F ADD PUSH1 0x20 DUP1 SWAP2 DIV MUL PUSH1 0x20 ADD PUSH1 0x40 MLOAD SWAP1 DUP2 ADD PUSH1 0x40 MSTORE DUP1 SWAP3 SWAP2 SWAP1 DUP2 DUP2 MSTORE PUSH1 0x20 ADD DUP3 DUP1 SLOAD PUSH2 0x7FD SWAP1 PUSH2 0x122D JUMP JUMPDEST DUP1 ISZERO PUSH2 0x84A JUMPI DUP1 PUSH1 0x1F LT PUSH2 0x81F JUMPI PUSH2 0x100 DUP1 DUP4 SLOAD DIV MUL DUP4 MSTORE SWAP2 PUSH1 0x20 ADD SWAP2 PUSH2 0x84A JUMP JUMPDEST DUP3 ADD SWAP2 SWAP1 PUSH1 0x0 MSTORE PUSH1 0x20 PUSH1 0x0 KECCAK256 SWAP1 JUMPDEST DUP2 SLOAD DUP2 MSTORE SWAP1 PUSH1 0x1 ADD SWAP1 PUSH1 0x20 ADD DUP1 DUP4 GT PUSH2 0x82D JUMPI DUP3 SWAP1 SUB PUSH1 0x1F AND DUP3 ADD SWAP2 JUMPDEST POP POP POP POP POP DUP2 MSTORE PUSH1 0x20 ADD PUSH1 0x1 DUP3 ADD DUP1 SLOAD PUSH2 0x863 SWAP1 PUSH2 0x122D JUMP JUMPDEST DUP1 PUSH1 0x1F ADD PUSH1 0x20 DUP1 SWAP2 DIV MUL PUSH1 0x20 ADD PUSH1 0x40 MLOAD SWAP1 DUP2 ADD PUSH1 0x40 MSTORE DUP1 SWAP3 SWAP2 SWAP1 DUP2 DUP2 MSTORE PUSH1 0x20 ADD DUP3 DUP1 SLOAD PUSH2 0x88F SWAP1 PUSH2 0x122D JUMP JUMPDEST DUP1 ISZERO PUSH2 0x8DC JUMPI DUP1 PUSH1 0x1F LT PUSH2 0x8B1 JUMPI PUSH2 0x100 DUP1 DUP4 SLOAD DIV MUL DUP4 MSTORE SWAP2 PUSH1 0x20 ADD SWAP2 PUSH2 0x8DC JUMP JUMPDEST DUP3 ADD SWAP2 SWAP1 PUSH1 0x0 MSTORE PUSH1 0x20 PUSH1 0x0 KECCAK256 SWAP1 JUMPDEST DUP2 SLOAD DUP2 MSTORE SWAP1 PUSH1 0x1 ADD SWAP1 PUSH1 0x20 ADD DUP1 DUP4 GT PUSH2 0x8BF JUMPI DUP3 SWAP1 SUB PUSH1 0x1F AND DUP3 ADD SWAP2 JUMPDEST POP POP POP POP POP DUP2 MSTORE PUSH1 0x20 ADD PUSH1 0x2 DUP3 ADD SLOAD DUP2 MSTORE PUSH1 0x20 ADD PUSH1 0x3 DUP3 ADD PUSH1 0x0 SWAP1 SLOAD SWAP1 PUSH2 0x100 EXP SWAP1 DIV PUSH1 0xFF AND ISZERO ISZERO ISZERO ISZERO DUP2 MSTORE POP POP SWAP2 POP POP PUSH2 0x961 JUMP JUMPDEST DUP1 DUP1 PUSH2 0x91D SWAP1 PUSH2 0x1328 JUMP JUMPDEST SWAP2 POP POP PUSH2 0x6CB JUMP JUMPDEST POP PUSH1 0x40 MLOAD PUSH32 0x8C379A000000000000000000000000000000000000000000000000000000000 DUP2 MSTORE PUSH1 0x4 ADD PUSH2 0x958 SWAP1 PUSH2 0x1630 JUMP JUMPDEST PUSH1 0x40 MLOAD DUP1 SWAP2 SUB SWAP1 REVERT JUMPDEST SWAP2 SWAP1 POP JUMP JUMPDEST JUMP JUMPDEST PUSH1 0x0 PUSH1 0x40 MLOAD PUSH2 0x976 SWAP1 PUSH2 0xACC JUMP JUMPDEST PUSH1 0x40 MLOAD DUP1 SWAP2 SUB SWAP1 PUSH1 0x0 CREATE DUP1 ISZERO DUP1 ISZERO PUSH2 0x992 JUMPI RETURNDATASIZE PUSH1 0x0 DUP1 RETURNDATACOPY RETURNDATASIZE PUSH1 0x0 REVERT JUMPDEST POP SWAP1 POP PUSH1 0x0 DUP2 SWAP1 DUP1 PUSH1 0x1 DUP2 SLOAD ADD DUP1 DUP3 SSTORE DUP1 SWAP2 POP POP PUSH1 0x1 SWAP1 SUB SWAP1 PUSH1 0x0 MSTORE PUSH1 0x20 PUSH1 0x0 KECCAK256 ADD PUSH1 0x0 SWAP1 SWAP2 SWAP1 SWAP2 SWAP1 SWAP2 PUSH2 0x100 EXP DUP2 SLOAD DUP2 PUSH20 0xFFFFFFFFFFFFFFFFFFFFFFFFFFFFFFFFFFFFFFFF MUL NOT AND SWAP1 DUP4 PUSH20 0xFFFFFFFFFFFFFFFFFFFFFFFFFFFFFFFFFFFFFFFF AND MUL OR SWAP1 SSTORE POP POP JUMP JUMPDEST PUSH1 0x2 PUSH1 0x20 MSTORE DUP2 PUSH1 0x0 MSTORE PUSH1 0x40 PUSH1 0x0 KECCAK256 DUP2 DUP2 SLOAD DUP2 LT PUSH2 0xA17 JUMPI PUSH1 0x0 DUP1 REVERT JUMPDEST SWAP1 PUSH1 0x0 MSTORE PUSH1 0x20 PUSH1 0x0 KECCAK256 ADD PUSH1 0x0 SWAP2 POP SWAP2 POP SWAP1 SLOAD SWAP1 PUSH2 0x100 EXP SWAP1 DIV PUSH20 0xFFFFFFFFFFFFFFFFFFFFFFFFFFFFFFFFFFFFFFFF AND DUP2 JUMP JUMPDEST PUSH1 0x0 DUP2 PUSH1 0x40 MLOAD PUSH1 0x20 ADD PUSH2 0xA5C SWAP2 SWAP1 PUSH2 0x168C JUMP JUMPDEST PUSH1 0x40 MLOAD PUSH1 0x20 DUP2 DUP4 SUB SUB DUP2 MSTORE SWAP1 PUSH1 0x40 MSTORE DUP1 MLOAD SWAP1 PUSH1 0x20 ADD KECCAK256 DUP4 PUSH1 0x40 MLOAD PUSH1 0x20 ADD PUSH2 0xA83 SWAP2 SWAP1 PUSH2 0x168C JUMP JUMPDEST PUSH1 0x40 MLOAD PUSH1 0x20 DUP2 DUP4 SUB SUB DUP2 MSTORE SWAP1 PUSH1 0x40 MSTORE DUP1 MLOAD SWAP1 PUSH1 0x20 ADD KECCAK256 EQ SWAP1 POP SWAP3 SWAP2 POP POP JUMP JUMPDEST PUSH1 0x40 MLOAD DUP1 PUSH1 0x80 ADD PUSH1 0x40 MSTORE DUP1 PUSH1 0x60 DUP2 MSTORE PUSH1 0x20 ADD PUSH1 0x60 DUP2 MSTORE PUSH1 0x20 ADD PUSH1 0x0 DUP2 MSTORE PUSH1 0x20 ADD PUSH1 0x0 ISZERO ISZERO DUP2 MSTORE POP SWAP1 JUMP JUMPDEST PUSH2 0x15C9 DUP1 PUSH2 0x16A4 DUP4 CODECOPY ADD SWAP1 JUMP JUMPDEST PUSH1 0x0 DUP2 MLOAD SWAP1 POP SWAP2 SWAP1 POP JUMP JUMPDEST PUSH1 0x0 DUP3 DUP3 MSTORE PUSH1 0x20 DUP3 ADD SWAP1 POP SWAP3 SWAP2 POP POP JUMP JUMPDEST PUSH1 0x0 DUP2 SWAP1 POP PUSH1 0x20 DUP3 ADD SWAP1 POP SWAP2 SWAP1 POP JUMP JUMPDEST PUSH1 0x0 DUP2 MLOAD SWAP1 POP SWAP2 SWAP1 POP JUMP JUMPDEST PUSH1 0x0 DUP3 DUP3 MSTORE PUSH1 0x20 DUP3 ADD SWAP1 POP SWAP3 SWAP2 POP POP JUMP JUMPDEST PUSH1 0x0 JUMPDEST DUP4 DUP2 LT ISZERO PUSH2 0xB3F JUMPI DUP1 DUP3 ADD MLOAD DUP2 DUP5 ADD MSTORE PUSH1 0x20 DUP2 ADD SWAP1 POP PUSH2 0xB24 JUMP JUMPDEST PUSH1 0x0 DUP5 DUP5 ADD MSTORE POP POP POP POP JUMP JUMPDEST PUSH1 0x0 PUSH1 0x1F NOT PUSH1 0x1F DUP4 ADD AND SWAP1 POP SWAP2 SWAP1 POP JUMP JUMPDEST PUSH1 0x0 PUSH2 0xB67 DUP3 PUSH2 0xB05 JUMP JUMPDEST PUSH2 0xB71 DUP2 DUP6 PUSH2 0xB10 JUMP JUMPDEST SWAP4 POP PUSH2 0xB81 DUP2 DUP6 PUSH1 0x20 DUP7 ADD PUSH2 0xB21 JUMP JUMPDEST PUSH2 0xB8A DUP2 PUSH2 0xB4B JUMP JUMPDEST DUP5 ADD SWAP2 POP POP SWAP3 SWAP2 POP POP JUMP JUMPDEST PUSH1 0x0 DUP2 SWAP1 POP SWAP2 SWAP1 POP JUMP JUMPDEST PUSH2 0xBA8 DUP2 PUSH2 0xB95 JUMP JUMPDEST DUP3 MSTORE POP POP JUMP JUMPDEST PUSH1 0x0 DUP2 ISZERO ISZERO SWAP1 POP SWAP2 SWAP1 POP JUMP JUMPDEST PUSH2 0xBC3 DUP2 PUSH2 0xBAE JUMP JUMPDEST DUP3 MSTORE POP POP JUMP JUMPDEST PUSH1 0x0 PUSH1 0x80 DUP4 ADD PUSH1 0x0 DUP4 ADD MLOAD DUP5 DUP3 SUB PUSH1 0x0 DUP7 ADD MSTORE PUSH2 0xBE6 DUP3 DUP3 PUSH2 0xB5C JUMP JUMPDEST SWAP2 POP POP PUSH1 0x20 DUP4 ADD MLOAD DUP5 DUP3 SUB PUSH1 0x20 DUP7 ADD MSTORE PUSH2 0xC00 DUP3 DUP3 PUSH2 0xB5C JUMP JUMPDEST SWAP2 POP POP PUSH1 0x40 DUP4 ADD MLOAD PUSH2 0xC15 PUSH1 0x40 DUP7 ADD DUP3 PUSH2 0xB9F JUMP JUMPDEST POP PUSH1 0x60 DUP4 ADD MLOAD PUSH2 0xC28 PUSH1 0x60 DUP7 ADD DUP3 PUSH2 0xBBA JUMP JUMPDEST POP DUP1 SWAP2 POP POP SWAP3 SWAP2 POP POP JUMP JUMPDEST PUSH1 0x0 PUSH2 0xC3F DUP4 DUP4 PUSH2 0xBC9 JUMP JUMPDEST SWAP1 POP SWAP3 SWAP2 POP POP JUMP JUMPDEST PUSH1 0x0 PUSH1 0x20 DUP3 ADD SWAP1 POP SWAP2 SWAP1 POP JUMP JUMPDEST PUSH1 0x0 PUSH2 0xC5F DUP3 PUSH2 0xAD9 JUMP JUMPDEST PUSH2 0xC69 DUP2 DUP6 PUSH2 0xAE4 JUMP JUMPDEST SWAP4 POP DUP4 PUSH1 0x20 DUP3 MUL DUP6 ADD PUSH2 0xC7B DUP6 PUSH2 0xAF5 JUMP JUMPDEST DUP1 PUSH1 0x0 JUMPDEST DUP6 DUP2 LT ISZERO PUSH2 0xCB7 JUMPI DUP5 DUP5 SUB DUP10 MSTORE DUP2 MLOAD PUSH2 0xC98 DUP6 DUP3 PUSH2 0xC33 JUMP JUMPDEST SWAP5 POP PUSH2 0xCA3 DUP4 PUSH2 0xC47 JUMP JUMPDEST SWAP3 POP PUSH1 0x20 DUP11 ADD SWAP10 POP POP PUSH1 0x1 DUP2 ADD SWAP1 POP PUSH2 0xC7F JUMP JUMPDEST POP DUP3 SWAP8 POP DUP8 SWAP6 POP POP POP POP POP POP SWAP3 SWAP2 POP POP JUMP JUMPDEST PUSH1 0x0 PUSH1 0x20 DUP3 ADD SWAP1 POP DUP2 DUP2 SUB PUSH1 0x0 DUP4 ADD MSTORE PUSH2 0xCE3 DUP2 DUP5 PUSH2 0xC54 JUMP JUMPDEST SWAP1 POP SWAP3 SWAP2 POP POP JUMP JUMPDEST PUSH1 0x0 PUSH1 0x40 MLOAD SWAP1 POP SWAP1 JUMP JUMPDEST PUSH1 0x0 DUP1 REVERT JUMPDEST PUSH1 0x0 DUP1 REVERT JUMPDEST PUSH1 0x0 DUP1 REVERT JUMPDEST PUSH1 0x0 DUP1 REVERT JUMPDEST PUSH32 0x4E487B7100000000000000000000000000000000000000000000000000000000 PUSH1 0x0 MSTORE PUSH1 0x41 PUSH1 0x4 MSTORE PUSH1 0x24 PUSH1 0x0 REVERT JUMPDEST PUSH2 0xD41 DUP3 PUSH2 0xB4B JUMP JUMPDEST DUP2 ADD DUP2 DUP2 LT PUSH8 0xFFFFFFFFFFFFFFFF DUP3 GT OR ISZERO PUSH2 0xD60 JUMPI PUSH2 0xD5F PUSH2 0xD09 JUMP JUMPDEST JUMPDEST DUP1 PUSH1 0x40 MSTORE POP POP POP JUMP JUMPDEST PUSH1 0x0 PUSH2 0xD73 PUSH2 0xCEB JUMP JUMPDEST SWAP1 POP PUSH2 0xD7F DUP3 DUP3 PUSH2 0xD38 JUMP JUMPDEST SWAP2 SWAP1 POP JUMP JUMPDEST PUSH1 0x0 PUSH8 0xFFFFFFFFFFFFFFFF DUP3 GT ISZERO PUSH2 0xD9F JUMPI PUSH2 0xD9E PUSH2 0xD09 JUMP JUMPDEST JUMPDEST PUSH2 0xDA8 DUP3 PUSH2 0xB4B JUMP JUMPDEST SWAP1 POP PUSH1 0x20 DUP2 ADD SWAP1 POP SWAP2 SWAP1 POP JUMP JUMPDEST DUP3 DUP2 DUP4 CALLDATACOPY PUSH1 0x0 DUP4 DUP4 ADD MSTORE POP POP POP JUMP JUMPDEST PUSH1 0x0 PUSH2 0xDD7 PUSH2 0xDD2 DUP5 PUSH2 0xD84 JUMP JUMPDEST PUSH2 0xD69 JUMP JUMPDEST SWAP1 POP DUP3 DUP2 MSTORE PUSH1 0x20 DUP2 ADD DUP5 DUP5 DUP5 ADD GT ISZERO PUSH2 0xDF3 JUMPI PUSH2 0xDF2 PUSH2 0xD04 JUMP JUMPDEST JUMPDEST PUSH2 0xDFE DUP5 DUP3 DUP6 PUSH2 0xDB5 JUMP JUMPDEST POP SWAP4 SWAP3 POP POP POP JUMP JUMPDEST PUSH1 0x0 DUP3 PUSH1 0x1F DUP4 ADD SLT PUSH2 0xE1B JUMPI PUSH2 0xE1A PUSH2 0xCFF JUMP JUMPDEST JUMPDEST DUP2 CALLDATALOAD PUSH2 0xE2B DUP5 DUP3 PUSH1 0x20 DUP7 ADD PUSH2 0xDC4 JUMP JUMPDEST SWAP2 POP POP SWAP3 SWAP2 POP POP JUMP JUMPDEST PUSH2 0xE3D DUP2 PUSH2 0xB95 JUMP JUMPDEST DUP2 EQ PUSH2 0xE48 JUMPI PUSH1 0x0 DUP1 REVERT JUMPDEST POP JUMP JUMPDEST PUSH1 0x0 DUP2 CALLDATALOAD SWAP1 POP PUSH2 0xE5A DUP2 PUSH2 0xE34 JUMP JUMPDEST SWAP3 SWAP2 POP POP JUMP JUMPDEST PUSH2 0xE69 DUP2 PUSH2 0xBAE JUMP JUMPDEST DUP2 EQ PUSH2 0xE74 JUMPI PUSH1 0x0 DUP1 REVERT JUMPDEST POP JUMP JUMPDEST PUSH1 0x0 DUP2 CALLDATALOAD SWAP1 POP PUSH2 0xE86 DUP2 PUSH2 0xE60 JUMP JUMPDEST SWAP3 SWAP2 POP POP JUMP JUMPDEST PUSH1 0x0 DUP1 PUSH1 0x0 DUP1 PUSH1 0x80 DUP6 DUP8 SUB SLT ISZERO PUSH2 0xEA6 JUMPI PUSH2 0xEA5 PUSH2 0xCF5 JUMP JUMPDEST JUMPDEST PUSH1 0x0 DUP6 ADD CALLDATALOAD PUSH8 0xFFFFFFFFFFFFFFFF DUP2 GT ISZERO PUSH2 0xEC4 JUMPI PUSH2 0xEC3 PUSH2 0xCFA JUMP JUMPDEST JUMPDEST PUSH2 0xED0 DUP8 DUP3 DUP9 ADD PUSH2 0xE06 JUMP JUMPDEST SWAP5 POP POP PUSH1 0x20 DUP6 ADD CALLDATALOAD PUSH8 0xFFFFFFFFFFFFFFFF DUP2 GT ISZERO PUSH2 0xEF1 JUMPI PUSH2 0xEF0 PUSH2 0xCFA JUMP JUMPDEST JUMPDEST PUSH2 0xEFD DUP8 DUP3 DUP9 ADD PUSH2 0xE06 JUMP JUMPDEST SWAP4 POP POP PUSH1 0x40 PUSH2 0xF0E DUP8 DUP3 DUP9 ADD PUSH2 0xE4B JUMP JUMPDEST SWAP3 POP POP PUSH1 0x60 PUSH2 0xF1F DUP8 DUP3 DUP9 ADD PUSH2 0xE77 JUMP JUMPDEST SWAP2 POP POP SWAP3 SWAP6 SWAP2 SWAP5 POP SWAP3 POP JUMP JUMPDEST PUSH1 0x0 PUSH1 0x20 DUP3 DUP5 SUB SLT ISZERO PUSH2 0xF41 JUMPI PUSH2 0xF40 PUSH2 0xCF5 JUMP JUMPDEST JUMPDEST PUSH1 0x0 PUSH2 0xF4F DUP5 DUP3 DUP6 ADD PUSH2 0xE4B JUMP JUMPDEST SWAP2 POP POP SWAP3 SWAP2 POP POP JUMP JUMPDEST PUSH1 0x0 DUP3 DUP3 MSTORE PUSH1 0x20 DUP3 ADD SWAP1 POP SWAP3 SWAP2 POP POP JUMP JUMPDEST PUSH1 0x0 PUSH2 0xF74 DUP3 PUSH2 0xB05 JUMP JUMPDEST PUSH2 0xF7E DUP2 DUP6 PUSH2 0xF58 JUMP JUMPDEST SWAP4 POP PUSH2 0xF8E DUP2 DUP6 PUSH1 0x20 DUP7 ADD PUSH2 0xB21 JUMP JUMPDEST PUSH2 0xF97 DUP2 PUSH2 0xB4B JUMP JUMPDEST DUP5 ADD SWAP2 POP POP SWAP3 SWAP2 POP POP JUMP JUMPDEST PUSH2 0xFAB DUP2 PUSH2 0xB95 JUMP JUMPDEST DUP3 MSTORE POP POP JUMP JUMPDEST PUSH2 0xFBA DUP2 PUSH2 0xBAE JUMP JUMPDEST DUP3 MSTORE POP POP JUMP JUMPDEST PUSH1 0x0 PUSH1 0x80 DUP3 ADD SWAP1 POP DUP2 DUP2 SUB PUSH1 0x0 DUP4 ADD MSTORE PUSH2 0xFDA DUP2 DUP8 PUSH2 0xF69 JUMP JUMPDEST SWAP1 POP DUP2 DUP2 SUB PUSH1 0x20 DUP4 ADD MSTORE PUSH2 0xFEE DUP2 DUP7 PUSH2 0xF69 JUMP JUMPDEST SWAP1 POP PUSH2 0xFFD PUSH1 0x40 DUP4 ADD DUP6 PUSH2 0xFA2 JUMP JUMPDEST PUSH2 0x100A PUSH1 0x60 DUP4 ADD DUP5 PUSH2 0xFB1 JUMP JUMPDEST SWAP6 SWAP5 POP POP POP POP POP JUMP JUMPDEST PUSH1 0x0 PUSH20 0xFFFFFFFFFFFFFFFFFFFFFFFFFFFFFFFFFFFFFFFF DUP3 AND SWAP1 POP SWAP2 SWAP1 POP JUMP JUMPDEST PUSH1 0x0 DUP2 SWAP1 POP SWAP2 SWAP1 POP JUMP JUMPDEST PUSH1 0x0 PUSH2 0x1058 PUSH2 0x1053 PUSH2 0x104E DUP5 PUSH2 0x1013 JUMP JUMPDEST PUSH2 0x1033 JUMP JUMPDEST PUSH2 0x1013 JUMP JUMPDEST SWAP1 POP SWAP2 SWAP1 POP JUMP JUMPDEST PUSH1 0x0 PUSH2 0x106A DUP3 PUSH2 0x103D JUMP JUMPDEST SWAP1 POP SWAP2 SWAP1 POP JUMP JUMPDEST PUSH1 0x0 PUSH2 0x107C DUP3 PUSH2 0x105F JUMP JUMPDEST SWAP1 POP SWAP2 SWAP1 POP JUMP JUMPDEST PUSH2 0x108C DUP2 PUSH2 0x1071 JUMP JUMPDEST DUP3 MSTORE POP POP JUMP JUMPDEST PUSH1 0x0 PUSH1 0x20 DUP3 ADD SWAP1 POP PUSH2 0x10A7 PUSH1 0x0 DUP4 ADD DUP5 PUSH2 0x1083 JUMP JUMPDEST SWAP3 SWAP2 POP POP JUMP JUMPDEST PUSH1 0x0 PUSH1 0x20 DUP3 DUP5 SUB SLT ISZERO PUSH2 0x10C3 JUMPI PUSH2 0x10C2 PUSH2 0xCF5 JUMP JUMPDEST JUMPDEST PUSH1 0x0 DUP3 ADD CALLDATALOAD PUSH8 0xFFFFFFFFFFFFFFFF DUP2 GT ISZERO PUSH2 0x10E1 JUMPI PUSH2 0x10E0 PUSH2 0xCFA JUMP JUMPDEST JUMPDEST PUSH2 0x10ED DUP5 DUP3 DUP6 ADD PUSH2 0xE06 JUMP JUMPDEST SWAP2 POP POP SWAP3 SWAP2 POP POP JUMP JUMPDEST PUSH1 0x0 PUSH1 0x80 DUP4 ADD PUSH1 0x0 DUP4 ADD MLOAD DUP5 DUP3 SUB PUSH1 0x0 DUP7 ADD MSTORE PUSH2 0x1113 DUP3 DUP3 PUSH2 0xB5C JUMP JUMPDEST SWAP2 POP POP PUSH1 0x20 DUP4 ADD MLOAD DUP5 DUP3 SUB PUSH1 0x20 DUP7 ADD MSTORE PUSH2 0x112D DUP3 DUP3 PUSH2 0xB5C JUMP JUMPDEST SWAP2 POP POP PUSH1 0x40 DUP4 ADD MLOAD PUSH2 0x1142 PUSH1 0x40 DUP7 ADD DUP3 PUSH2 0xB9F JUMP JUMPDEST POP PUSH1 0x60 DUP4 ADD MLOAD PUSH2 0x1155 PUSH1 0x60 DUP7 ADD DUP3 PUSH2 0xBBA JUMP JUMPDEST POP DUP1 SWAP2 POP POP SWAP3 SWAP2 POP POP JUMP JUMPDEST PUSH1 0x0 PUSH1 0x20 DUP3 ADD SWAP1 POP DUP2 DUP2 SUB PUSH1 0x0 DUP4 ADD MSTORE PUSH2 0x117A DUP2 DUP5 PUSH2 0x10F6 JUMP JUMPDEST SWAP1 POP SWAP3 SWAP2 POP POP JUMP JUMPDEST PUSH1 0x0 DUP1 PUSH1 0x40 DUP4 DUP6 SUB SLT ISZERO PUSH2 0x1199 JUMPI PUSH2 0x1198 PUSH2 0xCF5 JUMP JUMPDEST JUMPDEST PUSH1 0x0 PUSH2 0x11A7 DUP6 DUP3 DUP7 ADD PUSH2 0xE4B JUMP JUMPDEST SWAP3 POP POP PUSH1 0x20 PUSH2 0x11B8 DUP6 DUP3 DUP7 ADD PUSH2 0xE4B JUMP JUMPDEST SWAP2 POP POP SWAP3 POP SWAP3 SWAP1 POP JUMP JUMPDEST PUSH1 0x0 PUSH2 0x11CD DUP3 PUSH2 0x1013 JUMP JUMPDEST SWAP1 POP SWAP2 SWAP1 POP JUMP JUMPDEST PUSH2 0x11DD DUP2 PUSH2 0x11C2 JUMP JUMPDEST DUP3 MSTORE POP POP JUMP JUMPDEST PUSH1 0x0 PUSH1 0x20 DUP3 ADD SWAP1 POP PUSH2 0x11F8 PUSH1 0x0 DUP4 ADD DUP5 PUSH2 0x11D4 JUMP JUMPDEST SWAP3 SWAP2 POP POP JUMP JUMPDEST PUSH32 0x4E487B7100000000000000000000000000000000000000000000000000000000 PUSH1 0x0 MSTORE PUSH1 0x22 PUSH1 0x4 MSTORE PUSH1 0x24 PUSH1 0x0 REVERT JUMPDEST PUSH1 0x0 PUSH1 0x2 DUP3 DIV SWAP1 POP PUSH1 0x1 DUP3 AND DUP1 PUSH2 0x1245 JUMPI PUSH1 0x7F DUP3 AND SWAP2 POP JUMPDEST PUSH1 0x20 DUP3 LT DUP2 SUB PUSH2 0x1258 JUMPI PUSH2 0x1257 PUSH2 0x11FE JUMP JUMPDEST JUMPDEST POP SWAP2 SWAP1 POP JUMP JUMPDEST PUSH32 0x4E487B7100000000000000000000000000000000000000000000000000000000 PUSH1 0x0 MSTORE PUSH1 0x32 PUSH1 0x4 MSTORE PUSH1 0x24 PUSH1 0x0 REVERT JUMPDEST PUSH32 0x436F7572736520616C7265616479206578697374730000000000000000000000 PUSH1 0x0 DUP3 ADD MSTORE POP JUMP JUMPDEST PUSH1 0x0 PUSH2 0x12C3 PUSH1 0x15 DUP4 PUSH2 0xF58 JUMP JUMPDEST SWAP2 POP PUSH2 0x12CE DUP3 PUSH2 0x128D JUMP JUMPDEST PUSH1 0x20 DUP3 ADD SWAP1 POP SWAP2 SWAP1 POP JUMP JUMPDEST PUSH1 0x0 PUSH1 0x20 DUP3 ADD SWAP1 POP DUP2 DUP2 SUB PUSH1 0x0 DUP4 ADD MSTORE PUSH2 0x12F2 DUP2 PUSH2 0x12B6 JUMP JUMPDEST SWAP1 POP SWAP2 SWAP1 POP JUMP JUMPDEST PUSH32 0x4E487B7100000000000000000000000000000000000000000000000000000000 PUSH1 0x0 MSTORE PUSH1 0x11 PUSH1 0x4 MSTORE PUSH1 0x24 PUSH1 0x0 REVERT JUMPDEST PUSH1 0x0 PUSH2 0x1333 DUP3 PUSH2 0xB95 JUMP JUMPDEST SWAP2 POP PUSH32 0xFFFFFFFFFFFFFFFFFFFFFFFFFFFFFFFFFFFFFFFFFFFFFFFFFFFFFFFFFFFFFFFF DUP3 SUB PUSH2 0x1365 JUMPI PUSH2 0x1364 PUSH2 0x12F9 JUMP JUMPDEST JUMPDEST PUSH1 0x1 DUP3 ADD SWAP1 POP SWAP2 SWAP1 POP JUMP JUMPDEST PUSH1 0x0 DUP2 SWAP1 POP DUP2 PUSH1 0x0 MSTORE PUSH1 0x20 PUSH1 0x0 KECCAK256 SWAP1 POP SWAP2 SWAP1 POP JUMP JUMPDEST PUSH1 0x0 PUSH1 0x20 PUSH1 0x1F DUP4 ADD DIV SWAP1 POP SWAP2 SWAP1 POP JUMP JUMPDEST PUSH1 0x0 DUP3 DUP3 SHL SWAP1 POP SWAP3 SWAP2 POP POP JUMP JUMPDEST PUSH1 0x0 PUSH1 0x8 DUP4 MUL PUSH2 0x13D2 PUSH32 0xFFFFFFFFFFFFFFFFFFFFFFFFFFFFFFFFFFFFFFFFFFFFFFFFFFFFFFFFFFFFFFFF DUP3 PUSH2 0x1395 JUMP JUMPDEST PUSH2 0x13DC DUP7 DUP4 PUSH2 0x1395 JUMP JUMPDEST SWAP6 POP DUP1 NOT DUP5 AND SWAP4 POP DUP1 DUP7 AND DUP5 OR SWAP3 POP POP POP SWAP4 SWAP3 POP POP POP JUMP JUMPDEST PUSH1 0x0 PUSH2 0x140F PUSH2 0x140A PUSH2 0x1405 DUP5 PUSH2 0xB95 JUMP JUMPDEST PUSH2 0x1033 JUMP JUMPDEST PUSH2 0xB95 JUMP JUMPDEST SWAP1 POP SWAP2 SWAP1 POP JUMP JUMPDEST PUSH1 0x0 DUP2 SWAP1 POP SWAP2 SWAP1 POP JUMP JUMPDEST PUSH2 0x1429 DUP4 PUSH2 0x13F4 JUMP JUMPDEST PUSH2 0x143D PUSH2 0x1435 DUP3 PUSH2 0x1416 JUMP JUMPDEST DUP5 DUP5 SLOAD PUSH2 0x13A2 JUMP JUMPDEST DUP3 SSTORE POP POP POP POP JUMP JUMPDEST PUSH1 0x0 SWAP1 JUMP JUMPDEST PUSH2 0x1452 PUSH2 0x1445 JUMP JUMPDEST PUSH2 0x145D DUP2 DUP5 DUP5 PUSH2 0x1420 JUMP JUMPDEST POP POP POP JUMP JUMPDEST JUMPDEST DUP2 DUP2 LT ISZERO PUSH2 0x1481 JUMPI PUSH2 0x1476 PUSH1 0x0 DUP3 PUSH2 0x144A JUMP JUMPDEST PUSH1 0x1 DUP2 ADD SWAP1 POP PUSH2 0x1463 JUMP JUMPDEST POP POP JUMP JUMPDEST PUSH1 0x1F DUP3 GT ISZERO PUSH2 0x14C6 JUMPI PUSH2 0x1497 DUP2 PUSH2 0x1370 JUMP JUMPDEST PUSH2 0x14A0 DUP5 PUSH2 0x1385 JUMP JUMPDEST DUP2 ADD PUSH1 0x20 DUP6 LT ISZERO PUSH2 0x14AF JUMPI DUP2 SWAP1 POP JUMPDEST PUSH2 0x14C3 PUSH2 0x14BB DUP6 PUSH2 0x1385 JUMP JUMPDEST DUP4 ADD DUP3 PUSH2 0x1462 JUMP JUMPDEST POP POP JUMPDEST POP POP POP JUMP JUMPDEST PUSH1 0x0 DUP3 DUP3 SHR SWAP1 POP SWAP3 SWAP2 POP POP JUMP JUMPDEST PUSH1 0x0 PUSH2 0x14E9 PUSH1 0x0 NOT DUP5 PUSH1 0x8 MUL PUSH2 0x14CB JUMP JUMPDEST NOT DUP1 DUP4 AND SWAP2 POP POP SWAP3 SWAP2 POP POP JUMP JUMPDEST PUSH1 0x0 PUSH2 0x1502 DUP4 DUP4 PUSH2 0x14D8 JUMP JUMPDEST SWAP2 POP DUP3 PUSH1 0x2 MUL DUP3 OR SWAP1 POP SWAP3 SWAP2 POP POP JUMP JUMPDEST PUSH2 0x151B DUP3 PUSH2 0xB05 JUMP JUMPDEST PUSH8 0xFFFFFFFFFFFFFFFF DUP2 GT ISZERO PUSH2 0x1534 JUMPI PUSH2 0x1533 PUSH2 0xD09 JUMP JUMPDEST JUMPDEST PUSH2 0x153E DUP3 SLOAD PUSH2 0x122D JUMP JUMPDEST PUSH2 0x1549 DUP3 DUP3 DUP6 PUSH2 0x1485 JUMP JUMPDEST PUSH1 0x0 PUSH1 0x20 SWAP1 POP PUSH1 0x1F DUP4 GT PUSH1 0x1 DUP2 EQ PUSH2 0x157C JUMPI PUSH1 0x0 DUP5 ISZERO PUSH2 0x156A JUMPI DUP3 DUP8 ADD MLOAD SWAP1 POP JUMPDEST PUSH2 0x1574 DUP6 DUP3 PUSH2 0x14F6 JUMP JUMPDEST DUP7 SSTORE POP PUSH2 0x15DC JUMP JUMPDEST PUSH1 0x1F NOT DUP5 AND PUSH2 0x158A DUP7 PUSH2 0x1370 JUMP JUMPDEST PUSH1 0x0 JUMPDEST DUP3 DUP2 LT ISZERO PUSH2 0x15B2 JUMPI DUP5 DUP10 ADD MLOAD DUP3 SSTORE PUSH1 0x1 DUP3 ADD SWAP2 POP PUSH1 0x20 DUP6 ADD SWAP5 POP PUSH1 0x20 DUP2 ADD SWAP1 POP PUSH2 0x158D JUMP JUMPDEST DUP7 DUP4 LT ISZERO PUSH2 0x15CF JUMPI DUP5 DUP10 ADD MLOAD PUSH2 0x15CB PUSH1 0x1F DUP10 AND DUP3 PUSH2 0x14D8 JUMP JUMPDEST DUP4 SSTORE POP JUMPDEST PUSH1 0x1 PUSH1 0x2 DUP9 MUL ADD DUP9 SSTORE POP POP POP JUMPDEST POP POP POP POP POP POP JUMP JUMPDEST PUSH32 0x436F75727365206E6F7420666F756E6421000000000000000000000000000000 PUSH1 0x0 DUP3 ADD MSTORE POP JUMP JUMPDEST PUSH1 0x0 PUSH2 0x161A PUSH1 0x11 DUP4 PUSH2 0xF58 JUMP JUMPDEST SWAP2 POP PUSH2 0x1625 DUP3 PUSH2 0x15E4 JUMP JUMPDEST PUSH1 0x20 DUP3 ADD SWAP1 POP SWAP2 SWAP1 POP JUMP JUMPDEST PUSH1 0x0 PUSH1 0x20 DUP3 ADD SWAP1 POP DUP2 DUP2 SUB PUSH1 0x0 DUP4 ADD MSTORE PUSH2 0x1649 DUP2 PUSH2 0x160D JUMP JUMPDEST SWAP1 POP SWAP2 SWAP1 POP JUMP JUMPDEST PUSH1 0x0 DUP2 SWAP1 POP SWAP3 SWAP2 POP POP JUMP JUMPDEST PUSH1 0x0 PUSH2 0x1666 DUP3 PUSH2 0xB05 JUMP JUMPDEST PUSH2 0x1670 DUP2 DUP6 PUSH2 0x1650 JUMP JUMPDEST SWAP4 POP PUSH2 0x1680 DUP2 DUP6 PUSH1 0x20 DUP7 ADD PUSH2 0xB21 JUMP JUMPDEST DUP1 DUP5 ADD SWAP2 POP POP SWAP3 SWAP2 POP POP JUMP JUMPDEST PUSH1 0x0 PUSH2 0x1698 DUP3 DUP5 PUSH2 0x165B JUMP JUMPDEST SWAP2 POP DUP2 SWAP1 POP SWAP3 SWAP2 POP POP JUMP INVALID PUSH1 0x80 PUSH1 0x40 MSTORE CALLVALUE DUP1 ISZERO PUSH2 0x10 JUMPI PUSH1 0x0 DUP1 REVERT JUMPDEST POP PUSH2 0x15A9 DUP1 PUSH2 0x20 PUSH1 0x0 CODECOPY PUSH1 0x0 RETURN INVALID PUSH1 0x80 PUSH1 0x40 MSTORE CALLVALUE DUP1 ISZERO PUSH2 0x10 JUMPI PUSH1 0x0 DUP1 REVERT JUMPDEST POP PUSH1 0x4 CALLDATASIZE LT PUSH2 0x57 JUMPI PUSH1 0x0 CALLDATALOAD PUSH1 0xE0 SHR DUP1 PUSH4 0x1B5C81A5 EQ PUSH2 0x5C JUMPI DUP1 PUSH4 0xC8FB0793 EQ PUSH2 0x78 JUMPI DUP1 PUSH4 0xDC3266C6 EQ PUSH2 0xA8 JUMPI DUP1 PUSH4 0xEC7505B1 EQ PUSH2 0xC4 JUMPI DUP1 PUSH4 0xF1D064B3 EQ PUSH2 0xE0 JUMPI JUMPDEST PUSH1 0x0 DUP1 REVERT JUMPDEST PUSH2 0x76 PUSH1 0x4 DUP1 CALLDATASIZE SUB DUP2 ADD SWAP1 PUSH2 0x71 SWAP2 SWAP1 PUSH2 0xCD5 JUMP JUMPDEST PUSH2 0xFE JUMP JUMPDEST STOP JUMPDEST PUSH2 0x92 PUSH1 0x4 DUP1 CALLDATASIZE SUB DUP2 ADD SWAP1 PUSH2 0x8D SWAP2 SWAP1 PUSH2 0xD44 JUMP JUMPDEST PUSH2 0x2B4 JUMP JUMPDEST PUSH1 0x40 MLOAD PUSH2 0x9F SWAP2 SWAP1 PUSH2 0xE4F JUMP JUMPDEST PUSH1 0x40 MLOAD DUP1 SWAP2 SUB SWAP1 RETURN JUMPDEST PUSH2 0xC2 PUSH1 0x4 DUP1 CALLDATASIZE SUB DUP2 ADD SWAP1 PUSH2 0xBD SWAP2 SWAP1 PUSH2 0xD44 JUMP JUMPDEST PUSH2 0x4DB JUMP JUMPDEST STOP JUMPDEST PUSH2 0xDE PUSH1 0x4 DUP1 CALLDATASIZE SUB DUP2 ADD SWAP1 PUSH2 0xD9 SWAP2 SWAP1 PUSH2 0xCD5 JUMP JUMPDEST PUSH2 0x7A3 JUMP JUMPDEST STOP JUMPDEST PUSH2 0xE8 PUSH2 0x986 JUMP JUMPDEST PUSH1 0x40 MLOAD PUSH2 0xF5 SWAP2 SWAP1 PUSH2 0xF83 JUMP JUMPDEST PUSH1 0x40 MLOAD DUP1 SWAP2 SUB SWAP1 RETURN JUMPDEST PUSH1 0x0 JUMPDEST PUSH1 0x0 DUP1 CALLER PUSH20 0xFFFFFFFFFFFFFFFFFFFFFFFFFFFFFFFFFFFFFFFF AND PUSH20 0xFFFFFFFFFFFFFFFFFFFFFFFFFFFFFFFFFFFFFFFF AND DUP2 MSTORE PUSH1 0x20 ADD SWAP1 DUP2 MSTORE PUSH1 0x20 ADD PUSH1 0x0 KECCAK256 DUP1 SLOAD SWAP1 POP DUP2 LT ISZERO PUSH2 0x200 JUMPI DUP4 PUSH1 0x0 DUP1 CALLER PUSH20 0xFFFFFFFFFFFFFFFFFFFFFFFFFFFFFFFFFFFFFFFF AND PUSH20 0xFFFFFFFFFFFFFFFFFFFFFFFFFFFFFFFFFFFFFFFF AND DUP2 MSTORE PUSH1 0x20 ADD SWAP1 DUP2 MSTORE PUSH1 0x20 ADD PUSH1 0x0 KECCAK256 DUP3 DUP2 SLOAD DUP2 LT PUSH2 0x19B JUMPI PUSH2 0x19A PUSH2 0xFA5 JUMP JUMPDEST JUMPDEST SWAP1 PUSH1 0x0 MSTORE PUSH1 0x20 PUSH1 0x0 KECCAK256 SWAP1 PUSH1 0x3 MUL ADD PUSH1 0x0 ADD SLOAD SUB PUSH2 0x1ED JUMPI PUSH1 0x40 MLOAD PUSH32 0x8C379A000000000000000000000000000000000000000000000000000000000 DUP2 MSTORE PUSH1 0x4 ADD PUSH2 0x1E4 SWAP1 PUSH2 0x1031 JUMP JUMPDEST PUSH1 0x40 MLOAD DUP1 SWAP2 SUB SWAP1 REVERT JUMPDEST DUP1 DUP1 PUSH2 0x1F8 SWAP1 PUSH2 0x1080 JUMP JUMPDEST SWAP2 POP POP PUSH2 0x101 JUMP JUMPDEST POP PUSH1 0x0 DUP1 CALLER PUSH20 0xFFFFFFFFFFFFFFFFFFFFFFFFFFFFFFFFFFFFFFFF AND PUSH20 0xFFFFFFFFFFFFFFFFFFFFFFFFFFFFFFFFFFFFFFFF AND DUP2 MSTORE PUSH1 0x20 ADD SWAP1 DUP2 MSTORE PUSH1 0x20 ADD PUSH1 0x0 KECCAK256 PUSH1 0x40 MLOAD DUP1 PUSH1 0x60 ADD PUSH1 0x40 MSTORE DUP1 DUP6 DUP2 MSTORE PUSH1 0x20 ADD DUP5 DUP2 MSTORE PUSH1 0x20 ADD DUP4 DUP2 MSTORE POP SWAP1 DUP1 PUSH1 0x1 DUP2 SLOAD ADD DUP1 DUP3 SSTORE DUP1 SWAP2 POP POP PUSH1 0x1 SWAP1 SUB SWAP1 PUSH1 0x0 MSTORE PUSH1 0x20 PUSH1 0x0 KECCAK256 SWAP1 PUSH1 0x3 MUL ADD PUSH1 0x0 SWAP1 SWAP2 SWAP1 SWAP2 SWAP1 SWAP2 POP PUSH1 0x0 DUP3 ADD MLOAD DUP2 PUSH1 0x0 ADD SSTORE PUSH1 0x20 DUP3 ADD MLOAD DUP2 PUSH1 0x1 ADD SWAP1 DUP2 PUSH2 0x2A2 SWAP2 SWAP1 PUSH2 0x12D4 JUMP JUMPDEST POP PUSH1 0x40 DUP3 ADD MLOAD DUP2 PUSH1 0x2 ADD SSTORE POP POP POP POP POP JUMP JUMPDEST PUSH2 0x2BC PUSH2 0xAC7 JUMP JUMPDEST PUSH1 0x0 JUMPDEST PUSH1 0x0 DUP1 CALLER PUSH20 0xFFFFFFFFFFFFFFFFFFFFFFFFFFFFFFFFFFFFFFFF AND PUSH20 0xFFFFFFFFFFFFFFFFFFFFFFFFFFFFFFFFFFFFFFFF AND DUP2 MSTORE PUSH1 0x20 ADD SWAP1 DUP2 MSTORE PUSH1 0x20 ADD PUSH1 0x0 KECCAK256 DUP1 SLOAD SWAP1 POP DUP2 LT ISZERO PUSH2 0x49A JUMPI DUP3 PUSH1 0x0 DUP1 CALLER PUSH20 0xFFFFFFFFFFFFFFFFFFFFFFFFFFFFFFFFFFFFFFFF AND PUSH20 0xFFFFFFFFFFFFFFFFFFFFFFFFFFFFFFFFFFFFFFFF AND DUP2 MSTORE PUSH1 0x20 ADD SWAP1 DUP2 MSTORE PUSH1 0x20 ADD PUSH1 0x0 KECCAK256 DUP3 DUP2 SLOAD DUP2 LT PUSH2 0x359 JUMPI PUSH2 0x358 PUSH2 0xFA5 JUMP JUMPDEST JUMPDEST SWAP1 PUSH1 0x0 MSTORE PUSH1 0x20 PUSH1 0x0 KECCAK256 SWAP1 PUSH1 0x3 MUL ADD PUSH1 0x0 ADD SLOAD SUB PUSH2 0x487 JUMPI PUSH1 0x0 DUP1 CALLER PUSH20 0xFFFFFFFFFFFFFFFFFFFFFFFFFFFFFFFFFFFFFFFF AND PUSH20 0xFFFFFFFFFFFFFFFFFFFFFFFFFFFFFFFFFFFFFFFF AND DUP2 MSTORE PUSH1 0x20 ADD SWAP1 DUP2 MSTORE PUSH1 0x20 ADD PUSH1 0x0 KECCAK256 DUP2 DUP2 SLOAD DUP2 LT PUSH2 0x3C0 JUMPI PUSH2 0x3BF PUSH2 0xFA5 JUMP JUMPDEST JUMPDEST SWAP1 PUSH1 0x0 MSTORE PUSH1 0x20 PUSH1 0x0 KECCAK256 SWAP1 PUSH1 0x3 MUL ADD PUSH1 0x40 MLOAD DUP1 PUSH1 0x60 ADD PUSH1 0x40 MSTORE SWAP1 DUP2 PUSH1 0x0 DUP3 ADD SLOAD DUP2 MSTORE PUSH1 0x20 ADD PUSH1 0x1 DUP3 ADD DUP1 SLOAD PUSH2 0x3F3 SWAP1 PUSH2 0x10F7 JUMP JUMPDEST DUP1 PUSH1 0x1F ADD PUSH1 0x20 DUP1 SWAP2 DIV MUL PUSH1 0x20 ADD PUSH1 0x40 MLOAD SWAP1 DUP2 ADD PUSH1 0x40 MSTORE DUP1 SWAP3 SWAP2 SWAP1 DUP2 DUP2 MSTORE PUSH1 0x20 ADD DUP3 DUP1 SLOAD PUSH2 0x41F SWAP1 PUSH2 0x10F7 JUMP JUMPDEST DUP1 ISZERO PUSH2 0x46C JUMPI DUP1 PUSH1 0x1F LT PUSH2 0x441 JUMPI PUSH2 0x100 DUP1 DUP4 SLOAD DIV MUL DUP4 MSTORE SWAP2 PUSH1 0x20 ADD SWAP2 PUSH2 0x46C JUMP JUMPDEST DUP3 ADD SWAP2 SWAP1 PUSH1 0x0 MSTORE PUSH1 0x20 PUSH1 0x0 KECCAK256 SWAP1 JUMPDEST DUP2 SLOAD DUP2 MSTORE SWAP1 PUSH1 0x1 ADD SWAP1 PUSH1 0x20 ADD DUP1 DUP4 GT PUSH2 0x44F JUMPI DUP3 SWAP1 SUB PUSH1 0x1F AND DUP3 ADD SWAP2 JUMPDEST POP POP POP POP POP DUP2 MSTORE PUSH1 0x20 ADD PUSH1 0x2 DUP3 ADD SLOAD DUP2 MSTORE POP POP SWAP2 POP POP PUSH2 0x4D6 JUMP JUMPDEST DUP1 DUP1 PUSH2 0x492 SWAP1 PUSH2 0x1080 JUMP JUMPDEST SWAP2 POP POP PUSH2 0x2BF JUMP JUMPDEST POP PUSH1 0x40 MLOAD PUSH32 0x8C379A000000000000000000000000000000000000000000000000000000000 DUP2 MSTORE PUSH1 0x4 ADD PUSH2 0x4CD SWAP1 PUSH2 0x13F2 JUMP JUMPDEST PUSH1 0x40 MLOAD DUP1 SWAP2 SUB SWAP1 REVERT JUMPDEST SWAP2 SWAP1 POP JUMP JUMPDEST PUSH1 0x0 JUMPDEST PUSH1 0x0 DUP1 CALLER PUSH20 0xFFFFFFFFFFFFFFFFFFFFFFFFFFFFFFFFFFFFFFFF AND PUSH20 0xFFFFFFFFFFFFFFFFFFFFFFFFFFFFFFFFFFFFFFFF AND DUP2 MSTORE PUSH1 0x20 ADD SWAP1 DUP2 MSTORE PUSH1 0x20 ADD PUSH1 0x0 KECCAK256 DUP1 SLOAD SWAP1 POP DUP2 LT ISZERO PUSH2 0x764 JUMPI DUP2 PUSH1 0x0 DUP1 CALLER PUSH20 0xFFFFFFFFFFFFFFFFFFFFFFFFFFFFFFFFFFFFFFFF AND PUSH20 0xFFFFFFFFFFFFFFFFFFFFFFFFFFFFFFFFFFFFFFFF AND DUP2 MSTORE PUSH1 0x20 ADD SWAP1 DUP2 MSTORE PUSH1 0x20 ADD PUSH1 0x0 KECCAK256 DUP3 DUP2 SLOAD DUP2 LT PUSH2 0x578 JUMPI PUSH2 0x577 PUSH2 0xFA5 JUMP JUMPDEST JUMPDEST SWAP1 PUSH1 0x0 MSTORE PUSH1 0x20 PUSH1 0x0 KECCAK256 SWAP1 PUSH1 0x3 MUL ADD PUSH1 0x0 ADD SLOAD SUB PUSH2 0x751 JUMPI PUSH1 0x0 DUP1 CALLER PUSH20 0xFFFFFFFFFFFFFFFFFFFFFFFFFFFFFFFFFFFFFFFF AND PUSH20 0xFFFFFFFFFFFFFFFFFFFFFFFFFFFFFFFFFFFFFFFF AND DUP2 MSTORE PUSH1 0x20 ADD SWAP1 DUP2 MSTORE PUSH1 0x20 ADD PUSH1 0x0 KECCAK256 PUSH1 0x1 PUSH1 0x0 DUP1 CALLER PUSH20 0xFFFFFFFFFFFFFFFFFFFFFFFFFFFFFFFFFFFFFFFF AND PUSH20 0xFFFFFFFFFFFFFFFFFFFFFFFFFFFFFFFFFFFFFFFF AND DUP2 MSTORE PUSH1 0x20 ADD SWAP1 DUP2 MSTORE PUSH1 0x20 ADD PUSH1 0x0 KECCAK256 DUP1 SLOAD SWAP1 POP PUSH2 0x61B SWAP2 SWAP1 PUSH2 0x1412 JUMP JUMPDEST DUP2 SLOAD DUP2 LT PUSH2 0x62C JUMPI PUSH2 0x62B PUSH2 0xFA5 JUMP JUMPDEST JUMPDEST SWAP1 PUSH1 0x0 MSTORE PUSH1 0x20 PUSH1 0x0 KECCAK256 SWAP1 PUSH1 0x3 MUL ADD PUSH1 0x0 DUP1 CALLER PUSH20 0xFFFFFFFFFFFFFFFFFFFFFFFFFFFFFFFFFFFFFFFF AND PUSH20 0xFFFFFFFFFFFFFFFFFFFFFFFFFFFFFFFFFFFFFFFF AND DUP2 MSTORE PUSH1 0x20 ADD SWAP1 DUP2 MSTORE PUSH1 0x20 ADD PUSH1 0x0 KECCAK256 DUP3 DUP2 SLOAD DUP2 LT PUSH2 0x68A JUMPI PUSH2 0x689 PUSH2 0xFA5 JUMP JUMPDEST JUMPDEST SWAP1 PUSH1 0x0 MSTORE PUSH1 0x20 PUSH1 0x0 KECCAK256 SWAP1 PUSH1 0x3 MUL ADD PUSH1 0x0 DUP3 ADD SLOAD DUP2 PUSH1 0x0 ADD SSTORE PUSH1 0x1 DUP3 ADD DUP2 PUSH1 0x1 ADD SWAP1 DUP2 PUSH2 0x6B6 SWAP2 SWAP1 PUSH2 0x145C JUMP JUMPDEST POP PUSH1 0x2 DUP3 ADD SLOAD DUP2 PUSH1 0x2 ADD SSTORE SWAP1 POP POP PUSH1 0x0 DUP1 CALLER PUSH20 0xFFFFFFFFFFFFFFFFFFFFFFFFFFFFFFFFFFFFFFFF AND PUSH20 0xFFFFFFFFFFFFFFFFFFFFFFFFFFFFFFFFFFFFFFFF AND DUP2 MSTORE PUSH1 0x20 ADD SWAP1 DUP2 MSTORE PUSH1 0x20 ADD PUSH1 0x0 KECCAK256 DUP1 SLOAD DUP1 PUSH2 0x712 JUMPI PUSH2 0x711 PUSH2 0x1544 JUMP JUMPDEST JUMPDEST PUSH1 0x1 SWAP1 SUB DUP2 DUP2 SWAP1 PUSH1 0x0 MSTORE PUSH1 0x20 PUSH1 0x0 KECCAK256 SWAP1 PUSH1 0x3 MUL ADD PUSH1 0x0 DUP1 DUP3 ADD PUSH1 0x0 SWAP1 SSTORE PUSH1 0x1 DUP3 ADD PUSH1 0x0 PUSH2 0x73F SWAP2 SWAP1 PUSH2 0xAE8 JUMP JUMPDEST PUSH1 0x2 DUP3 ADD PUSH1 0x0 SWAP1 SSTORE POP POP SWAP1 SSTORE POP PUSH2 0x7A0 JUMP JUMPDEST DUP1 DUP1 PUSH2 0x75C SWAP1 PUSH2 0x1080 JUMP JUMPDEST SWAP2 POP POP PUSH2 0x4DE JUMP JUMPDEST POP PUSH1 0x40 MLOAD PUSH32 0x8C379A000000000000000000000000000000000000000000000000000000000 DUP2 MSTORE PUSH1 0x4 ADD PUSH2 0x797 SWAP1 PUSH2 0x13F2 JUMP JUMPDEST PUSH1 0x40 MLOAD DUP1 SWAP2 SUB SWAP1 REVERT JUMPDEST POP JUMP JUMPDEST PUSH1 0x0 JUMPDEST PUSH1 0x0 DUP1 CALLER PUSH20 0xFFFFFFFFFFFFFFFFFFFFFFFFFFFFFFFFFFFFFFFF AND PUSH20 0xFFFFFFFFFFFFFFFFFFFFFFFFFFFFFFFFFFFFFFFF AND DUP2 MSTORE PUSH1 0x20 ADD SWAP1 DUP2 MSTORE PUSH1 0x20 ADD PUSH1 0x0 KECCAK256 DUP1 SLOAD SWAP1 POP DUP2 LT ISZERO PUSH2 0x945 JUMPI DUP4 PUSH1 0x0 DUP1 CALLER PUSH20 0xFFFFFFFFFFFFFFFFFFFFFFFFFFFFFFFFFFFFFFFF AND PUSH20 0xFFFFFFFFFFFFFFFFFFFFFFFFFFFFFFFFFFFFFFFF AND DUP2 MSTORE PUSH1 0x20 ADD SWAP1 DUP2 MSTORE PUSH1 0x20 ADD PUSH1 0x0 KECCAK256 DUP3 DUP2 SLOAD DUP2 LT PUSH2 0x840 JUMPI PUSH2 0x83F PUSH2 0xFA5 JUMP JUMPDEST JUMPDEST SWAP1 PUSH1 0x0 MSTORE PUSH1 0x20 PUSH1 0x0 KECCAK256 SWAP1 PUSH1 0x3 MUL ADD PUSH1 0x0 ADD SLOAD SUB PUSH2 0x932 JUMPI DUP3 PUSH1 0x0 DUP1 CALLER PUSH20 0xFFFFFFFFFFFFFFFFFFFFFFFFFFFFFFFFFFFFFFFF AND PUSH20 0xFFFFFFFFFFFFFFFFFFFFFFFFFFFFFFFFFFFFFFFF AND DUP2 MSTORE PUSH1 0x20 ADD SWAP1 DUP2 MSTORE PUSH1 0x20 ADD PUSH1 0x0 KECCAK256 DUP3 DUP2 SLOAD DUP2 LT PUSH2 0x8A8 JUMPI PUSH2 0x8A7 PUSH2 0xFA5 JUMP JUMPDEST JUMPDEST SWAP1 PUSH1 0x0 MSTORE PUSH1 0x20 PUSH1 0x0 KECCAK256 SWAP1 PUSH1 0x3 MUL ADD PUSH1 0x1 ADD SWAP1 DUP2 PUSH2 0x8C5 SWAP2 SWAP1 PUSH2 0x12D4 JUMP JUMPDEST POP DUP2 PUSH1 0x0 DUP1 CALLER PUSH20 0xFFFFFFFFFFFFFFFFFFFFFFFFFFFFFFFFFFFFFFFF AND PUSH20 0xFFFFFFFFFFFFFFFFFFFFFFFFFFFFFFFFFFFFFFFF AND DUP2 MSTORE PUSH1 0x20 ADD SWAP1 DUP2 MSTORE PUSH1 0x20 ADD PUSH1 0x0 KECCAK256 DUP3 DUP2 SLOAD DUP2 LT PUSH2 0x917 JUMPI PUSH2 0x916 PUSH2 0xFA5 JUMP JUMPDEST JUMPDEST SWAP1 PUSH1 0x0 MSTORE PUSH1 0x20 PUSH1 0x0 KECCAK256 SWAP1 PUSH1 0x3 MUL ADD PUSH1 0x2 ADD DUP2 SWAP1 SSTORE POP POP PUSH2 0x981 JUMP JUMPDEST DUP1 DUP1 PUSH2 0x93D SWAP1 PUSH2 0x1080 JUMP JUMPDEST SWAP2 POP POP PUSH2 0x7A6 JUMP JUMPDEST POP PUSH1 0x40 MLOAD PUSH32 0x8C379A000000000000000000000000000000000000000000000000000000000 DUP2 MSTORE PUSH1 0x4 ADD PUSH2 0x978 SWAP1 PUSH2 0x13F2 JUMP JUMPDEST PUSH1 0x40 MLOAD DUP1 SWAP2 SUB SWAP1 REVERT JUMPDEST POP POP POP JUMP JUMPDEST PUSH1 0x60 PUSH1 0x0 DUP1 CALLER PUSH20 0xFFFFFFFFFFFFFFFFFFFFFFFFFFFFFFFFFFFFFFFF AND PUSH20 0xFFFFFFFFFFFFFFFFFFFFFFFFFFFFFFFFFFFFFFFF AND DUP2 MSTORE PUSH1 0x20 ADD SWAP1 DUP2 MSTORE PUSH1 0x20 ADD PUSH1 0x0 KECCAK256 DUP1 SLOAD DUP1 PUSH1 0x20 MUL PUSH1 0x20 ADD PUSH1 0x40 MLOAD SWAP1 DUP2 ADD PUSH1 0x40 MSTORE DUP1 SWAP3 SWAP2 SWAP1 DUP2 DUP2 MSTORE PUSH1 0x20 ADD PUSH1 0x0 SWAP1 JUMPDEST DUP3 DUP3 LT ISZERO PUSH2 0xABE JUMPI DUP4 DUP3 SWAP1 PUSH1 0x0 MSTORE PUSH1 0x20 PUSH1 0x0 KECCAK256 SWAP1 PUSH1 0x3 MUL ADD PUSH1 0x40 MLOAD DUP1 PUSH1 0x60 ADD PUSH1 0x40 MSTORE SWAP1 DUP2 PUSH1 0x0 DUP3 ADD SLOAD DUP2 MSTORE PUSH1 0x20 ADD PUSH1 0x1 DUP3 ADD DUP1 SLOAD PUSH2 0xA23 SWAP1 PUSH2 0x10F7 JUMP JUMPDEST DUP1 PUSH1 0x1F ADD PUSH1 0x20 DUP1 SWAP2 DIV MUL PUSH1 0x20 ADD PUSH1 0x40 MLOAD SWAP1 DUP2 ADD PUSH1 0x40 MSTORE DUP1 SWAP3 SWAP2 SWAP1 DUP2 DUP2 MSTORE PUSH1 0x20 ADD DUP3 DUP1 SLOAD PUSH2 0xA4F SWAP1 PUSH2 0x10F7 JUMP JUMPDEST DUP1 ISZERO PUSH2 0xA9C JUMPI DUP1 PUSH1 0x1F LT PUSH2 0xA71 JUMPI PUSH2 0x100 DUP1 DUP4 SLOAD DIV MUL DUP4 MSTORE SWAP2 PUSH1 0x20 ADD SWAP2 PUSH2 0xA9C JUMP JUMPDEST DUP3 ADD SWAP2 SWAP1 PUSH1 0x0 MSTORE PUSH1 0x20 PUSH1 0x0 KECCAK256 SWAP1 JUMPDEST DUP2 SLOAD DUP2 MSTORE SWAP1 PUSH1 0x1 ADD SWAP1 PUSH1 0x20 ADD DUP1 DUP4 GT PUSH2 0xA7F JUMPI DUP3 SWAP1 SUB PUSH1 0x1F AND DUP3 ADD SWAP2 JUMPDEST POP POP POP POP POP DUP2 MSTORE PUSH1 0x20 ADD PUSH1 0x2 DUP3 ADD SLOAD DUP2 MSTORE POP POP DUP2 MSTORE PUSH1 0x20 ADD SWAP1 PUSH1 0x1 ADD SWAP1 PUSH2 0x9E6 JUMP JUMPDEST POP POP POP POP SWAP1 POP SWAP1 JUMP JUMPDEST PUSH1 0x40 MLOAD DUP1 PUSH1 0x60 ADD PUSH1 0x40 MSTORE DUP1 PUSH1 0x0 DUP2 MSTORE PUSH1 0x20 ADD PUSH1 0x60 DUP2 MSTORE PUSH1 0x20 ADD PUSH1 0x0 DUP2 MSTORE POP SWAP1 JUMP JUMPDEST POP DUP1 SLOAD PUSH2 0xAF4 SWAP1 PUSH2 0x10F7 JUMP JUMPDEST PUSH1 0x0 DUP3 SSTORE DUP1 PUSH1 0x1F LT PUSH2 0xB06 JUMPI POP PUSH2 0xB25 JUMP JUMPDEST PUSH1 0x1F ADD PUSH1 0x20 SWAP1 DIV SWAP1 PUSH1 0x0 MSTORE PUSH1 0x20 PUSH1 0x0 KECCAK256 SWAP1 DUP2 ADD SWAP1 PUSH2 0xB24 SWAP2 SWAP1 PUSH2 0xB28 JUMP JUMPDEST JUMPDEST POP JUMP JUMPDEST JUMPDEST DUP1 DUP3 GT ISZERO PUSH2 0xB41 JUMPI PUSH1 0x0 DUP2 PUSH1 0x0 SWAP1 SSTORE POP PUSH1 0x1 ADD PUSH2 0xB29 JUMP JUMPDEST POP SWAP1 JUMP JUMPDEST PUSH1 0x0 PUSH1 0x40 MLOAD SWAP1 POP SWAP1 JUMP JUMPDEST PUSH1 0x0 DUP1 REVERT JUMPDEST PUSH1 0x0 DUP1 REVERT JUMPDEST PUSH1 0x0 DUP2 SWAP1 POP SWAP2 SWAP1 POP JUMP JUMPDEST PUSH2 0xB6C DUP2 PUSH2 0xB59 JUMP JUMPDEST DUP2 EQ PUSH2 0xB77 JUMPI PUSH1 0x0 DUP1 REVERT JUMPDEST POP JUMP JUMPDEST PUSH1 0x0 DUP2 CALLDATALOAD SWAP1 POP PUSH2 0xB89 DUP2 PUSH2 0xB63 JUMP JUMPDEST SWAP3 SWAP2 POP POP JUMP JUMPDEST PUSH1 0x0 DUP1 REVERT JUMPDEST PUSH1 0x0 DUP1 REVERT JUMPDEST PUSH1 0x0 PUSH1 0x1F NOT PUSH1 0x1F DUP4 ADD AND SWAP1 POP SWAP2 SWAP1 POP JUMP JUMPDEST PUSH32 0x4E487B7100000000000000000000000000000000000000000000000000000000 PUSH1 0x0 MSTORE PUSH1 0x41 PUSH1 0x4 MSTORE PUSH1 0x24 PUSH1 0x0 REVERT JUMPDEST PUSH2 0xBE2 DUP3 PUSH2 0xB99 JUMP JUMPDEST DUP2 ADD DUP2 DUP2 LT PUSH8 0xFFFFFFFFFFFFFFFF DUP3 GT OR ISZERO PUSH2 0xC01 JUMPI PUSH2 0xC00 PUSH2 0xBAA JUMP JUMPDEST JUMPDEST DUP1 PUSH1 0x40 MSTORE POP POP POP JUMP JUMPDEST PUSH1 0x0 PUSH2 0xC14 PUSH2 0xB45 JUMP JUMPDEST SWAP1 POP PUSH2 0xC20 DUP3 DUP3 PUSH2 0xBD9 JUMP JUMPDEST SWAP2 SWAP1 POP JUMP JUMPDEST PUSH1 0x0 PUSH8 0xFFFFFFFFFFFFFFFF DUP3 GT ISZERO PUSH2 0xC40 JUMPI PUSH2 0xC3F PUSH2 0xBAA JUMP JUMPDEST JUMPDEST PUSH2 0xC49 DUP3 PUSH2 0xB99 JUMP JUMPDEST SWAP1 POP PUSH1 0x20 DUP2 ADD SWAP1 POP SWAP2 SWAP1 POP JUMP JUMPDEST DUP3 DUP2 DUP4 CALLDATACOPY PUSH1 0x0 DUP4 DUP4 ADD MSTORE POP POP POP JUMP JUMPDEST PUSH1 0x0 PUSH2 0xC78 PUSH2 0xC73 DUP5 PUSH2 0xC25 JUMP JUMPDEST PUSH2 0xC0A JUMP JUMPDEST SWAP1 POP DUP3 DUP2 MSTORE PUSH1 0x20 DUP2 ADD DUP5 DUP5 DUP5 ADD GT ISZERO PUSH2 0xC94 JUMPI PUSH2 0xC93 PUSH2 0xB94 JUMP JUMPDEST JUMPDEST PUSH2 0xC9F DUP5 DUP3 DUP6 PUSH2 0xC56 JUMP JUMPDEST POP SWAP4 SWAP3 POP POP POP JUMP JUMPDEST PUSH1 0x0 DUP3 PUSH1 0x1F DUP4 ADD SLT PUSH2 0xCBC JUMPI PUSH2 0xCBB PUSH2 0xB8F JUMP JUMPDEST JUMPDEST DUP2 CALLDATALOAD PUSH2 0xCCC DUP5 DUP3 PUSH1 0x20 DUP7 ADD PUSH2 0xC65 JUMP JUMPDEST SWAP2 POP POP SWAP3 SWAP2 POP POP JUMP JUMPDEST PUSH1 0x0 DUP1 PUSH1 0x0 PUSH1 0x60 DUP5 DUP7 SUB SLT ISZERO PUSH2 0xCEE JUMPI PUSH2 0xCED PUSH2 0xB4F JUMP JUMPDEST JUMPDEST PUSH1 0x0 PUSH2 0xCFC DUP7 DUP3 DUP8 ADD PUSH2 0xB7A JUMP JUMPDEST SWAP4 POP POP PUSH1 0x20 DUP5 ADD CALLDATALOAD PUSH8 0xFFFFFFFFFFFFFFFF DUP2 GT ISZERO PUSH2 0xD1D JUMPI PUSH2 0xD1C PUSH2 0xB54 JUMP JUMPDEST JUMPDEST PUSH2 0xD29 DUP7 DUP3 DUP8 ADD PUSH2 0xCA7 JUMP JUMPDEST SWAP3 POP POP PUSH1 0x40 PUSH2 0xD3A DUP7 DUP3 DUP8 ADD PUSH2 0xB7A JUMP JUMPDEST SWAP2 POP POP SWAP3 POP SWAP3 POP SWAP3 JUMP JUMPDEST PUSH1 0x0 PUSH1 0x20 DUP3 DUP5 SUB SLT ISZERO PUSH2 0xD5A JUMPI PUSH2 0xD59 PUSH2 0xB4F JUMP JUMPDEST JUMPDEST PUSH1 0x0 PUSH2 0xD68 DUP5 DUP3 DUP6 ADD PUSH2 0xB7A JUMP JUMPDEST SWAP2 POP POP SWAP3 SWAP2 POP POP JUMP JUMPDEST PUSH2 0xD7A DUP2 PUSH2 0xB59 JUMP JUMPDEST DUP3 MSTORE POP POP JUMP JUMPDEST PUSH1 0x0 DUP2 MLOAD SWAP1 POP SWAP2 SWAP1 POP JUMP JUMPDEST PUSH1 0x0 DUP3 DUP3 MSTORE PUSH1 0x20 DUP3 ADD SWAP1 POP SWAP3 SWAP2 POP POP JUMP JUMPDEST PUSH1 0x0 JUMPDEST DUP4 DUP2 LT ISZERO PUSH2 0xDBA JUMPI DUP1 DUP3 ADD MLOAD DUP2 DUP5 ADD MSTORE PUSH1 0x20 DUP2 ADD SWAP1 POP PUSH2 0xD9F JUMP JUMPDEST PUSH1 0x0 DUP5 DUP5 ADD MSTORE POP POP POP POP JUMP JUMPDEST PUSH1 0x0 PUSH2 0xDD1 DUP3 PUSH2 0xD80 JUMP JUMPDEST PUSH2 0xDDB DUP2 DUP6 PUSH2 0xD8B JUMP JUMPDEST SWAP4 POP PUSH2 0xDEB DUP2 DUP6 PUSH1 0x20 DUP7 ADD PUSH2 0xD9C JUMP JUMPDEST PUSH2 0xDF4 DUP2 PUSH2 0xB99 JUMP JUMPDEST DUP5 ADD SWAP2 POP POP SWAP3 SWAP2 POP POP JUMP JUMPDEST PUSH1 0x0 PUSH1 0x60 DUP4 ADD PUSH1 0x0 DUP4 ADD MLOAD PUSH2 0xE17 PUSH1 0x0 DUP7 ADD DUP3 PUSH2 0xD71 JUMP JUMPDEST POP PUSH1 0x20 DUP4 ADD MLOAD DUP5 DUP3 SUB PUSH1 0x20 DUP7 ADD MSTORE PUSH2 0xE2F DUP3 DUP3 PUSH2 0xDC6 JUMP JUMPDEST SWAP2 POP POP PUSH1 0x40 DUP4 ADD MLOAD PUSH2 0xE44 PUSH1 0x40 DUP7 ADD DUP3 PUSH2 0xD71 JUMP JUMPDEST POP DUP1 SWAP2 POP POP SWAP3 SWAP2 POP POP JUMP JUMPDEST PUSH1 0x0 PUSH1 0x20 DUP3 ADD SWAP1 POP DUP2 DUP2 SUB PUSH1 0x0 DUP4 ADD MSTORE PUSH2 0xE69 DUP2 DUP5 PUSH2 0xDFF JUMP JUMPDEST SWAP1 POP SWAP3 SWAP2 POP POP JUMP JUMPDEST PUSH1 0x0 DUP2 MLOAD SWAP1 POP SWAP2 SWAP1 POP JUMP JUMPDEST PUSH1 0x0 DUP3 DUP3 MSTORE PUSH1 0x20 DUP3 ADD SWAP1 POP SWAP3 SWAP2 POP POP JUMP JUMPDEST PUSH1 0x0 DUP2 SWAP1 POP PUSH1 0x20 DUP3 ADD SWAP1 POP SWAP2 SWAP1 POP JUMP JUMPDEST PUSH1 0x0 PUSH1 0x60 DUP4 ADD PUSH1 0x0 DUP4 ADD MLOAD PUSH2 0xEB5 PUSH1 0x0 DUP7 ADD DUP3 PUSH2 0xD71 JUMP JUMPDEST POP PUSH1 0x20 DUP4 ADD MLOAD DUP5 DUP3 SUB PUSH1 0x20 DUP7 ADD MSTORE PUSH2 0xECD DUP3 DUP3 PUSH2 0xDC6 JUMP JUMPDEST SWAP2 POP POP PUSH1 0x40 DUP4 ADD MLOAD PUSH2 0xEE2 PUSH1 0x40 DUP7 ADD DUP3 PUSH2 0xD71 JUMP JUMPDEST POP DUP1 SWAP2 POP POP SWAP3 SWAP2 POP POP JUMP JUMPDEST PUSH1 0x0 PUSH2 0xEF9 DUP4 DUP4 PUSH2 0xE9D JUMP JUMPDEST SWAP1 POP SWAP3 SWAP2 POP POP JUMP JUMPDEST PUSH1 0x0 PUSH1 0x20 DUP3 ADD SWAP1 POP SWAP2 SWAP1 POP JUMP JUMPDEST PUSH1 0x0 PUSH2 0xF19 DUP3 PUSH2 0xE71 JUMP JUMPDEST PUSH2 0xF23 DUP2 DUP6 PUSH2 0xE7C JUMP JUMPDEST SWAP4 POP DUP4 PUSH1 0x20 DUP3 MUL DUP6 ADD PUSH2 0xF35 DUP6 PUSH2 0xE8D JUMP JUMPDEST DUP1 PUSH1 0x0 JUMPDEST DUP6 DUP2 LT ISZERO PUSH2 0xF71 JUMPI DUP5 DUP5 SUB DUP10 MSTORE DUP2 MLOAD PUSH2 0xF52 DUP6 DUP3 PUSH2 0xEED JUMP JUMPDEST SWAP5 POP PUSH2 0xF5D DUP4 PUSH2 0xF01 JUMP JUMPDEST SWAP3 POP PUSH1 0x20 DUP11 ADD SWAP10 POP POP PUSH1 0x1 DUP2 ADD SWAP1 POP PUSH2 0xF39 JUMP JUMPDEST POP DUP3 SWAP8 POP DUP8 SWAP6 POP POP POP POP POP POP SWAP3 SWAP2 POP POP JUMP JUMPDEST PUSH1 0x0 PUSH1 0x20 DUP3 ADD SWAP1 POP DUP2 DUP2 SUB PUSH1 0x0 DUP4 ADD MSTORE PUSH2 0xF9D DUP2 DUP5 PUSH2 0xF0E JUMP JUMPDEST SWAP1 POP SWAP3 SWAP2 POP POP JUMP JUMPDEST PUSH32 0x4E487B7100000000000000000000000000000000000000000000000000000000 PUSH1 0x0 MSTORE PUSH1 0x32 PUSH1 0x4 MSTORE PUSH1 0x24 PUSH1 0x0 REVERT JUMPDEST PUSH1 0x0 DUP3 DUP3 MSTORE PUSH1 0x20 DUP3 ADD SWAP1 POP SWAP3 SWAP2 POP POP JUMP JUMPDEST PUSH32 0x494420616C726561647920657869737473000000000000000000000000000000 PUSH1 0x0 DUP3 ADD MSTORE POP JUMP JUMPDEST PUSH1 0x0 PUSH2 0x101B PUSH1 0x11 DUP4 PUSH2 0xFD4 JUMP JUMPDEST SWAP2 POP PUSH2 0x1026 DUP3 PUSH2 0xFE5 JUMP JUMPDEST PUSH1 0x20 DUP3 ADD SWAP1 POP SWAP2 SWAP1 POP JUMP JUMPDEST PUSH1 0x0 PUSH1 0x20 DUP3 ADD SWAP1 POP DUP2 DUP2 SUB PUSH1 0x0 DUP4 ADD MSTORE PUSH2 0x104A DUP2 PUSH2 0x100E JUMP JUMPDEST SWAP1 POP SWAP2 SWAP1 POP JUMP JUMPDEST PUSH32 0x4E487B7100000000000000000000000000000000000000000000000000000000 PUSH1 0x0 MSTORE PUSH1 0x11 PUSH1 0x4 MSTORE PUSH1 0x24 PUSH1 0x0 REVERT JUMPDEST PUSH1 0x0 PUSH2 0x108B DUP3 PUSH2 0xB59 JUMP JUMPDEST SWAP2 POP PUSH32 0xFFFFFFFFFFFFFFFFFFFFFFFFFFFFFFFFFFFFFFFFFFFFFFFFFFFFFFFFFFFFFFFF DUP3 SUB PUSH2 0x10BD JUMPI PUSH2 0x10BC PUSH2 0x1051 JUMP JUMPDEST JUMPDEST PUSH1 0x1 DUP3 ADD SWAP1 POP SWAP2 SWAP1 POP JUMP JUMPDEST PUSH32 0x4E487B7100000000000000000000000000000000000000000000000000000000 PUSH1 0x0 MSTORE PUSH1 0x22 PUSH1 0x4 MSTORE PUSH1 0x24 PUSH1 0x0 REVERT JUMPDEST PUSH1 0x0 PUSH1 0x2 DUP3 DIV SWAP1 POP PUSH1 0x1 DUP3 AND DUP1 PUSH2 0x110F JUMPI PUSH1 0x7F DUP3 AND SWAP2 POP JUMPDEST PUSH1 0x20 DUP3 LT DUP2 SUB PUSH2 0x1122 JUMPI PUSH2 0x1121 PUSH2 0x10C8 JUMP JUMPDEST JUMPDEST POP SWAP2 SWAP1 POP JUMP JUMPDEST PUSH1 0x0 DUP2 SWAP1 POP DUP2 PUSH1 0x0 MSTORE PUSH1 0x20 PUSH1 0x0 KECCAK256 SWAP1 POP SWAP2 SWAP1 POP JUMP JUMPDEST PUSH1 0x0 PUSH1 0x20 PUSH1 0x1F DUP4 ADD DIV SWAP1 POP SWAP2 SWAP1 POP JUMP JUMPDEST PUSH1 0x0 DUP3 DUP3 SHL SWAP1 POP SWAP3 SWAP2 POP POP JUMP JUMPDEST PUSH1 0x0 PUSH1 0x8 DUP4 MUL PUSH2 0x118A PUSH32 0xFFFFFFFFFFFFFFFFFFFFFFFFFFFFFFFFFFFFFFFFFFFFFFFFFFFFFFFFFFFFFFFF DUP3 PUSH2 0x114D JUMP JUMPDEST PUSH2 0x1194 DUP7 DUP4 PUSH2 0x114D JUMP JUMPDEST SWAP6 POP DUP1 NOT DUP5 AND SWAP4 POP DUP1 DUP7 AND DUP5 OR SWAP3 POP POP POP SWAP4 SWAP3 POP POP POP JUMP JUMPDEST PUSH1 0x0 DUP2 SWAP1 POP SWAP2 SWAP1 POP JUMP JUMPDEST PUSH1 0x0 PUSH2 0x11D1 PUSH2 0x11CC PUSH2 0x11C7 DUP5 PUSH2 0xB59 JUMP JUMPDEST PUSH2 0x11AC JUMP JUMPDEST PUSH2 0xB59 JUMP JUMPDEST SWAP1 POP SWAP2 SWAP1 POP JUMP JUMPDEST PUSH1 0x0 DUP2 SWAP1 POP SWAP2 SWAP1 POP JUMP JUMPDEST PUSH2 0x11EB DUP4 PUSH2 0x11B6 JUMP JUMPDEST PUSH2 0x11FF PUSH2 0x11F7 DUP3 PUSH2 0x11D8 JUMP JUMPDEST DUP5 DUP5 SLOAD PUSH2 0x115A JUMP JUMPDEST DUP3 SSTORE POP POP POP POP JUMP JUMPDEST PUSH1 0x0 SWAP1 JUMP JUMPDEST PUSH2 0x1214 PUSH2 0x1207 JUMP JUMPDEST PUSH2 0x121F DUP2 DUP5 DUP5 PUSH2 0x11E2 JUMP JUMPDEST POP POP POP JUMP JUMPDEST JUMPDEST DUP2 DUP2 LT ISZERO PUSH2 0x1243 JUMPI PUSH2 0x1238 PUSH1 0x0 DUP3 PUSH2 0x120C JUMP JUMPDEST PUSH1 0x1 DUP2 ADD SWAP1 POP PUSH2 0x1225 JUMP JUMPDEST POP POP JUMP JUMPDEST PUSH1 0x1F DUP3 GT ISZERO PUSH2 0x1288 JUMPI PUSH2 0x1259 DUP2 PUSH2 0x1128 JUMP JUMPDEST PUSH2 0x1262 DUP5 PUSH2 0x113D JUMP JUMPDEST DUP2 ADD PUSH1 0x20 DUP6 LT ISZERO PUSH2 0x1271 JUMPI DUP2 SWAP1 POP JUMPDEST PUSH2 0x1285 PUSH2 0x127D DUP6 PUSH2 0x113D JUMP JUMPDEST DUP4 ADD DUP3 PUSH2 0x1224 JUMP JUMPDEST POP POP JUMPDEST POP POP POP JUMP JUMPDEST PUSH1 0x0 DUP3 DUP3 SHR SWAP1 POP SWAP3 SWAP2 POP POP JUMP JUMPDEST PUSH1 0x0 PUSH2 0x12AB PUSH1 0x0 NOT DUP5 PUSH1 0x8 MUL PUSH2 0x128D JUMP JUMPDEST NOT DUP1 DUP4 AND SWAP2 POP POP SWAP3 SWAP2 POP POP JUMP JUMPDEST PUSH1 0x0 PUSH2 0x12C4 DUP4 DUP4 PUSH2 0x129A JUMP JUMPDEST SWAP2 POP DUP3 PUSH1 0x2 MUL DUP3 OR SWAP1 POP SWAP3 SWAP2 POP POP JUMP JUMPDEST PUSH2 0x12DD DUP3 PUSH2 0xD80 JUMP JUMPDEST PUSH8 0xFFFFFFFFFFFFFFFF DUP2 GT ISZERO PUSH2 0x12F6 JUMPI PUSH2 0x12F5 PUSH2 0xBAA JUMP JUMPDEST JUMPDEST PUSH2 0x1300 DUP3 SLOAD PUSH2 0x10F7 JUMP JUMPDEST PUSH2 0x130B DUP3 DUP3 DUP6 PUSH2 0x1247 JUMP JUMPDEST PUSH1 0x0 PUSH1 0x20 SWAP1 POP PUSH1 0x1F DUP4 GT PUSH1 0x1 DUP2 EQ PUSH2 0x133E JUMPI PUSH1 0x0 DUP5 ISZERO PUSH2 0x132C JUMPI DUP3 DUP8 ADD MLOAD SWAP1 POP JUMPDEST PUSH2 0x1336 DUP6 DUP3 PUSH2 0x12B8 JUMP JUMPDEST DUP7 SSTORE POP PUSH2 0x139E JUMP JUMPDEST PUSH1 0x1F NOT DUP5 AND PUSH2 0x134C DUP7 PUSH2 0x1128 JUMP JUMPDEST PUSH1 0x0 JUMPDEST DUP3 DUP2 LT ISZERO PUSH2 0x1374 JUMPI DUP5 DUP10 ADD MLOAD DUP3 SSTORE PUSH1 0x1 DUP3 ADD SWAP2 POP PUSH1 0x20 DUP6 ADD SWAP5 POP PUSH1 0x20 DUP2 ADD SWAP1 POP PUSH2 0x134F JUMP JUMPDEST DUP7 DUP4 LT ISZERO PUSH2 0x1391 JUMPI DUP5 DUP10 ADD MLOAD PUSH2 0x138D PUSH1 0x1F DUP10 AND DUP3 PUSH2 0x129A JUMP JUMPDEST DUP4 SSTORE POP JUMPDEST PUSH1 0x1 PUSH1 0x2 DUP9 MUL ADD DUP9 SSTORE POP POP POP JUMPDEST POP POP POP POP POP POP JUMP JUMPDEST PUSH32 0x53747564656E74206E6F7420666F756E64210000000000000000000000000000 PUSH1 0x0 DUP3 ADD MSTORE POP JUMP JUMPDEST PUSH1 0x0 PUSH2 0x13DC PUSH1 0x12 DUP4 PUSH2 0xFD4 JUMP JUMPDEST SWAP2 POP PUSH2 0x13E7 DUP3 PUSH2 0x13A6 JUMP JUMPDEST PUSH1 0x20 DUP3 ADD SWAP1 POP SWAP2 SWAP1 POP JUMP JUMPDEST PUSH1 0x0 PUSH1 0x20 DUP3 ADD SWAP1 POP DUP2 DUP2 SUB PUSH1 0x0 DUP4 ADD MSTORE PUSH2 0x140B DUP2 PUSH2 0x13CF JUMP JUMPDEST SWAP1 POP SWAP2 SWAP1 POP JUMP JUMPDEST PUSH1 0x0 PUSH2 0x141D DUP3 PUSH2 0xB59 JUMP JUMPDEST SWAP2 POP PUSH2 0x1428 DUP4 PUSH2 0xB59 JUMP JUMPDEST SWAP3 POP DUP3 DUP3 SUB SWAP1 POP DUP2 DUP2 GT ISZERO PUSH2 0x1440 JUMPI PUSH2 0x143F PUSH2 0x1051 JUMP JUMPDEST JUMPDEST SWAP3 SWAP2 POP POP JUMP JUMPDEST PUSH1 0x0 DUP2 SLOAD SWAP1 POP PUSH2 0x1455 DUP2 PUSH2 0x10F7 JUMP JUMPDEST SWAP1 POP SWAP2 SWAP1 POP JUMP JUMPDEST DUP2 DUP2 SUB PUSH2 0x146A JUMPI POP POP PUSH2 0x1542 JUMP JUMPDEST PUSH2 0x1473 DUP3 PUSH2 0x1446 JUMP JUMPDEST PUSH8 0xFFFFFFFFFFFFFFFF DUP2 GT ISZERO PUSH2 0x148C JUMPI PUSH2 0x148B PUSH2 0xBAA JUMP JUMPDEST JUMPDEST PUSH2 0x1496 DUP3 SLOAD PUSH2 0x10F7 JUMP JUMPDEST PUSH2 0x14A1 DUP3 DUP3 DUP6 PUSH2 0x1247 JUMP JUMPDEST PUSH1 0x0 PUSH1 0x1F DUP4 GT PUSH1 0x1 DUP2 EQ PUSH2 0x14D0 JUMPI PUSH1 0x0 DUP5 ISZERO PUSH2 0x14BE JUMPI DUP3 DUP8 ADD SLOAD SWAP1 POP JUMPDEST PUSH2 0x14C8 DUP6 DUP3 PUSH2 0x12B8 JUMP JUMPDEST DUP7 SSTORE POP PUSH2 0x153B JUMP JUMPDEST PUSH1 0x1F NOT DUP5 AND PUSH2 0x14DE DUP8 PUSH2 0x1128 JUMP JUMPDEST SWAP7 POP PUSH2 0x14E9 DUP7 PUSH2 0x1128 JUMP JUMPDEST PUSH1 0x0 JUMPDEST DUP3 DUP2 LT ISZERO PUSH2 0x1511 JUMPI DUP5 DUP10 ADD SLOAD DUP3 SSTORE PUSH1 0x1 DUP3 ADD SWAP2 POP PUSH1 0x1 DUP6 ADD SWAP5 POP PUSH1 0x20 DUP2 ADD SWAP1 POP PUSH2 0x14EC JUMP JUMPDEST DUP7 DUP4 LT ISZERO PUSH2 0x152E JUMPI DUP5 DUP10 ADD SLOAD PUSH2 0x152A PUSH1 0x1F DUP10 AND DUP3 PUSH2 0x129A JUMP JUMPDEST DUP4 SSTORE POP JUMPDEST PUSH1 0x1 PUSH1 0x2 DUP9 MUL ADD DUP9 SSTORE POP POP POP JUMPDEST POP POP POP POP POP POP JUMPDEST JUMP JUMPDEST PUSH32 0x4E487B7100000000000000000000000000000000000000000000000000000000 PUSH1 0x0 MSTORE PUSH1 0x31 PUSH1 0x4 MSTORE PUSH1 0x24 PUSH1 0x0 REVERT INVALID LOG2 PUSH5 0x6970667358 0x22 SLT KECCAK256 EXTCODEHASH 0xD7 0xE2 PUSH18 0x892BF03D82E63AC717022E6E60A396842AB5 PUSH27 0xC2DA28230EB1B1C17D64736F6C63430008130033A2646970667358 0x22 SLT KECCAK256 0xD 0xCB SWAP8 SMOD 0xED AND 0x4B OR LOG2 0xE5 0xB7 SWAP16 0xAC 0xAF PC SMOD 0xDC 0x1E 0xEC 0xE1 0xC2 LOG2 0x27 BALANCE 0xEC 0x5D 0xDC LOG0 ISZERO 0xDC DUP8 0xD7 PUSH5 0x736F6C6343 STOP ADDMOD SGT STOP CALLER "
		},
		"gasEstimates": {
			"creation": {
				"codeDepositCost": "2285200",
				"executionCost": "2449",
				"totalCost": "2287649"
			},
			"external": {
				"addCourse(string,string,uint256,bool)": "infinite",
				"courseRegistrations(uint256,uint256)": "infinite",
				"courses(uint256)": "infinite",
				"createStudentRegistry()": "infinite",
				"getAllCourses()": "infinite",
				"getCourseByCode(string)": "infinite",
				"getStudentsForRegisteredCourse()": "188",
				"listOfStudentRegistryContracts(uint256)": "infinite",
				"registerForCourse()": "189"
			},
			"internal": {
				"compareStrings(string memory,string memory)": "infinite"
			}
		},
		"methodIdentifiers": {
			"addCourse(string,string,uint256,bool)": "1aba8695",
			"courseRegistrations(uint256,uint256)": "efbd33de",
			"courses(uint256)": "96f979d2",
			"createStudentRegistry()": "ea7c6669",
			"getAllCourses()": "04e48bd1",
			"getCourseByCode(string)": "e0e2a376",
			"getStudentsForRegisteredCourse()": "e95f4905",
			"listOfStudentRegistryContracts(uint256)": "bef55d47",
			"registerForCourse()": "6e66302c"
		}
	},
	"abi": [
		{
			"inputs": [
				{
					"internalType": "string",
					"name": "_code",
					"type": "string"
				},
				{
					"internalType": "string",
					"name": "_title",
					"type": "string"
				},
				{
					"internalType": "uint256",
					"name": "_units",
					"type": "uint256"
				},
				{
					"internalType": "bool",
					"name": "compulsory",
					"type": "bool"
				}
			],
			"name": "addCourse",
			"outputs": [],
			"stateMutability": "nonpayable",
			"type": "function"
		},
		{
			"inputs": [
				{
					"internalType": "uint256",
					"name": "",
					"type": "uint256"
				},
				{
					"internalType": "uint256",
					"name": "",
					"type": "uint256"
				}
			],
			"name": "courseRegistrations",
			"outputs": [
				{
					"internalType": "address",
					"name": "",
					"type": "address"
				}
			],
			"stateMutability": "view",
			"type": "function"
		},
		{
			"inputs": [
				{
					"internalType": "uint256",
					"name": "",
					"type": "uint256"
				}
			],
			"name": "courses",
			"outputs": [
				{
					"internalType": "string",
					"name": "code",
					"type": "string"
				},
				{
					"internalType": "string",
					"name": "title",
					"type": "string"
				},
				{
					"internalType": "uint256",
					"name": "units",
					"type": "uint256"
				},
				{
					"internalType": "bool",
					"name": "isCompulsory",
					"type": "bool"
				}
			],
			"stateMutability": "view",
			"type": "function"
		},
		{
			"inputs": [],
			"name": "createStudentRegistry",
			"outputs": [],
			"stateMutability": "nonpayable",
			"type": "function"
		},
		{
			"inputs": [],
			"name": "getAllCourses",
			"outputs": [
				{
					"components": [
						{
							"internalType": "string",
							"name": "code",
							"type": "string"
						},
						{
							"internalType": "string",
							"name": "title",
							"type": "string"
						},
						{
							"internalType": "uint256",
							"name": "units",
							"type": "uint256"
						},
						{
							"internalType": "bool",
							"name": "isCompulsory",
							"type": "bool"
						}
					],
					"internalType": "struct CourseRegistry.Course[]",
					"name": "",
					"type": "tuple[]"
				}
			],
			"stateMutability": "view",
			"type": "function"
		},
		{
			"inputs": [
				{
					"internalType": "string",
					"name": "_code",
					"type": "string"
				}
			],
			"name": "getCourseByCode",
			"outputs": [
				{
					"components": [
						{
							"internalType": "string",
							"name": "code",
							"type": "string"
						},
						{
							"internalType": "string",
							"name": "title",
							"type": "string"
						},
						{
							"internalType": "uint256",
							"name": "units",
							"type": "uint256"
						},
						{
							"internalType": "bool",
							"name": "isCompulsory",
							"type": "bool"
						}
					],
					"internalType": "struct CourseRegistry.Course",
					"name": "",
					"type": "tuple"
				}
			],
			"stateMutability": "view",
			"type": "function"
		},
		{
			"inputs": [],
			"name": "getStudentsForRegisteredCourse",
			"outputs": [],
			"stateMutability": "nonpayable",
			"type": "function"
		},
		{
			"inputs": [
				{
					"internalType": "uint256",
					"name": "",
					"type": "uint256"
				}
			],
			"name": "listOfStudentRegistryContracts",
			"outputs": [
				{
					"internalType": "contract StudentRegistry",
					"name": "",
					"type": "address"
				}
			],
			"stateMutability": "view",
			"type": "function"
		},
		{
			"inputs": [],
			"name": "registerForCourse",
			"outputs": [],
			"stateMutability": "nonpayable",
			"type": "function"
		}
	]
}